:020000040000FA
:1000000000800220150400001D0400001F040000F1
:10001000210400002304000025040000000000006B
:10002000FFFFFFFF000000000000000027040000A9
:1000300029040000000000002B0400002D04000033
:100040002F04000033040000370400003B040000CC
:100050003F04000043040000470400004B0400007C
:100060004F04000053040000570400005B0400002C
:100070005F04000063040000670400006B040000DC
:100080006F04000073040000770400007B0400008C
:100090007F04000083040000870400008B0400003C
:1000A0008F04000093040000970400009B040000EC
:1000B0009F040000A3040000A7040000AB0400009C
:1000C000AF040000B3040000B7040000BB0400004C
:1000D000BF040000C3040000C7040000CB040000FC
:1000E000CF040000D3040000D7040000DB040000AC
:1000F000DF040000E3040000E7040000EB0400005C
:10010000EF040000F3040000F7040000FB0400000B
:10011000FF04000003050000070500000B050000B8
:100120000F050000000000000000000000000000BB
:1001300000000000000000000000000000000000BF
:1001400000000000000000000000000000000000AF
:10015000000000000000000000000000000000009F
:10016000000000000000000000000000000000008F
:10040000DFF80CD000F038FC004800470D4E00002B
:10041000008002203F4880473F480047FEE7FEE754
:10042000FEE7FEE7FEE7FEE7FEE7FEE7FEE73B4806
:1004300000473B4800473B4800473B4800473B4894
:1004400000473B4800473B4800473B4800473B4884
:1004500000473B4800473B4800473B4800473B4874
:1004600000473B4800473B4800473B4800473B4864
:1004700000473B4800473B4800473B4800473B4854
:1004800000473B4800473B4800473B4800473B4844
:1004900000473B4800473B4800473B4800473B4834
:1004A00000473B4800473B4800473B4800473B4824
:1004B00000473B4800473B4800473B4800473B4814
:1004C00000473B4800473B4800473B4800473B4804
:1004D00000473B4800473B4800473B4800473B48F4
:1004E00000473B4800473B4800473B4800473B48E4
:1004F00000473B4800473B4800473B4800473B48D4
:1005000000473B4800473B4800473B4800473B48C3
:100510000047FEE755260000010400001305000017
:10052000130500001305000013050000130500006B
:10053000130500001305000013050000130500005B
:10054000130500001305000013050000130500004B
:1005500013050000A91E00001D1F0000911F0000D0
:100560000520000079200000ED200000612100003E
:10057000D52100001305000013050000130500003D
:10058000130500001305000013050000130500000B
:1005900013050000130500001305000013050000FB
:1005A00013050000130500001305000013050000EB
:1005B0001305000013050000130500004922000088
:1005C000BD22000013050000130500001305000004
:1005D00013050000130500001305000013050000BB
:1005E000C11D0000130500001305000013050000E5
:1005F000130500001305000013050000130500009B
:100600002DE9F05F0546002092469B468846064647
:10061000814640241BE0284641464746224600F0DA
:1006200094FA53465A46C01A914110D311461846BF
:10063000224600F07BFA2D1A67EB01084F4622464E
:100640000120002100F072FA17EB00094E41201E34
:10065000A4F10104DFDC484631462A464346BDE8A2
:10066000F09F40EA01039B0703D009E008C9121F6D
:1006700008C0042AFAD203E011F8013B00F8013B5C
:10068000521EF9D27047421C10F8011B0029FBD101
:10069000801A704710B5002200E0521C835C8C5C0D
:1006A000A34201D1002BF8D1D8B2E1B2401A10BD5B
:1006B00030B505460020034600E05B1C934205D29E
:1006C000EC5CC85C201A01D1002CF6D130BD2DE9BC
:1006D000FE4F804681EA0300C00F0C46009021F0D7
:1006E000004123F00045B8EB0200A94105D2404685
:1006F000214690461C460B46024623F0004010431C
:1007000047D0270DC7F30A00C3F30A510290401ADD
:10071000019040286BDAC3F3130040F4801B00986B
:10072000924620B10023D2EB030A63EB0B0B019836
:100730005946C0F14002504600F0F8F906460D4611
:1007400050465946019A00F010FA10EB080061413A
:10075000002487EA115284EAE7731A4340D0009AD2
:1007600062B3019A012A4FEA075215DC001B61EBC4
:1007700002014FF0004202EA0752CDE90042001C9C
:1007800041F5801132462B4600F010FA03B0BDE867
:10079000F08F40462146F9E7001B61EB0201001C87
:1007A00041F5801300185B412018A2F5001747EBB4
:1007B000030140EAD570B6196D4111E06D084FEAAA
:1007C000360645EAC0754FEA0752001B61EB02018D
:1007D000001C41F5801149084FEA300000195141D1
:1007E00032462B4603B0BDE8F04F00F0D0B9009878
:1007F000012240000023D0EB020263EBE07300987B
:1008000021464FEAE074B8EB000061EB0401E9E730
:1008100083F000435BE781F0004158E72DE9FE4F8C
:1008200081EA030404F0004421F0004100944FF0F9
:10083000000B23F0004350EA01045ED052EA0304A7
:100840005BD0C3F30A54C1F30A552C44A4F2F33429
:100850000194A0FB0254C1F3130141F48011C3F3CE
:10086000130343F4801301FB024400FB034E840A8C
:10087000970A44EA815447EA8357A4FB0768029524
:100880008D0A05FB07854FEA932C04FB0C542705C2
:10089000029D4FEA065847EA1637B5EB08056EEB9E
:1008A000070C870E920E47EA811742EA8312A7FBD4
:1008B0000201B6EB0B0164EB00042B0D43EA0C3391
:1008C0005E1844EB1C50DA465146E7FB0201C5F3C3
:1008D00013044FEA0B3343EA14534FEA0432019CEA
:1008E00043EA0603A4F10C040294009CCDE900B491
:1008F00000F05CF903B0BDE8F08F00200146F9E795
:100900002DE9F04D81EA030404F0004B21F000458D
:1009100014464FF0000A23F0004150EA050220D0AF
:1009200054EA01021DD0C5F30A570246C5F313036A
:10093000C1F31300C1F30A5640F4801543F4801349
:10094000A7EB0608101BD64608F2FD3873EB05002E
:1009500002D308F1010801E092185B41B8F1000FE1
:1009600003DA00200146BDE8F08D00204FF480112D
:10097000064684460EE0171B73EB050705D3121BD2
:1009800063EB050306434CEA010C49084FEA3000CB
:1009900092185B4150EA0107EDD152EA030012D0F0
:1009A00082EA040083EA0501084305D0101BAB412D
:1009B00006D20122002306E000224FF0004302E0AD
:1009C0006FF0010253101AEB06004CEB085110EBCC
:1009D0000A0041EB0B01BDE8F04D00F0D8B80EB5B0
:1009E000C10F80EAE0700844CA07002140F2334397
:1009F0008DE80E000A460B4600F0D8F803B000BDA3
:100A00000EB540F2334102910021CDE900110A46B2
:100A10000B4600F0CBF803B000BD3EB5CA17CB0FB4
:100A2000002450405140C0186141DA0740F233437E
:100A30000094CDE901232246234600F0B7F803B025
:100A400030BD70B5C1F30A5201F000450024C1F376
:100A5000130140F2FF3341F480119A4201DA002081
:100A600070BD40F233439A42A2F2334203DC524259
:100A700000F06BF800E090402C43F1D0404270BD94
:100A800070B5C1F30A5201F000450024C1F313010F
:100A900040F2FF3341F480119A4202DA002001460D
:100AA00070BD40F233439A42A2F2334203DC524219
:100AB00000F04BF801E000F039F82C43F0D00023AF
:100AC000D0EB030063EB010170BD000030B5041EE4
:100AD00071F1000404DB4FF00044404264EB01017B
:100AE000141E73F1000405DB1C464FF00043524214
:100AF00063EB04038B4208BF824230BD30B5041E55
:100B000071F1000404DB4FF00044404264EB01014A
:100B1000141E73F1000405DB1C464FF000435242E3
:100B200063EB0403994208BF904230BD202A04DBE6
:100B3000203A00FA02F1002070479140C2F12003F0
:100B400020FA03F3194390407047202A04DB203A2F
:100B500021FA02F00021704721FA02F3D040C2F1DD
:100B600020029140084319467047202A06DBCB1724
:100B7000203A41FA02F043EAE07306E041FA02F358
:100B8000D040C2F12002914008431946704710B589
:100B9000141E73F1000408DA401C41F100019218A0
:100BA0005B411A4301D120F0010010BD2DE9F04D49
:100BB00092469B4611B1B1FA81F202E0B0FA80F29E
:100BC00020329046FFF7B2FF04460F4640EA0A0083
:100BD00041EA0B0153465A46084313D0114653EAE3
:100BE000010019D0C8F140025046FFF7AEFF05469C
:100BF0000E46504659464246FFF798FF084305D037
:100C0000012004E020463946BDE8F08D0020054370
:100C100046EAE0762C4337430A986305E40AA0EBE2
:100C200008000022FD0A44EA47540A3002D5002099
:100C30000146E9E7010510196941DDE90845001998
:100C40006941BDE8F04DA2E770B521F000430343D0
:100C50000CD0C1F30A550024D5EB040564EB040362
:100C6000D617AD1AB34102DB0020014670BD201833
:100C700041EB025170BD0000064C074D06E0E068F4
:100C800040F0010394E8070098471034AC42F6D3D3
:100C9000FFF7BAFBA4530000C45300002DE9F04D48
:100CA00000231A461B1A8A4103DB00200146BDE8D7
:100CB000F08DC1F30A52C1F3130141F480154FF0D6
:100CC000000BD10702D100186D41521E00270446C7
:100CD00040F2FF11384601EB620A3E46804602466A
:100CE00000204FF48011FFF730FFC2197141BB188B
:100CF00046EB0100B4EB030C75EB000C04D3E41AD3
:100D000065EB000517460E46241908F101006D41F8
:100D100080463428E3DDF91946EB0600091BA8419B
:100D200003D24FF0FF32134601E0002213461BEBC3
:100D3000070046EB0A51BDE8F04DFFF728BF000061
:100D400010B5042001F09EFB0B4800F077F80B482B
:100D500001F0A2FB094800F06FFC084800F0BAFC63
:100D600000220121202000F047FC054800F066F831
:100D700002480449086010BD00111000006CDC023C
:100D8000001410000000002070B50C4801F010FCA9
:100D9000202000F069F905462B4605224FF4E13189
:100DA000074800F067FE044604B904E04A2205A1A2
:100DB00007A002F0EDFB204670BD0000120001000C
:100DC000008009402E2E2F626F6172642E63000036
:100DD0006B5374617475735F5375636365737320CC
:100DE0003D3D20726573756C7400000070B50D2078
:100DF000010A032905D2012282400D4B43F821202C
:100E000005E001229307DA6482400A4B5A6100BF71
:100E100040F20734234614220021074801F021FB49
:100E20002546234613220021034801F01AFB70BD1A
:100E3000200200400000044000100040F0B50024F3
:100E40000F4D002316E003EB4306B600F040C1B29D
:100E500070B1C0F30326761EF2B21F2905D1012618
:100E6000B707FE64074E326203E045F8212000E038
:100E700001245B1C022B01D8002CE4D0F0BD000043
:100E8000800200400000044000B51148006810B91D
:100E900000F05CFA00BD0E480068012802D100F0A5
:100EA000BDFAF7E70A480068022802D100F07EFB8D
:100EB000F0E707480068032802D100F023F8E9E7CB
:100EC00003480068072801D10020E3E70020E1E79C
:100ED000A402004010B500BF0849096A01F00301EF
:100EE0000C4614B1012C05D102E000F04DF803E0EE
:100EF000034801E0002000BF00BF10BD0000044017
:100F0000001BB70001480068704700000C0000207B
:100F100000B51C48006810B900F036F800BD19484B
:100F20000068012802D100F06DF8F7E71548006865
:100F3000022802D100F040FBF0E7124800680328C5
:100F400002D100F003FAE9E70E480068042802D154
:100F500000F064FAE2E70B480068052802D100F0CF
:100F600025FBDBE707480068062802D1FFF7CAFF28
:100F7000D4E704480068072802D100F04BFACDE717
:100F80000020CBE78802004000B51D48006830B95A
:100F90001B48001F006810B900F0CAF900BD1848CE
:100FA000006838B91648001F0068012802D100F017
:100FB00029F8F3E71248006838B91148001F0068A3
:100FC000022802D100F0F8FAE8E70D48006838B9C5
:100FD0000B48001F0068032802D100F0B7F9DDE7D5
:100FE00007480068022802D100F018FAD6E7044842
:100FF0000068032802D100F00DFACFE70020CDE70A
:101000008402004000487047001BB70010B504463A
:10101000144850F8240010B900F08AF910BD1148A6
:1010200050F82400012802D100F090F9F6E70D48AD
:1010300050F82400022802D100F0F0F9EEE7094848
:1010400050F82400032802D100F0A0F9E6E7054893
:1010500050F82400042803D1152000F005F8DDE73E
:101060000020DBE7B002004070B50546232D70D2AA
:10107000DFE805F012161F5B29333D476F51CFD9CA
:10108000F2F0EFEE5F63676F6B7092CBEDECEBEA23
:10109000E9E8E7E6E5E4E300FFF776FF044642E12E
:1010A000FFF772FFA1490968C9B2491CB0FBF1F40E
:1010B00039E1FFF72DFF9D49091D0968C9B2491C97
:1010C000B0FBF1F42FE100F003FA98491031096800
:1010D000C9B2491CB0FBF1F425E1FFF7D5FE9349F5
:1010E00014310968C9B2491CB0FBF1F41BE100F0EE
:1010F0001DFA8E4918310968C9B2491CB0FBF1F4D8
:1011000011E100F033FA89491C310968C9B2491C60
:10111000B0FBF1F407E100F05DF984492C31096876
:10112000C9B2491CB0FBF1F4FDE000F00FF9044630
:10113000F9E000F0FDF80446F5E0FFF763FF044630
:10114000F1E000F06BF90446EDE000F035FA0446FA
:10115000E9E0E6E075489838006810B9FFF714FF39
:1011600018E0724898380068012802D100F056F95A
:1011700010E06E4898380068022802D100F0D8F8D4
:1011800008E06A4898380068032802D100F0DEF8C9
:1011900000E000200446C6E064489438006810B9B6
:1011A00000F0C6F828E0614894380068012802D1B0
:1011B00000F0CCF820E05D4894380068022802D1A5
:1011C00000F02CF918E0594894380068032802D13F
:1011D00000F0DCF810E0554894380068042802D18B
:1011E000FFF7D2FE08E0514894380068052802D184
:1011F00000F0E2F900E0002004464C482830006886
:10120000C0B2401CB4FBF0F48DE0FFF763FE04466F
:1012100089E000F009F9454934310968C9B2491C2F
:10122000B0FBF1F47FE000F025F940493C3109685A
:10123000C9B2491CB0FBF1F475E06DE067E061E014
:101240005BE055E04FE049E043E03DE037E032E06D
:1012500027E01CE011E0FFE7FFF796FE334909683D
:10126000C9B2491CB0FBF1F14FF08040D0F8B8038F
:10127000C0B2401CB1FBF0F455E000F089F82B49F6
:1012800030310968C9B2491CB0FBF1F44BE0FFF7FB
:101290007BFE264978390968C9B2491CB0FBF1F4D4
:1012A00041E0FFF771FE214974390968C9B2491C50
:1012B000B0FBF1F437E000F069F8044633E00020B9
:1012C000FFF7A4FE04462EE00120FFF79FFE044630
:1012D00029E00220FFF79AFE044624E00320FFF7EE
:1012E00095FE04461FE00420FFF790FE04461AE036
:1012F0000520FFF78BFE044615E00620FFF786FE6B
:10130000044610E00720FFF781FE04460BE00820AA
:10131000FFF77CFE044606E00920FFF777FE04464F
:1013200001E0002400BF00BF204670BD80030040E4
:101330000448006800F0100008B10020704702481F
:10134000FCE7000010060040001BB7000B480068D7
:1013500000F0100008B1002070470948006800F054
:10136000804008B90020F7E70548006800F4804095
:1013700008B10448F0E70448EEE70000100600401A
:101380000005004000D8B805006CDC020020704762
:1013900000B50E48006810B9FFF7F6FD00BD0B4818
:1013A0000068012802D100F013F8F7E70748006849
:1013B000022802D1FFF7CAFFF0E7044800680328BB
:1013C00001D10020EAE70020E8E70000F402004035
:1013D0000020704700B50E48006848B9FFF7B6FF17
:1013E0000B49A8310968C9B2491CB0FBF1F000BD36
:1013F00007480068012802D1FFF784FDF7E7044899
:101400000068072801D10020F1E70020EFE7000085
:10141000E00200404FF400407047000001480068BF
:10142000704700000400002000B51148006810B9A2
:10143000FFF7AAFD00BD0E480068012802D1FFF7A2
:10144000EDFFF7E70A480068022802D1FFF77EFFA8
:10145000F0E707480068032802D1FFF753FDE9E7EA
:1014600003480068072801D10020E3E70020E1E7F6
:10147000F002004000B51548006810B9FFF784FD80
:1014800000BD12480068012802D1FFF7C7FFF7E747
:101490000E480068022802D100F088F8F0E70B48F7
:1014A0000068032802D1FFF751FFE9E70748006809
:1014B000042802D1FFF726FDE2E704480068072868
:1014C00001D10020DCE70020DAE70000F80200404C
:1014D00000B51548006810B9FFF756FD00BD124869
:1014E0000068012802D1FFF799FFF7E70E4800686E
:1014F000022802D100F05AF8F0E70B4800680328F0
:1015000002D1FFF723FFE9E707480068042802D16A
:10151000FFF7F8FCE2E704480068072801D1002043
:10152000DCE70020DAE70000A002004000B50E482A
:10153000006810B9FFF70AFF00BD0B4800680128DA
:1015400002D1FFF76BFFF7E707480068022802D1D6
:1015500000F02CF8F0E704480068072801D10020CB
:10156000EAE70020E8E70000A802004000B50E48C6
:10157000006810B9FFF708FD00BD0B48006801289E
:1015800002D1FFF74BFFF7E707480068022802D1B6
:1015900000F00CF8F0E704480068072801D10020AB
:1015A000EAE70020E8E70000AC02004001480068DC
:1015B00070470000080000200C48006800F480100C
:1015C00008B1002070470A48006800F01F00401C66
:1015D000410007480068C0F34410064B1A5C4CF207
:1015E00050305043B0FBF1F0ECE700001006004033
:1015F000080500406C4F000010B51346074A1BB1A8
:101600004FF0005442F8204021B94FF0804442F896
:10161000204002E04C1E42F8204010BD0003004074
:10162000044A126822F4704141EA0032014B1A6008
:10163000704700000004004010B504461D48844275
:1016400003D80020FFF7ECFF33E01B48844203D8A7
:101650000120FFF7E5FF2CE01848844203D8022060
:10166000FFF7DEFF25E01648844203D80320FFF78A
:10167000D7FF1EE01348844203D80420FFF7D0FFB1
:1016800017E01148844203D80520FFF7C9FF10E096
:101690000E48844203D80620FFF7C2FF09E00C4839
:1016A000844203D80720FFF7BBFF02E00820FFF7C2
:1016B000B7FF10BD001BB70000366E0100512502B8
:1016C0000087930300D8B805000E2707004495084B
:1016D000007A030A70B504462148844207D080008E
:1016E000844204D04000844201D0012070BD042017
:1016F00000F0BEFE1B480068C0F300651848844235
:1017000025D9C000844211D1174800681749084004
:1017100040F4804040F000404FF0807101EA0561E4
:10172000084340F080400F49086016E00E48001F53
:1017300000680E49084040F000404FF0807101EA17
:101740000561084340F080400649086005E005480F
:10175000006820F08040034908600020C6E70000D0
:10176000001BB700000500404C040001FF3FFF00D4
:101770002DE9FF4F2DED108B87B0824616469B4614
:101780004FF000085546002005F8010B189890ED21
:10179000000BB0EE40AAF0EE60AA9FED840B53EC74
:1017A000102B51EC1A0BFFF791F90AD13020287059
:1017B00008F10108404607B0BDEC108B04B0BDE84D
:1017C000F08F02A8B0EE4A0AF0EE6A0A01F002FFBA
:1017D000B0EE409AF0EE609A4FF000090CE030460F
:1017E000FFF7FDF841EC1D0B53EC192BFFF716F832
:1017F00041EC190B09F10109D945F0D39FED6B0BB1
:1018000053EC102B51EC1A0BFFF778F92ED89FED03
:10181000690B53EC102B51EC190BFEF758FF41EC00
:10182000180B5846FFF7ECF841EC1E0BB0EE4E1AC1
:10183000F0EE6E1A9FED610B01F036FFB0EE40DA6C
:10184000F0EE60DA53EC182B51EC1D0BFFF73EF96C
:101850003ED89FED5C0B53EC102B9DED020B51EC31
:10186000100BFEF734FFCDE9020131E09FED510B83
:1018700053EC102B51EC190BFEF7CAFF41EC180B7F
:101880005846FFF7BDF841EC1F0BB0EE4F1AF0EED3
:101890006F1A9FED4A0B01F007FFB0EE40EAF0EE41
:1018A00060EA51EC1E0B81F0004141EC1D0B53EC42
:1018B000182BFFF723F90BD89FED420B53EC102B9D
:1018C0009DED020B51EC100BFEF7A2FFCDE90201DA
:1018D0004FF000093BE03046FFF781F841EC1D0B6B
:1018E00053EC1D2B51EC180BFFF70AF841EC1B0BC6
:1018F00051EC1B0BFFF7C4F8F317A0FB062C01FB00
:1019000006C100FB0310CDE9002010460199FFF746
:1019100084F853EC182BFEF77EFF41EC1C0B51ECC6
:101920001C0BFFF78EF80446002C05DA0494049C87
:10193000E04300F1310400E03034B0EE4B8AF0EEC9
:101940006B8A05F8014B08F1010809F10109D94535
:10195000C1D32E2005F8010B08F101089DED020B03
:1019600051EC100BFFF76DF807462FB9302005F842
:10197000010B08F1010816E013E097FBF6F0059063
:10198000059800FB1674002C05DA0494049CE043CF
:1019900000F1310400E03034059F05F8014B08F1F7
:1019A0000108002FE9D1404605E7000000000000D3
:1019B00000000000000000000000E03F0000000008
:1019C00000002440000000000000F03F2DE9F04F2F
:1019D00007468C46914600203946834601F801BBF4
:1019E000B9F1000F1ED0DCF8004034B94FF0300BD5
:1019F00081F800B0401CBDE8F08F10E094FBF3F8D4
:101A000008FB1345002D05DA2A466FEA020B0BF19D
:101A1000310500E03035444601F8015B401C002CE4
:101A2000ECD125E0DCF800602EB94FF0300B81F8E6
:101A300000B0401CDFE719E0B6FBF3FA0AFB1362C3
:101A40000A2A01D230320DE0A2F10A0BDDF824E0BF
:101A5000BEF1000F02D04FF0410E01E04FF0610ED9
:101A60000BEB0E02564601F8012B401C002EE3D171
:101A700000BFC0E7FEB505460E4614461F46104897
:101A8000007808B10120FEBD0D480470052C11D16D
:101A90004560684600F0F6FD009609493A464868F8
:101AA000694600F023FE0748054988600649044856
:101AB000C16001E00420E6E700BF0020E3E700008A
:101AC000440100203D2A0000352800000FB438B53D
:101AD0000948007820B94FF0FF3038BC5DF814FB9E
:101AE00005A800900548009A049900F009F80446FA
:101AF000002000902046F0E7440100209D1D0000DA
:101B00002DE9F74F96B006468B464FF000090027A7
:101B100000200A90069004905D4623E1252C05D014
:101B20002046B0470A98401C0A901AE14FF0010A7B
:101B3000002009900B9012E0681C05460478302CB8
:101B40000ADB392C08DCA4F13000099901EB810192
:101B500000EB4100099002E06D1E01200B900B98F4
:101B60000028E9D006200890681C054600782E2839
:101B70001AD1002008900B9012E0681C05460478EA
:101B8000302C0ADB392C08DCA4F13000089901EB79
:101B9000810100EB4100089002E06D1E01200B90D6
:101BA0000B980028E9D000E06D1E681C05460478FB
:101BB000642C11D0692C0FD0662C0DD0462C0BD084
:101BC000782C09D0582C07D06F2C05D0622C03D06C
:101BD000702C01D0752C7DD1642C01D0692C11D1D1
:101BE0001898006805901898001D18900A23012283
:101BF00005A90CA8CDF800A0FFF7E8FE07460CA841
:101C000000EB0709662C01D0462C13D11898C01D93
:101C100020F007001890B0EC020B18908DED020B2D
:101C20000A2202A90CA8089BFFF7A2FD07460CA8F0
:101C300000EB0709582C01D0782C15D1782C01D154
:101C40004FF0000A1898006804901898001D18902A
:101C50001023002204A90CA8CDF800A0FFF7B6FEBF
:101C600007460CA800EB07096F2C05D0622C03D0A7
:101C7000702C01D0752C28D1189800680490189801
:101C8000001D1890622C09D06F2C04D0702C08D045
:101C9000752C0CD108E00820069009E0022006907F
:101CA00006E01020069003E00A20069000E000BF46
:101CB00000BFCDF800A0002204A90CA8069BFFF7E6
:101CC00085FE07460CA800EB07090AAB00963946CB
:101CD000202000E011E0099A00F04CF8B9F1000F63
:101CE0003ED005E019F80109B0470A98401C0A9057
:101CF00099F800000028F5D132E0632C0BD1189838
:101D000010F8041B1890C8B207900798B0470A98BB
:101D1000401C0A9024E0732C1DD1189850F8048BB5
:101D20001890B8F1000F1BD04046FEF7ACFC0746F8
:101D30000AAB009639462020099A00F01BF805E00E
:101D400018F8010BB0470A98401C0A9098F8000058
:101D50000028F5D104E02046B0470A98401C0A90BC
:101D600000BF6D1C2878041E7FF4D8AE0A9819B005
:101D7000BDE8F08F2DE9F04780460D4616461C461B
:101D8000DDF820902F4605E04046C8472068401CFB
:101D900020607F1CB742F7DBBDE8F08701B507483C
:101DA000007810B94FF0FF3008BD0449486801229F
:101DB0008B68694698470120F6E70000440100203F
:101DC00010B5034801680348034A1268904710BDE4
:101DD00010000020002009401400002030B589B018
:101DE00004460D463520049005940695694604A8DE
:101DF00003F002F8009803F0ACF809B030BD70B5FC
:101E00008AB004460D46164638200590069407957C
:101E1000089601A905A802F0EFFF019803F099F8D0
:101E20000AB070BDF0B589B004460D4616461F468F
:101E3000332004900594069507964FF47A70B7FB0B
:101E4000F0F00890694604A802F0D6FF009803F06D
:101E500080F809B0F0BD70B58AB004460D4616464C
:101E600034200590069407954FF47A70B6FBF0F095
:101E7000089001A905A802F0BFFF019803F069F8D6
:101E80000AB070BD30B589B004460D4632200490CA
:101E900005940695694604A802F0AEFF009803F089
:101EA00058F809B030BD000010B50848006800B10E
:101EB00004E0A42206A111A001F06AFB154B1968E9
:101EC000154B1868014B1A68904710BD740000202C
:101ED0002E2E5C646576696365735C4C50433534C3
:101EE0003630385C647269766572735C66736C5FF9
:101EF000666C6578636F6D6D2E630000735F666C52
:101F00006578636F6D6D49727148616E646C65725E
:101F10005B305D009C000020C84F000010B50848F1
:101F2000406800B104E0AC2206A111A001F030FB32
:101F3000154B5968154B5868014B5A68904710BDAE
:101F4000740000202E2E5C646576696365735C4CBA
:101F5000504335343630385C647269766572735C30
:101F600066736C5F666C6578636F6D6D2E630000E1
:101F7000735F666C6578636F6D6D49727148616EF1
:101F8000646C65725B315D009C000020C84F0000EE
:101F900010B50848806800B104E0B42206A111A081
:101FA00001F0F6FA154B9968154B9868014B9A6841
:101FB000904710BD740000202E2E5C646576696326
:101FC00065735C4C504335343630385C64726976E6
:101FD0006572735C66736C5F666C6578636F6D6D5C
:101FE0002E630000735F666C6578636F6D6D497278
:101FF0007148616E646C65725B325D009C0000200C
:10200000C84F000010B50848C06800B104E0BC2209
:1020100006A111A001F0BCFA154BD968154BD86880
:10202000014BDA68904710BD740000202E2E5C64CE
:102030006576696365735C4C504335343630385C83
:10204000647269766572735C66736C5F666C6578E2
:10205000636F6D6D2E630000735F666C6578636FF0
:102060006D6D49727148616E646C65725B335D00C1
:102070009C000020C84F000010B50848006900B15E
:1020800004E0C42206A111A001F082FA154B1969DF
:10209000154B1869014B1A69904710BD7400002058
:1020A0002E2E5C646576696365735C4C50433534F1
:1020B0003630385C647269766572735C66736C5F27
:1020C000666C6578636F6D6D2E630000735F666C80
:1020D0006578636F6D6D49727148616E646C65728D
:1020E0005B345D009C000020C84F000010B508481C
:1020F000406900B104E0CD2206A111A001F048FA28
:10210000154B5969154B5869014B5A69904710BDD9
:10211000740000202E2E5C646576696365735C4CE8
:10212000504335343630385C647269766572735C5E
:1021300066736C5F666C6578636F6D6D2E6300000F
:10214000735F666C6578636F6D6D49727148616E1F
:10215000646C65725B355D009C000020C84F000018
:1021600010B50848806900B104E0D52206A111A08D
:1021700001F00EFA154B9969154B9869014B9A6954
:10218000904710BD740000202E2E5C646576696354
:1021900065735C4C504335343630385C6472697614
:1021A0006572735C66736C5F666C6578636F6D6D8A
:1021B0002E630000735F666C6578636F6D6D4972A6
:1021C0007148616E646C65725B365D009C00002036
:1021D000C84F000010B50848C06900B104E0DD2216
:1021E00006A111A001F0D4F9154BD969154BD86996
:1021F000014BDA69904710BD740000202E2E5C64FC
:102200006576696365735C4C504335343630385CB1
:10221000647269766572735C66736C5F666C657810
:10222000636F6D6D2E630000735F666C6578636F1E
:102230006D6D49727148616E646C65725B375D00EB
:102240009C000020C84F000010B50848006A00B18B
:1022500004E0E52206A111A001F09AF9154B196AD4
:10226000154B186A014B1A6A904710BD7400002084
:102270002E2E5C646576696365735C4C504335341F
:102280003630385C647269766572735C66736C5F55
:10229000666C6578636F6D6D2E630000735F666CAE
:1022A0006578636F6D6D49727148616E646C6572BB
:1022B0005B385D009C000020C84F000010B5084846
:1022C000406A00B104E0ED2206A111A001F060F91E
:1022D000154B596A154B586A014B5A6A904710BD05
:1022E000740000202E2E5C646576696365735C4C17
:1022F000504335343630385C647269766572735C8D
:1023000066736C5F666C6578636F6D6D2E6300003D
:10231000735F666C6578636F6D6D49727148616E4D
:10232000646C65725B395D009C000020C84F000042
:1023300070B50546002407E0074850F82400A8427D
:1023400001D1204670BD641C0A2CF5DB612203A17B
:102350000DA001F01DF90000C84F00002E2E5C6496
:102360006576696365735C4C504335343630385C50
:10237000647269766572735C66736C5F666C6578AF
:10238000636F6D6D2E63000066616C736500000005
:1023900070B505460E462846FFF7CAFF0446002CD6
:1023A00001DA042070BD0C4931F81400010A032938
:1023B00005D201228240094B43F8212005E0012289
:1023C0009307DA648240064B5A6100BF002231460F
:1023D000284600F024F8E5E7F04F00002002004016
:1023E0000000044010B5024609B9012010BD0129C2
:1023F0000CDB04290ADCD2F8F80FCB1C01249C402A
:10240000204008B10120F1E70020EFE7052904D1C1
:10241000D2F8F80FC0F3C010E8E70020E6E770B587
:1024200004460D46164629462046FFF7DBFF08B94D
:10243000032070BDD4F8F80F00F0080038B1D4F8CC
:10244000F80F00F00700A84201D00120F1E726B103
:1024500045F00800C4F8F80F01E0C4F8F85F002068
:10246000E7E710B500EBC11444F8223010BD0000BE
:1024700001218140024A030A42F8231070470000FC
:102480003006004001218140024A030A42F823102D
:10249000704700003006004010B504461A488442D8
:1024A00018D20B21002000F031F80C21012000F09F
:1024B0002DF80B21022000F029F80B21032000F059
:1024C00025F80B21042000F021F80B21052000F055
:1024D0001DF817E00D21002000F018F80C21012054
:1024E00000F014F80B21022000F010F80D21032059
:1024F00000F00CF80B21042000F008F80B21052057
:1025000000F004F810BD000000E1F50510B501F081
:102510000F02024C44F8202010BD000000000240D1
:102520002DE9F04105462E0CAFB2012000FA07F468
:10253000202F00D204E05D220DA117A001F028F8A1
:10254000032E08D31848846000BF17480068204055
:10255000A042FAD00AE0154840F8264000BF1348D0
:10256000403850F826002040A042F8D0BDE8F08165
:102570002E2E5C646576696365735C4C504335341C
:102580003630385C647269766572735C66736C5F52
:1025900072657365742E6300626974506F73203CBA
:1025A000203332750000000000000440400100406C
:1025B00010B50446204600F005F82046FFF7B0FFAE
:1025C00010BD00002DE9F04105462E0CAFB20120F0
:1025D00000FA07F4202F00D204E03C220DA117A03E
:1025E00000F0D6FF032E08D31848446000BF1748F8
:1025F000006820400028FAD00AE0154840F826403C
:1026000000BF1348203850F8260020400028F8D09A
:10261000BDE8F0812E2E5C646576696365735C4C61
:10262000504335343630385C647269766572735C59
:1026300066736C5F72657365742E630062697450B3
:102640006F73203C2033327500000000000004400E
:10265000200100400848006840F470000649086006
:10266000064805498039086000200549086038207F
:102670000907C1F82002704788ED00E00000000063
:102680000403004010B5044604B104E0D32209A1BC
:1026900012A000F07DFF4FF4E13020600020207197
:1026A00060710120A0710020E07120726072A07240
:1026B000E07210BD2E2E5C646576696365735C4CB8
:1026C000504335343630385C647269766572735CB9
:1026D00066736C5F75736172742E63004E554C4C5B
:1026E00020213D20636F6E66696700002DE9F0418F
:1026F00004460D46174614B10DB107B104E093220C
:1027000033A13DA000F044FF0CB105B117B904207E
:10271000BDE8F08101212046FFF73AFE06460EB1E2
:102720003046F5E73A462046296800F007F90646A4
:102730000EB13046ECE7687AB8B104F56064206801
:1027400040F001102060A06820F47060A060A068D4
:10275000A97A4FF4706202EA01210843A060A068E0
:1027600040F00100A060A4F56064287AB8B104F5D7
:102770006064206840F002102060A06820F470209F
:10278000A060A068E97A4FF4702202EA0141084390
:10279000A060A06840F00200A060A4F56064287901
:1027A000302101EA00106979402202EA81110843D0
:1027B000A9790C2202EA81010843E9794FF4004229
:1027C00002EAC1310843401C20600020A0E700005D
:1027D0002E2E5C646576696365735C4C50433534BA
:1027E0003630385C647269766572735C66736C5FF0
:1027F00075736172742E63002128284E554C4C204D
:102800003D3D206261736529207C7C20284E554C1B
:102810004C203D3D20636F6E66696729207C7C20DB
:102820002830203D3D20737263436C6F636B5F48BB
:102830007A2929002DE9F04104460D4617460CB1CE
:1028400005B105E04FF4977229A133A000F0A0FE76
:1028500004B115B90420BDE8F081D4F8000E00F0F1
:10286000020008B90120F6E73EE000BFD4F8040EEC
:1028700000F040000028F9D0A66806F4005030B1FE
:10288000A06840F40050A06041F24F60E3E706F416
:10289000804030B1A06840F48040A06041F25060B8
:1028A000D9E706F4004030B1A06840F40040A060D1
:1028B00041F24E60CFE7D4F8040E00F0020070B190
:1028C000D4F8000E40F40030C4F8000ED4F8040E22
:1028D00040F00200C4F8040E41F24D60BBE7D4F8AA
:1028E000300E28706D1C7F1E002FBED10020B2E775
:1028F0002E2E5C646576696365735C4C5043353499
:102900003630385C647269766572735C66736C5FCE
:1029100075736172742E63002128284E554C4C202B
:102920003D3D206261736529207C7C20284E554CFA
:102930004C203D3D20646174612929002DE9FC5F34
:1029400006460C4617464FF0FF3001904FF00F0A35
:10295000834616B10CB107B104E0E7221DA127A000
:1029600000F016FE0EB104B117B90420BDE8FC9FBB
:10297000554621E0681C6043B7FBF0F0A0F1010868
:10298000B8F5803F00D316E0681C08F10101484308
:10299000B7FBF0F94C4502D2A9EB040001E0A4EB2F
:1029A00009000090DDE90001884203D200980190FF
:1029B000AA46C34600BF6D1E082DDBD2BBF5803F83
:1029C00002D341F25160D1E7C6F828A0C6F820B082
:1029D0000020CBE72E2E5C646576696365735C4CE2
:1029E000504335343630385C647269766572735C96
:1029F00066736C5F75736172742E63002128284EB4
:102A0000554C4C203D3D206261736529207C7C2023
:102A10002830203D3D2062617564726174655F42BB
:102A2000707329207C7C202830203D3D2073726308
:102A3000436C6F636B5F487A2929000070B50446C8
:102A40000D4616460CB105B105E04FF4887212A18F
:102A50001BA000F09DFD04B105B970BDD4F8000EB7
:102A600000F0010000B9F8E70BE000BFD4F8040E55
:102A700000F020000028F9D02878C4F8200E6D1C42
:102A8000761E002EF1D100BFA06800F008000028DB
:102A9000FAD000BFE1E700002E2E5C646576696322
:102AA00065735C4C504335343630385C64726976FB
:102AB0006572735C66736C5F75736172742E63000C
:102AC0002128284E554C4C203D3D206261736529DC
:102AD000207C7C20284E554C4C203D3D2064617468
:102AE0006129290010B540F21310FEF7A7F9FEF78F
:102AF0007DF9FEF725F9FEF747F910BD70B596B0E0
:102B000004460D461646684600F034FC2A46214627
:102B1000684600F0BBFC3146684600F055FC16B034
:102B200070BD00002DE9F043C0B080468946D8F85A
:102B30000040D8F80450D8F80860D8F80C7040224B
:102B40004946684600F06AFC05EA060027EA0501E6
:102B5000084300990844FE4908440444E00140EA5F
:102B600054642C4404EA050026EA04010843019950
:102B70000844F84908440744380340EA17572744F3
:102B800007EA040025EA0701084302990844F249CC
:102B900008440644700440EAD6363E4406EA07007C
:102BA00024EA0601084303990844EC490844054413
:102BB000A80540EA9525354405EA060027EA0501FF
:102BC000084304990844E64908440444E00140EA03
:102BD00054642C4404EA050026EA040108430599DC
:102BE0000844E04908440744380340EA175727449B
:102BF00007EA040025EA0701084306990844DA4970
:102C000008440644700440EAD6363E4406EA07000B
:102C100024EA0601084307990844D44908440544B6
:102C2000A80540EA9525354405EA060027EA05018E
:102C3000084308990844CE4908440444E00140EAA6
:102C400054642C4404EA050026EA04010843099967
:102C50000844C84908440744380340EA1757274442
:102C600007EA040025EA070108430A990844A0F589
:102C700024404F380644700440EAD6363E4406EA03
:102C8000070024EA060108430B990844BA4908449E
:102C90000544A80540EA9525354405EA060027EADB
:102CA000050108430C990844B44908440444E00170
:102CB00040EA54642C4404EA050026EA040108436F
:102CC0000D990844AE4908440744380340EA1757B1
:102CD000274407EA040025EA070108430E9908443F
:102CE000A84908440644700440EAD6363E4406EA41
:102CF000070024EA060108430F990844A249084442
:102D00000544A80540EA9525354405EA070026EA6A
:102D100007010843019908449C49084404446001A0
:102D200040EAD4642C4404EA060025EA060108437C
:102D300006990844964908440744780240EAD75760
:102D4000274407EA050024EA050108430B990844D3
:102D5000904908440644B00340EA96463E4406EAD9
:102D6000040027EA04010843009908448A490844FA
:102D70000544280540EA1535354405EA070026EAEA
:102D80000701084305990844844908440444600144
:102D900040EAD4642C4404EA060025EA060108430C
:102DA0000A9908447E4908440744780240EAD75704
:102DB000274407EA050024EA050108430F9908445F
:102DC000784908440644B00340EA96463E4406EA81
:102DD000040027EA0401084304990844724908449E
:102DE0000544280540EA1535354405EA070026EA7A
:102DF00007010843099908446C49084404446001E8
:102E000040EAD4642C4404EA060025EA060108439B
:102E10000E990844664908440744780240EAD757A7
:102E2000274407EA050024EA0501084303990844FA
:102E3000604908440644B00340EA96463E4406EA28
:102E4000040027EA04010843089908445A49084441
:102E50000544280540EA1535354405EA070026EA09
:102E6000070108430D99084454490844044460018B
:102E700040EAD4642C4404EA060025EA060108432B
:102E8000029908444E4908440744780240EAD7575B
:102E9000274407EA050024EA050108430799084486
:102EA000484908440644B00340EA96463E4406EAD0
:102EB000040027EA040108430C99084442490844E5
:102EC0000544280540EA1535354485EA0600784072
:102ED000059908443D4908440444200140EA14741B
:102EE0002C4484EA05007040089908443849084495
:102EF0000744F80240EA5757274487EA040068402D
:102F00000B990844334908440644300440EA164605
:102F10003E4486EA070060400E9908442E49084462
:102F20000544E80540EA5525354485EA0600784021
:102F300001990844294908440444200140EA1474D2
:102F40002C4484EA0500704004990844244949E06F
:102F500078A46AD756B7C7E8DB702024EECEBDC18F
:102F6000AF0F7CF52AC68747134630A8019546FD6A
:102F7000D8988069AFF7448BBED75C892211906BDB
:102F8000937198FD8E4379A62108B44962251EF6F7
:102F900040B340C0515A5E26AAC7B6E95D102FD68D
:102FA0005314440281E6A1D8C8FBD3E7E6CDE12162
:102FB000D60737C3870DD5F4ED145A4505E9E3A9C3
:102FC000F8A3EFFCD9026F678A4C2A8D4239FAFFC9
:102FD00081F6718722619D6D0C38E5FD44EABEA43F
:102FE000A9CFDE4B08440744F80240EA575727446C
:102FF00087EA0400684007990844A5490844064444
:10300000300440EA16463E4486EA070060400A99CA
:103010000844A04908440544E80540EA55253544DC
:1030200085EA060078400D9908449B490844044409
:10303000200140EA14742C4484EA05007040009991
:103040000844964908440744F80240EA5757274481
:1030500087EA0400684003990844914908440644FB
:10306000300440EA16463E4486EA0700604006996E
:1030700008448C4908440544E80540EA5525354490
:1030800085EA0600784009990844874908440444C1
:10309000200140EA14742C4484EA050070400C9925
:1030A0000844824908440744F80240EA5757274435
:1030B00087EA040068400F9908447D4908440644A3
:1030C000300440EA16463E4486EA07006040029912
:1030D0000844784908440544E80540EA5525354444
:1030E00065EA0700704000990844734908440444A5
:1030F000A00140EA94642C4464EA06006840079901
:1031000008446E4908440744B80240EA97572744E8
:1031100067EA050060400E9908446949084406447E
:10312000F00340EA56463E4466EA040078400599BA
:103130000844644908440544680540EAD5253544F7
:1031400065EA070070400C9908445F49084404444C
:10315000A00140EA94642C4464EA060068400399A4
:1031600008445A4908440744B80240EA975727449C
:1031700067EA050060400A99084455490844064436
:10318000F00340EA56463E4466EA0400784001995E
:103190000844504908440544680540EAD5253544AB
:1031A00065EA07007040089908444B490844044404
:1031B000A00140EA94642C4464EA060068400F9938
:1031C0000844464908440744B80240EA9757274450
:1031D00067EA0500604006990844414908440644EE
:1031E000F00340EA56463E4466EA040078400D99F2
:1031F00008443C4908440544680540EAD52535445F
:1032000065EA0700704004990844374908440444BB
:10321000A00140EA94642C4464EA060068400B99DB
:103220000844324908440744B80240EA9757274403
:1032300067EA05006040029908442D4908440644A5
:10324000F00340EA56463E4466EA04007840099995
:103250000844284908440544680540EAD525354412
:10326000D8F800002044C8F80000D8F8040028442A
:10327000C8F80400D8F808003044C8F80800D8F8A6
:103280000C003844C8F80C0040B0BDE8F0830000E2
:10329000604BBBF670BCBFBEC67E9B28FA27A1EA76
:1032A0008530EFD4051D880439D0D4D9E599DBE603
:1032B000F87CA21F6556ACC4442229F497FF2A4328
:1032C000A72394AB39A093FCC3595B6592CC0C8FB8
:1032D0007DF4EFFFD15D84854F7EA86FE0E62CFE84
:1032E000144301A3A111084E827E53F735F23ABD73
:1032F000BBD2D72A91D386EBF0B504460D46002702
:10330000002606E014F8011B384600F01BF80746BB
:10331000761CAE42F6D33846F0BD0000BFF34F8FA7
:103320000648006800F4E06005490843001D0349B1
:103330000860BFF34F8F00BFFEE700000CED00E018
:103340000000FA0530B504460D462A4621460248DB
:1033500000F004F830BD00000450000010B5034632
:10336000D4B281EA0400C0B233F8100080EA212010
:1033700010BD000000210160416005498160054ADF
:10338000C260CA430261034AD243426170470000EF
:103390000123456789ABCDEF10B54FF4004040687D
:1033A0000749086008460068064908604FF4004174
:1033B000086880F3088800BF02480068804710BD95
:1033C0001C000020180000202DE9FC4104460E4698
:1033D000002500272088C0F3C505382D02D2C5F18D
:1033E000380001E0C5F1780007460822214668460A
:1033F00000F02DF83A460849204600F047F8082228
:103400006946204600F042F8102204F108013046D7
:1034100000F01DF8BDE8FC813000002070B50346C7
:103420000024002010E00E5C451C4D5D46EA052698
:10343000851C4D5D46EA0546C51C4D5D46EA0565A1
:1034400043F82450641C001D9042ECD370BD70B54D
:10345000034614460022002015E011F822501D54A6
:1034600031F82250C5F30726451C5E5551F822500D
:10347000C5F30746851C5E5551F822502D0EC61C1B
:103480009D55521C001DA042E7D370BD2DE9F047A9
:1034900004460F4615460026B046B1462088C0F3C4
:1034A000C508C8F14009206800EBC500206020680D
:1034B000B0EBC50F02D26068401C6060606800EB32
:1034C000557060604D451CD304F1180101EB0800F4
:1034D0004A463946FDF7C5F804F1180104F1080021
:1034E000FFF720FB4E4605E0B91904F10800FFF78D
:1034F00019FB403606F14000A842F5D94FF000080C
:1035000000E00026AA1BB91904F1180303EB080018
:10351000FDF7A7F8BDE8F0870FB4054B10B503A978
:10352000044A029800F0CEFF10BC5DF814FB0000C6
:10353000D54D0000280000200FB4084B10B504A999
:1035400002AA039800F0BEFF044602A9002001F081
:10355000EAF9204610BC5DF814FB00002749000082
:1035600003B401984100009850EAC12018BF04201C
:103570004A0D18BF40F0010040F2FF72B2EB515FFC
:1035800008BF40F00200012808BF052002B07047C4
:1035900004460D46164633462A46214602A0FEF74B
:1035A00095FA00BF00BEFDE74153534552542045F4
:1035B00052524F52202220257320223A2066696CF5
:1035C000652022257322204C696E65202225642205
:1035D000200A000031B52DED020BDDE900C2BCF17F
:1035E000000F14BF0121002141EA420111F5001F23
:1035F00007D99DED000B80ED000B9DED000B03B096
:1036000030BDC2F30A510024A1F2FF3102F00043A1
:1036100014291EDA0029B8BFC0E9004329DB204D78
:1036200025FA01F102EA010555EA0C0C1BD022EA49
:103630000101C0E9004190ED000B53EC102B9DED12
:10364000000B51EC100BFDF7E3F803B041EC100B4D
:1036500030BD332907DC4FF0FF35143925FA01F16D
:103660001CEA010F09D19DED000B80ED000BCDE9A7
:1036700000439DED000B03B030BD2CEA0101C0E911
:10368000001290ED000B53EC102B9DED000B51EC54
:10369000100BFDF7BDF803B041EC100B30BD00007E
:1036A000FFFF0F00000000002DE9F04D2DED040B91
:1036B0002DED0E8B96B0DDE92550279CDDF890A00E
:1036C00025F0004624F00048BAF1000F14BF012194
:1036D000002101EB4502FC4953184A1093422AD3BA
:1036E000002814BF0123002303EB44030B44F749D4
:1036F0008B4220D358EA00019FEDF59B76D0DFF88E
:10370000D8B35D4503D1BAF1000F05D188E0BAF115
:10371000000F08BF002100D0012101EB450111F588
:10372000001F08D8002814BF0121002101EB44012B
:1037300011F5001F0BD99DED261B9DED240B16B036
:10374000BDEC0E8B04B0BDE8F04D00F069BE002763
:10375000002DBCBFE149884521DAE1498845A8BF71
:1037600002271CDAC3451ADCDE4901EB2851142973
:1037700008DDC1F1340220FA02F101FA02F28242BC
:103780000DD108E058B9C1F1140228FA02F101FA8A
:1037900002F2424503D101F00101C1F1020756EAEC
:1037A0000A0124D1002C22DA002D18BF022F01D0EB
:1037B000012F0AD0022000F07FFE16B0BDEC0E8B68
:1037C00004B0BDE8F04D00F013BE022000F074FE1E
:1037D00000F00EFE51EC100B81F0004141EC100B9B
:1037E00016B0BDEC0E8B04B0BDE8F08D18E09FED77
:1037F000BEAB9FEDBF8B002871D1B848804522D168
:1038000005F1804010F5801008BFBAF1000F07D015
:10381000B3450ADC002CA8BF9DED260BE0DA0DE0D5
:10382000B0EE490AF0EE690ADAE7002C06DA9DEDFF
:10383000260B51EC100B81F000416FE0AE4878444C
:1038400090ED000BCCE7D8454DD1002C48DA2EB1D5
:1038500086423AD1BAF1000F42D126E0BAF1000F08
:1038600013D0022000F028FE00F0F6FD8DED020BD3
:103870009DED240B8DED000B10EE900A039961F382
:103880001E0003909DED020BAAE78DED02AB9DEDAE
:10389000240B1AEE901A10EE900A8DED000B61F3D6
:1038A0001E0003909DED020B9AE78DED028B9DEDBE
:1038B000240B18EE901A10EE900A8DED000B61F3B8
:1038C0001E0003909DED020B8AE709DA9DED240BA3
:1038D00051EC190B53EC102BFDF712F81EE020E011
:1038E0009DED240B7CE786421BDAB4F1804F0DD0AE
:1038F000A4F10050B0F1FF5013D1002D11DB9DED6C
:10390000240B51EC100B01F0EDFA07E09DED240BB8
:1039100053EC102B51EC100B00F0C2BC41EC100B1F
:103920005EE79DED240B51EC100B01F047FABAF164
:10393000000FCDE90E0142D19FED710B46B3A6F108
:10394000E040B0F17F600CD05E4538D1002D00DA48
:10395000A7B3022F0CBF01204FF0FF30FDF73FF857
:10396000DCE7002D01DD002C0DDA002D01DD002C3F
:103970001FDB002D16DA002C14DB012F08BF9FED92
:10398000620B3FF42DAFB0EE4A0AF0EE6A0A27E769
:10399000022F18BF002D0CD0012F0AD1002DFFF6E9
:1039A0001FAF06E0002DB8BF002C08DA012F3FF44E
:1039B00017AFB0EE480AF0EE680A11E71BE00120ED
:1039C00000EBE57050EA070115D0791EB0EE498A88
:1039D000F0EE698A084308BF9FED4D8B4E480025E5
:1039E000804570DD4D494E48884514DDB0420DDB01
:1039F000002C19DB2FE0012000F05EFD16B0BDECBD
:103A00000E8B04B0BDE8F04D00F016BDB34502DCEE
:103A1000002C09DC1FE0864202DA002C1BDA03E0EE
:103A20005E452BDD002C16DD022000F045FD00F088
:103A300013FD8DED020B53EC1A2B51EC180BFCF718
:103A4000EDFECDE900010399019861F31E0003909A
:103A50009DED020BC4E6022000F02EFD00F00CFDEF
:103A600010EE901A18EE900A8DED020B8DED008B82
:103A700061F31E0003909DED020BB1E69DED0E0B70
:103A800053EC192B51EC100BFCF7C2FE9FED260BEB
:103A9000CDE9080153EC102B9DED080B51EC100BF8
:103AA000FCF7BCFE9FED221B53EC112BFCF7B3FE81
:103AB0009DED081B53EC112BFCF7B0FE9FED1E1B78
:103AC00053EC112B3CE08CE0FFFF1F00FFFF0F00C9
:103AD000000000000000F03F0000F03F0000F07F19
:103AE0000000404301FCFFFF000000000000F07FE9
:103AF00000000000000000004E1A0000000000005E
:103B00000000000000000080000000000000F0FF46
:103B1000000000000000F0BF0000E0410000F043A2
:103B2000FFFFEF3F00000000000000000000D03F5A
:103B3000555555555555D53F000000000000E03F54
:103B4000FCF769FE9DED080B41EC1A0B53EC102BB2
:103B500051EC100BFCF762FE53EC1A2BFCF75EFEE7
:103B600041EC1A0B9FEDFE0B53EC102B9DED080B57
:103B700051EC100BFCF752FE41EC1B0B9FEDFA0BC6
:103B800051EC1A0B53EC102BFCF748FE41EC1A0BCE
:103B90009FEDF70B53EC102B9DED080B51EC100B28
:103BA000FCF73CFE53EC1A2BFCF732FE41EC1A0BEF
:103BB00051EC1B0B53EC1A2BFCF789FD0690CDE959
:103BC00006519DED060B53EC1B2B51EC100BFCF733
:103BD0001FFE53EC1A2BFCF71EFE41EC100B00F0FD
:103BE000A1B90020B6F5801F0EDA9FEDE30B53EC70
:103BF000102B9DED0E0B51EC100BFCF70FFECDE9D9
:103C00000E016FF034000E4600EB2650A0F2FF3795
:103C1000C6F31300DA4940F07F6646F0405688420A
:103C2000D8BF002408DDD7498142C8BF012403DC86
:103C30000024A6F580167F1CD348784400EBC4000E
:103C40000F9690ED00CB9DED0E0B53EC1C2B51EC21
:103C5000100BFCF7DDFD9DED0E0B41EC1B0B53EC47
:103C60001C2B51EC100BFCF732FD41EC100B51EC0E
:103C7000190B53EC102BFCF743FE41EC1D0B51ECE0
:103C80001B0B53EC1D2BFCF7C9FD41EC1A0BBF4875
:103C90008DED10AB7844109590ED000B4FF0005077
:103CA00040EA660000EB84408DED080B00F5002033
:103CB00009909DED080B53EC1C2B51EC100BFCF7FD
:103CC000A7FD9DED0E1B53EC112BFCF7A4FD41EC61
:103CD000100B53EC102B9DED100B51EC100BFCF75F
:103CE0009DFD9DED080B41EC1C0B53EC102B9DED45
:103CF000100B51EC100BFCF791FD53EC1B2BFCF758
:103D00008AFD53EC1C2BFCF783FD53EC1D2BFCF7B9
:103D100085FD41EC1C0B53EC1A2B51EC1A0BFCF7F4
:103D20007DFD41EC1B0B9A480621B0EE4B0AF0EEEC
:103D30006B0A784400F0E0FAB0EE401AF0EE601A38
:103D4000B0EE41DAF0EE61DA53EC1B2B51EC1B0BB9
:103D5000FCF764FD53EC1D2BFCF760FD9DED100B93
:103D600041EC1B0B53EC1A2B51EC100BFCF7AFFC86
:103D700053EC1C2BFCF752FD53EC1B2BFCF7A7FC60
:103D80009DED100B41EC1B0B53EC102B51EC100B69
:103D9000FCF744FD41EC1D0B9FED7FEB53EC1E2B1C
:103DA000FCF795FC53EC1B2BFCF791FC0890CDE93C
:103DB00008519DED080B53EC1E2B51EC100BFCF73A
:103DC00027FD53EC1D2BFCF723FD53EC1B2BFCF7BD
:103DD00022FD9DED080B41EC1D0B53EC102B9DEDCE
:103DE000100B51EC100BFCF719FD41EC1B0B53ECC5
:103DF0001A2B51EC1D0BFCF711FD9DED080B41EC4E
:103E00001A0B53EC102B51EC1C0BFCF707FD53EC79
:103E10001A2BFCF75CFC41EC1A0B51EC1B0B53EC1E
:103E20001A2BFCF754FC0C90CDE90C519DED0C0BBA
:103E300053EC1B2B51EC100BFCF7EAFC53EC1A2B48
:103E4000FCF7E9FC41EC1B0B9FED550B53EC102BE1
:103E50009DED0C0B51EC100BFCF7E0FC41EC1A0B48
:103E60009FED510B51EC1B0B53EC102BFCF7D6FCC8
:103E700041EC1B0B9FED4E0B53EC102B9DED0C0BEF
:103E800051EC100BFCF7CAFC53EC1B2BFCF71FFC8E
:103E900041EC100B4848784400EBC40090ED001B47
:103EA00051EC100B53EC112BFCF711FC41EC1B0BEC
:103EB0003846FCF794FDCDE9080153EC1B2B51EC7F
:103EC0001A0BFCF704FC41EC100B3C48784400EB67
:103ED000C40090ED00CB51EC100B53EC1C2BFCF705
:103EE000F6FB9DED081B53EC112BFCF7F0FB069045
:103EF000CDE906519DED080B53EC102B9DED060B03
:103F000051EC100BFCF784FC53EC1C2BFCF780FCF1
:103F100053EC1A2BFCF77CFC53EC1B2BFCF77BFCC3
:103F200041EC100B9DED261B53EC102B8DED001B6F
:103F300000959DED260B51EC100BFCF76FFC9DEDF1
:103F4000000B41EC1A0B53EC102B9DED260B51ECA2
:103F5000100BFCF75DFC9DED061B53EC112B2FE0C5
:103F6000000000604715F73FFE822B654715F73FBD
:103F700044DF5DF80BAE543E0000000000004043FB
:103F80008E9803007AB60B00CA150000F8150000E1
:103F900002150000000000000000000000000840C2
:103FA000000000E009C7EE3FFD033ADC09C7EE3F21
:103FB000F5015B14E02F3EBE8E1300004813000095
:103FC000FCF72CFC53EC1A2BFCF781FB9DED060B48
:103FD00041EC1A0B53EC102B9DED000B51EC100B28
:103FE000FCF71CFCCDE90C019DED0C0B51EC1A0B00
:103FF00053EC102BFCF76BFBCDE902010C46AA49F0
:104000008C422FDB611A084318D19DED0C0B53EC49
:10401000102B9DED020B51EC100BFCF7F9FB41EC62
:104020001B0B9FEDA30B51EC1A0B53EC102BFCF761
:104030004EFB53EC1B2BFCF761FD2DD2022000F050
:104040003BFA00F009FA10EE901A18EE900A8DED86
:10405000020B8DED008B61F31E0003909DED020BB2
:10406000FFF7BEBB944A24F00041914214D3934918
:10407000214408437FF4EFAC9DED0C0B53EC102B67
:104080009DED020B51EC100BFCF7C2FB53EC1A2B0D
:10409000FCF734FD7FF6DFAC24F000408849894A04
:1040A000002601EB205182422BDA481C4FF480118C
:1040B00021FA00F02044844AC0F30A517A44A1F264
:1040C000FF3192ED000B814A8DED080BCA4020EACA
:1040D0000202C0F3130040F48010C1F1140120FA71
:1040E00001F60992002CB8BF76429DED080B53EC07
:1040F000102B9DED0C0B51EC100BFCF789FBCDE95F
:104100000C019DED0C0B51EC1A0B53EC102BFCF732
:10411000DEFA9FED6F0B0890CDE9085153EC102BA0
:104120009DED080B51EC100BFCF778FB41EC1B0BE1
:104130009FED690B53EC102B9DED080B51EC100B10
:10414000FCF76CFB9DED0C0B41EC1C0B53EC102BA6
:104150009DED080B51EC100BFCF75AFB53EC1A2B9E
:10416000FCF759FB9FED5E1B53EC112BFCF756FB44
:1041700053EC1C2BFCF7ABFA41EC1A0B51EC1B0B6C
:1041800053EC1A2BFCF7A3FACDE902019DED020BCB
:1041900053EC1B2B51EC100BFCF73AFB53EC1A2B96
:1041A000FCF739FB9DED020B41EC1A0B53EC102B85
:1041B00051EC100BFCF732FBCDE908014A489DEDAC
:1041C000080B0521784400F097F89DED081B51EC91
:1041D000100B53EC112BFCF721FB9DED021B53EC54
:1041E000112BFCF718FBCDE906019DED020B53ECFA
:1041F0001A2B51EC100BFCF711FB53EC1A2BFCF7AC
:1042000066FA9FED3B0B41EC1A0B53EC102B9DED26
:10421000060B51EC100BFCF7FBFA9DED060B41EC85
:104220001B0B53EC102B9DED020B51EC100BFCF70C
:10423000F5FA53EC1B2BFCF763FB53EC1A2BFCF742
:10424000E7FA9DED021B53EC112BFCF7E1FA53EC5E
:10425000192BFCF7E0FACDE9020101EB065001153C
:104260000029C8BF039015DC9DED020B324651ECCE
:10427000100BFCF7E9FCFFF773F9042808BF00F006
:10428000FBF832469DED020B51EC100BFCF7DCFC09
:10429000CDE902019DED020B51EC180B53EC102BF4
:1042A000FCF7BCFAFFF73ABB0000904000000000AA
:1042B000FE822B654715973C00CC904000346F3F41
:1042C00001FCFFFF0000E03FD0110000FFFF0F00E6
:1042D00000000000432EE63F396CA80C615C20BE54
:1042E000EF39FAFE422EE63FA01000000000000069
:1042F000000000000000004070B504462DED028B68
:104300004D1E00EBC500B0EE408AF0EE608A90EDE5
:10431000000B35F0060017D053EC182B51EC100BA6
:10432000FCF77CFA41EC100B6D1E04EBC50090ED20
:10433000001B51EC100B53EC112BFCF7C8F941ECAE
:10434000100B35F00600E7D1022D36D0042D1CD01D
:10435000062D1CBFBDEC028B70BD53EC182B51EC2D
:10436000100BFCF75BFA94ED0A1B53EC112BFCF7D6
:10437000AEF953EC182BFCF751FA94ED081B53ECF3
:10438000112BFCF7A4F941EC100B53EC182B51EC5A
:10439000100BFCF743FA94ED061B53EC112BFCF7C2
:1043A00096F953EC182BFCF739FA94ED040B53EC07
:1043B000102BFCF78CF941EC100B53EC182B51EC43
:1043C000100BFCF72BFA94ED021B53EC112BFCF7AE
:1043D0007EF953EC182BFCF721FA94ED001B53ECFB
:1043E000112BFCF774F9BDEC028B41EC100B70BD86
:1043F0009FED070B10B553EC102B9FED070B51EC05
:10440000100BFCF77DFA41EC100B10BD0000000012
:104410000000000000000000000000000000F03F6D
:1044200010B553EC112B51EC100BFCF750F941EC8B
:10443000100B10BD000000009FED050B10B553ECF4
:10444000102B51EC100BFCF75BFA41EC100B10BD7C
:1044500000000000000000009FED050B10B553ECBC
:10446000102B51EC100BFCF7D9F941EC100B10BDDF
:1044700000000000000000709FED050B10B553EC2C
:10448000102B51EC100BFCF7C9F941EC100B10BDCF
:10449000000000000000001002E008C8121F08C160
:1044A000002AFAD170477047002001E001C1121FB5
:1044B000002AFBD1704700000149086070470000E6
:1044C000700000202DE9FF4F8DB00F4605460026F5
:1044D00006E025280BD0DDE90F1290476D1C761CF5
:1044E00028780028F5D111B03046BDE8F08F0024BF
:1044F000A246A1460122EC4900E0044315F8013F21
:10450000203B02FA03F00842F7D128782A2810D07D
:104510006FF02F022878A0F13001092914D80AEB96
:104520008A0102EB410144F0020400EB010A6D1C18
:10453000F0E701CF5FEA000A03D544F40054CAF162
:10454000000A44F002046D1C28782E2817D115F8B3
:10455000010F44F004042A280ED06FF02F022878AF
:10456000A0F1300109290AD809EB890102EB4101C8
:1045700000EB01096D1CF2E757F8049B6D1C2878CD
:104580006C280FD006DC4C2817D068280DD06A287C
:1045900014D104E0742810D07A280FD10DE044F42F
:1045A00000140AE044F4801401E044F440146978F3
:1045B000814202D104F580146D1C6D1C2A786E2A8C
:1045C0001FD00CDC632A31D004DC002A8BD0582A9F
:1045D00011D1A3E0642A68D0692A0CD165E0732A5E
:1045E0002ED004DC6F2A73D0702A04D19BE0752A88
:1045F0006FD0782A6ED01046DDE90F129047761CF6
:1046000050E1C4F30250022806D0032809D0042840
:1046100001CF09D0066045E101CFF117C0E9006183
:1046200040E101CF06803DE106703BE117F8040B45
:104630008DF8000000208DF80100EB46012003E01A
:1046400057F804BB4FF0FF3061074FF0000102D470
:104650000DE008F10101884649450FDA8045F8DB95
:104660001BF808100029F4D108E008F10101884680
:104670008142FADB1BF808100029F6D1DDE90F238F
:10468000AAEB08008146214600F036F9304400EBE1
:10469000080604E0DDE90F121BF8010B9047B8F1A2
:1046A0000108F7D221464846F7E00A21C4F3025335
:1046B0004FF0000B0891022B04D001CFC117032B40
:1046C00009D00AE0FF1D27F00707F7E8020108E01C
:1046D00032E01FE020E000B2C117042B01D140B24C
:1046E000C117031E71F1000307DA4FF0000CD0EB85
:1046F0000C006CEB01012D2302E0230504D52B23D4
:104700008DF82430012303E0E30701D02023F7E7ED
:10471000984658E00A2110E010210EE010204FF0DA
:10472000000B08900CE010214FF0000B44F0040443
:104730004FF00809089103E008214FF0000B0891A1
:10474000C4F30253022B04D001CF0021032B06D067
:1047500006E0FF1D27F00707F7E8020103E080B23B
:10476000042B00D1C0B24FF0000823072BD5702ACC
:1047700007D0DDF820C08CF0100C5CEA0B0C05D0E3
:104780000EE040238DF82430012308E050EA0103B5
:1047900006D030238DF824308DF82520022398464A
:1047A000DDF820C08CF0080C5CEA0B0C0BD150EA51
:1047B000010301D1630706D530238DF824304FF073
:1047C0000108A9F10109582A04D038A20B9208AABD
:1047D0000A920BE03AA2F9E75B46089AFBF710FF52
:1047E0000B9B9B5C0A9A521E0A92137050EA0102BC
:1047F000F2D10A98ADEB000000F1200B600702D562
:1048000024F4803401E04FF00109D94502DDA9EB21
:104810000B0000E0002000EB0B0141440890AAEBE4
:10482000010AE00306D4DDE90F232146504600F0DB
:1048300063F806444FF0000908E009A911F80900DF
:10484000DDE90F12904709F10109761CC145F4DB3F
:10485000E0030CD5DDE90F232146504600F04CF86B
:10486000064404E0DDE90F1230209047761C0899D9
:10487000481E08900029F5DC08E00A980A9900789B
:10488000491C0A91DDE90F129047761CBBF100012B
:10489000ABF1010BF1DC21465046DDE90F2300F0BE
:1048A00019F806446D1C1BE609280100303132332B
:1048B000343536373839616263646566000000005C
:1048C0003031323334353637383941424344454646
:1048D000000000002DE9F041044600251E46174661
:1048E000880404D405E039462020B0476D1C641EBE
:1048F000F9D52846BDE8F0812DE9F04104460025B0
:104900001E469046C80301D5302700E020278804C2
:1049100004D505E041463846B0476D1C641EF9D504
:104920002846BDE8F0810A68531C0B601070704780
:104930002DE9F04FC1B04FF490254FF40040409066
:104940004FF420303F900024FEF7CCF8B248FEF739
:10495000E3FD012205F10A01B0A0FBF7A9FE18B1A1
:10496000AFA0FEF7D9FD51E16878297840EA012926
:10497000E878A97840EA012A28790004697940EAB0
:104980000120A97940EA0106E8790004297A40EA81
:104990000120697A40EA010B1FAA31463F98FEF7D1
:1049A000ADF80FAA59464098FEF7A8F89DF88B007D
:1049B0009DF88A109DF889209DF88830CDE90A324B
:1049C000CDE90C109DF887109DF886009DF8852094
:1049D0009DF88430CDE90632CDE908019DF88300C9
:1049E0009DF882209DF881109DF88030CDE902313C
:1049F000CDE904209DF87F009DF87E10CDE90010E0
:104A00009DF87D309DF87C2089492FA8FEF794FD04
:104A100059464098FEF770FC074631463F98FEF72E
:104A20006BFC80462FA84B4652464146CDE9016BB0
:104A3000009703907F48FEF76FFD05F10B012FA84B
:104A4000FBF728FE00285AD1D14554D07AA0FEF7B2
:104A500063FD00240FE04FF4004101EBC43000F08F
:104A600053F93F9A02EBC4314FF4004202EBC430D9
:104A700000F0D0F9641C042CEDDB72A0FEF74CFDB5
:104A800031464098FEF738FC0746394671A0FEF7DC
:104A900043FD474504D074A0FEF73EFDFEF73EFC03
:104AA000A878784988700870E878C8704870C6F3AC
:104AB0000740C8710871C6F3072008724871F0B248
:104AC00048728871312088720B2403E0285D6D499B
:104AD0000855641C402CF9DB4FF4902000F014F9C9
:104AE0004FF4807267494FF4902000F093F966A06C
:104AF000FEF712FD8AE068A0FEF70EFD86E04F4546
:104B00007CD16BA0FEF708FD002411E04FF42031AA
:104B100001EBC43000F0F8F8409A02EBC4314FF4D6
:104B2000203202EBC4304FF4004200F073F9641CF1
:104B3000042CEBDB59463F98FEF7DEFB80464745E9
:104B400004D05FA0FEF7E8FCFEF7E8FB9DF84B0001
:104B50009DF84A109DF849209DF84830CDE90A3269
:104B6000CDE90C109DF847009DF846109DF84520B2
:104B70009DF84430CDE90632CDE908109DF8430098
:104B80009DF842209DF841109DF84030CDE902315A
:104B9000CDE904209DF83F009DF83E10CDE90010BE
:104BA0009DF83D309DF83C2021492FA8FEF7C4FC1C
:104BB00028783449887008706878C8704870C6F3DF
:104BC0000740C8710871C6F3072008724871F0B237
:104BD00048728871312088722FAA41A129480B3070
:104BE000FEF7AAFC4FF4902000F08EF84FF480728C
:104BF00024494FF4902000F00DF900E003E039A0C3
:104C0000FEF78AFC02E03CA0FEF786FCFEF7C4FB40
:104C100041B0BDE8F08F0000985200003100000064
:104C2000666972737420626F6F742E2E2E0D0A00E7
:104C300060530000DC5200007570646174652E2EB4
:104C40002E0D0A00636F646520646F6E65210D0A86
:104C500000000000636F64656372633136203D209D
:104C600025780A0D00000000636865636B73756D3D
:104C7000206572726F722C726573746172742E2E5D
:104C80002E0D0A00C4000020636F6D706C657465A2
:104C900064210D0A00000000466C61736820436FB8
:104CA000646520436865636B204F4B210D0A00004B
:104CB000757064617465206F74612E2E2E0D0A006C
:104CC0006F746120636865636B73756D20657272C4
:104CD0006F722C726573746172742E2E2E0D0A0021
:104CE000257300006F746120636F6D706C6574656F
:104CF00064210D0A000000006F74686572776973A3
:104D0000652E2E2E0D0A00002DE9F04104464FF4C9
:104D10000046B4FBF6F529460DA0FCF7D7FE294660
:104D20002846FDF7AFF81648294602682846FDF7E1
:104D300092F829462846FDF751F807461FB111A001
:104D4000FCF7C4FE02E015A0FCF7C0FEBDE8F08150
:104D50000D0A45726173696E6720666C6173682025
:104D6000736563746F72200A0D20536563746F72EC
:104D70005F53746172745F4E756D203D2025640031
:104D8000000000200D0A536563746F722045726144
:104D90007365206661696C65640000000D0A4572E8
:104DA00061736520666C61736820736563746F72EC
:104DB00020737563636573730A00000082B0CDE9E8
:104DC000000121F0004001909DED000B02B051EC7C
:104DD000100B704713B50C460648007810B94FF019
:104DE000FF301CBD0349486801228B68694698471B
:104DF0000120F6E74401002070B504460D4629461F
:104E00002046014A904770BD05020003FFF790FD60
:104E100000BFFEE72DE9F0470746884691464FF46C
:104E2000004AB7FBFAF5294614A0FCF74FFE002410
:104E300004E018F804001C490855641C4C45F8D3DC
:104E400029462846FDF71EF8E80318494A460B682C
:104E50001549FCF7E7FFE8034A461349FCF7CFFF83
:104E600006461EB112A0FCF731FE05E016A0FCF7C5
:104E70002DFE0020BDE8F08700BFFBE70D0A57724A
:104E80006974696E6720666C61736820736563740A
:104E90006F72200A20536563746F725F4E756D20C8
:104EA0003D20256400000000540100200000002087
:104EB0000D0A536563746F722056657269667920B6
:104EC0006661696C65640A000D0A536563746F72EC
:104ED0002056657269667920537563636573730A3A
:104EE0000000000000B52DED048B83B041EC190BE0
:104EF000FBF7D4FE41EC180B18EE100A18EE901ACE
:104F00008DED008B002818BF0120084320F00040E1
:104F1000C0F17F6000F1E040C00F14D019EE101A0C
:104F200019EE900A8DED009B002918BF012108435E
:104F300020F00040C0F17F6000F1E040C00F04BFEE
:104F40000120FFF7B9FA51EC180B03B0BDEC048B4C
:104F500000BD014609B90846704701F6C410FBE7D9
:104F600000000000001BB7000000000000080C0F4C
:104F70001214181A1C1E2022242628292A2C2D2E11
:104F800030313234353638393A3B3C3D3F0103004D
:104F900000000000001BB7003F01030000000000FC
:104FA000001BB7003F01030000000000001BB7001A
:104FB0003F01030000000000001BB7000E0F10119E
:104FC00012131415282900000060084000700840E2
:104FD000008008400090084000A0084000600940A0
:104FE00000700940008009400090094000A009407D
:104FF0000B010C010D010E010F0110011101120135
:105000000E020F020000C1C081C1400101C3C003F4
:10501000800241C201C6C006800741C70005C1C564
:1050200081C4400401CCC00C800D41CD000FC1CF24
:1050300081CE400E000AC1CA81CB400B01C9C00914
:10504000800841C801D8C018801941D9001BC1DBB4
:1050500081DA401A001EC1DE81DF401F01DDC01D64
:10506000801C41DC0014C1D481D5401501D7C01784
:10507000801641D601D2C012801341D30011C1D194
:1050800081D0401001F0C030803141F10033C1F3D4
:1050900081F240320036C1F681F7403701F5C03564
:1050A000803441F4003CC1FC81FD403D01FFC03F24
:1050B000803E41FE01FAC03A803B41FB0039C1F914
:1050C00081F840380028C1E881E9402901EBC02B74
:1050D000802A41EA01EEC02E802F41EF002DC1ED64
:1050E00081EC402C01E4C024802541E50027C1E784
:1050F00081E640260022C1E281E3402301E1C02194
:10510000802041E001A0C060806141A10063C1A393
:1051100081A240620066C1A681A7406701A5C06563
:10512000806441A4006CC1AC81AD406D01AFC06F23
:10513000806E41AE01AAC06A806B41AB0069C1A913
:1051400081A840680078C1B881B9407901BBC07BB3
:10515000807A41BA01BEC07E807F41BF007DC1BD63
:1051600081BC407C01B4C074807541B50077C1B783
:1051700081B640760072C1B281B3407301B1C07193
:10518000807041B00050C190819140510193C05353
:10519000805241920196C056805741970055C19563
:1051A00081944054019CC05C805D419D005FC19F23
:1051B000819E405E005AC19A819B405B0199C05913
:1051C000805841980188C04880494189004BC18B73
:1051D000818A404A004EC18E818F404F018DC04D63
:1051E000804C418C0044C184818540450187C04783
:1051F000804641860182C042804341830041C18193
:105200008180404000000000000000000000F03FEE
:10521000000000000000F83F000000000000000057
:105220000000004003B8E23F000000000000000062
:1052300006D0CF43EBFD4C3E033333333333E33FF0
:10524000FFAB6FDBB66DDB3F4D268F515555D53F1C
:1052500001411DA96074D13F65DBC9934A86CD3FEA
:10526000EF4E454A287ECA3F3E5555555555C53FD8
:1052700093BDBE166CC166BF2CDE25AF6A56113FCA
:10528000F16BD2C541BDBBBED0A4BE726937663ECC
:1052900000000000000000000D0A2A2A2A2A2A2AFB
:1052A0002A426F6F746C6F616465722076312E30A4
:1052B000324032303138303130322062792045721C
:1052C00069632E59616E6720262620446572656BDE
:1052D0002E5A68752A2A2A2A2A0D0A006F746163D9
:1052E0006F64656372633136203D2025782C206F12
:1052F0007461636F6465636865636B73756D203D8E
:105300002025782C20636F6465636865636B737513
:105310006D3D2025782C20636F64656372633136A0
:10532000203D202578206F7461546F74616C53693F
:105330007A65203D20256420617070546F74616C23
:1053400053697A65203D202564204F54417665726B
:1053500073696F6E534E203D2025730A0D000000C7
:105360002530327825303278253032782530327841
:105370002530327825303278253032782530327831
:105380002530327825303278253032782530327821
:105390002530327825303278253032782530327811
:1053A00000000000C4530000000000207400000052
:1053B000984400003854000074000020E001000010
:1053C000A8440000001BB70000000000000000001F
:1053D00000000000000000000000000000000000CD
:1053E00000000000000000000000000000000000BD
:1053F000000000008000000000000000000000002D
:10540000000000000000000000000000000000009C
:10541000000000000000000000000000000000008C
:10542000000000000000000000000000000000007C
:08543000000000000000000074
:0400000500000401F2
:00000001FF
