:020000040000FA
:1080000000800220D1840000D9840000DB840000BD
:10801000DD840000DF840000E18400000000000037
:10802000FFFFFFFF000000000000000015840000BB
:10803000E584000000000000698400001DCC000001
:10804000EB840000EF840000F3840000F78400005C
:10805000FB840000FF84000003850000078500000A
:108060000B8500000F8500001385000017850000B8
:10807000C9CB00001F850000238500002785000074
:10808000C9BD00002F850000BDBF000041C0000039
:108090003B85000039C100004D8F0000478500007E
:1080A0004B8500004F850000538500005785000078
:1080B0005B8500005F850000638500006785000028
:1080C0006B8500006F8500007385000077850000D8
:1080D0007B8500007F850000838500008785000088
:1080E0008B8500008F850000938500009785000038
:1080F0009B8500009F850000A3850000A7850000E8
:10810000AB850000AF850000B3850000B785000097
:10811000BB850000BF850000C3850000C785000047
:10812000CB850000000000000000000000000000FF
:10813000000000000000000000000000000000003F
:10814000000000000000000000000000000000002F
:10815000000000000000000000000000000000001F
:10816000000000000000000000000000000000000F
:10840000DFF80CD000F014FD004800478D83010018
:10841000008002202A4B19680868B0E8F04F80F30A
:108420000988BFF36F8F4FF0000080F31188704709
:108430000000000006480068006880F3088862B603
:1084400061B6BFF34F8FBFF36F8F00DF00BF00BF78
:1084500008ED00E0DFF80C00016841F470010160F4
:10846000704700BF88ED00E0EFF30980BFF36F8F26
:10847000134B1A681EF0100F08BF20ED108A20E978
:10848000F04F106008B44FF0400080F31188BFF344
:108490004F8FBFF36F8F18F015FA4FF0000080F385
:1084A000118808BC19680868B0E8F04F1EF0100F7A
:1084B00008BFB0EC108A80F30988BFF36F8F704754
:1084C00000000020EFF305807047000040BA7047BD
:1084D0003F4880473F480047FEE7FEE7FEE7FEE7EC
:1084E000FEE7FEE7FEE7FEE7FEE73B4800473B48C6
:1084F00000473B4800473B4800473B4800473B4854
:1085000000473B4800473B4800473B4800473B4843
:1085100000473B4800473B4800473B4800473B4833
:1085200000473B4800473B4800473B4800473B4823
:1085300000473B4800473B4800473B4800473B4813
:1085400000473B4800473B4800473B4800473B4803
:1085500000473B4800473B4800473B4800473B48F3
:1085600000473B4800473B4800473B4800473B48E3
:1085700000473B4800473B4800473B4800473B48D3
:1085800000473B4800473B4800473B4800473B48C3
:1085900000473B4800473B4800473B4800473B48B3
:1085A00000473B4800473B4800473B4800473B48A3
:1085B00000473B4800473B4800473B4800473B4893
:1085C00000473B4800473B4800473B480047FEE721
:1085D00051CC000001840000CF850000CF85000051
:1085E000CF850000CF850000CF850000CF8500003B
:1085F000CF850000CF850000CF850000CF8500002B
:10860000CF850000CF850000CF850000CF8500001A
:108610006DBC0000E1BC000055BD0000D5BE0000EF
:1086200049BF0000CDBF000051C00000C5C0000020
:10863000CF850000CF850000CF850000CF850000EA
:10864000CF850000CF850000CF850000CF850000DA
:10865000CF850000CF850000CF850000CF850000CA
:10866000CF850000CF850000CF850000CF850000BA
:10867000CF850000CF85000049C10000BDC10000CA
:10868000CF850000CF850000CF850000CF8500009A
:10869000CF850000CF850000CF85000035BB0000EE
:1086A000CF850000CF850000CF850000CF8500007A
:1086B000CF850000CF850000CF8500002DE9F05F59
:1086C0000546002092469B46884606468146402441
:1086D0001BE0284641464746224600F0FAFA534638
:1086E0005A46C01A914110D311461846224600F04E
:1086F000E1FA2D1A67EB01084F46224601200021BE
:1087000000F0D8FA17EB00094E41201EA4F1010435
:10871000DFDC484631462A464346BDE8F09F2DE956
:10872000F0410024061B254671F1000605DA0124FC
:108730000027D0EB070067EB0101161E73F100065E
:1087400005DA0027D2EB0702012567EB0303FFF7E9
:10875000B5FF86460E4617469C46AC4204D000251F
:10876000D0EB050E65EB010624B10020D2EB00072B
:1087700060EB030C704631463A466346BDE8F08133
:10878000A0F14101192900D82030704740EA0103C7
:108790009B0703D009E008C9121F08C0042AFAD2B7
:1087A00003E011F8013B00F8013B521EF9D270477B
:1087B000D2B201E000F8012B491EFBD27047002223
:1087C000F6E710B513460A4604461946FFF7F0FFD0
:1087D000204610BD421C10F8011B0029FBD1801A55
:1087E000704730B504460020034600E05B1C93420E
:1087F00003D2E05CCD5C401BF8D030BD034611F8DD
:10880000012B00F8012B002AF9D11846704730B52A
:1088100005460020034600E05B1C934205D2EC5C59
:10882000C85C201A01D1002CF6D130BD2DE9FE4FD5
:10883000804681EA0300C00F0C46009021F0004101
:1088400023F00045B8EB0200A94105D2404621467D
:1088500090461C460B46024623F00040104347D08A
:10886000270DC7F30A00C3F30A510290401A019082
:1088700040286BDAC3F3130040F4801B0098924643
:1088800020B10023D2EB030A63EB0B0B019859468E
:10889000C0F14002504600F00DFA06460D46504623
:1088A0005946019A00F025FA10EB080061410024B6
:1088B00087EA115284EAE7731A4340D0009A62B300
:1088C000019A012A4FEA075215DC001B61EB0201F5
:1088D0004FF0004202EA0752CDE90042001C41F588
:1088E000801132462B4600F025FA03B0BDE8F08F28
:1088F00040462146F9E7001B61EB0201001C41F5EF
:10890000801300185B412018A2F5001747EB030104
:1089100040EAD570B6196D4111E06D084FEA360690
:1089200045EAC0754FEA0752001B61EB0201001CCB
:1089300041F5801149084FEA300000195141324693
:108940002B4603B0BDE8F04F00F0E5B900980122D6
:1089500040000023D0EB020263EBE0730098214655
:108960004FEAE074B8EB000061EB0401E9E783F043
:1089700000435BE781F0004158E72DE9FE4F81EAB3
:10898000030404F0004421F0004100944FF0000B78
:1089900023F0004350EA01045ED052EA03045BD0A6
:1089A000C3F30A54C1F30A552C44A4F2F3340194DE
:1089B000A0FB0254C1F3130141F48011C3F313036C
:1089C00043F4801301FB024400FB034E840A970A20
:1089D00044EA815447EA8357A4FB076802958D0A4D
:1089E00005FB07854FEA932C04FB0C542705029DD9
:1089F0004FEA065847EA1637B5EB08056EEB070C49
:108A0000870E920E47EA811742EA8312A7FB020102
:108A1000B6EB0B0164EB00042B0D43EA0C335E183C
:108A200044EB1C50DA465146E7FB0201C5F3130440
:108A30004FEA0B3343EA14534FEA0432019C43EAF2
:108A40000603A4F10C040294009CCDE900B400F0EC
:108A500071F903B0BDE8F08F00200146F9E72DE978
:108A6000F04D81EA030404F0004B21F00045144668
:108A70004FF0000A23F0004150EA050220D054EAEA
:108A800001021DD0C5F30A570246C5F31303C1F313
:108A90001300C1F30A5640F4801543F48013A7EB8A
:108AA0000608101BD64608F2FD3873EB050002D30A
:108AB00008F1010801E092185B41B8F1000F03DAF8
:108AC00000200146BDE8F08D00204FF480110646DD
:108AD00084460EE0171B73EB050705D3121B63EBEF
:108AE000050306434CEA010C49084FEA300092188E
:108AF0005B4150EA0107EDD152EA030012D082EA4D
:108B0000040083EA0501084305D0101BAB4106D2DF
:108B10000122002306E000224FF0004302E06FF044
:108B2000010253101AEB06004CEB085110EB0A003F
:108B300041EB0B01BDE8F04D00F0EDB80EB5C10FF3
:108B400080EAE0700844CA07002140F233438DE810
:108B50000E000A460B4600F0EDF803B000BD0EB55E
:108B600040F2334102910021CDE900110A460B4643
:108B700000F0E0F803B000BD3EB5CA17CB0F0024EB
:108B800050405140C0186141DA0740F2334300942D
:108B9000CDE901232246234600F0CCF803B030BDD6
:108BA00070B5C1F30A5201F000450024C1F313016E
:108BB00040F2FF3341F480119A4201DA002070BD87
:108BC00040F233439A42A2F2334203DC524200F0B5
:108BD00080F800E090402C43F1D0404270BD70B569
:108BE000C1F30A5201F000450024C1F3130140F221
:108BF000FF3341F480119A4202DA0020014670BD31
:108C000040F233439A42A2F2334203DC524200F074
:108C100060F801E000F04EF82C43F0D00023D0EBD8
:108C2000030063EB010170BD30B5041E71F1000457
:108C300004DB4FF00044404264EB0101141E73F169
:108C4000000405DB1C464FF00043524263EB040373
:108C50008B4208BF824230BD30B5041E71F1000462
:108C600004DB4FF00044404264EB0101141E73F139
:108C7000000405DB1C464FF00043524263EB040343
:108C8000994208BF904230BD30B50B4601460020E6
:108C90002022012409E021FA02F59D4205D303FABE
:108CA00002F5491B04FA02F52844151EA2F101023F
:108CB000F1DC30BD202A04DB203A00FA02F100206A
:108CC00070479140C2F1200320FA03F3194390400A
:108CD0007047202A04DB203A21FA02F00021704775
:108CE00021FA02F3D040C2F1200291400843194614
:108CF0007047202A06DBCB17203A41FA02F043EAFC
:108D0000E07306E041FA02F3D040C2F12002914044
:108D100008431946704710B5141E73F1000408DAB1
:108D2000401C41F1000192185B411A4301D120F02F
:108D3000010010BD2DE9F04D92469B4611B1B1FAEC
:108D400081F202E0B0FA80F220329046FFF7B2FFE3
:108D500004460F4640EA0A0041EA0B0153465A46D0
:108D6000084313D0114653EA010019D0C8F140025C
:108D70005046FFF7AEFF05460E465046594642465E
:108D8000FFF798FF084305D0012004E0204639464C
:108D9000BDE8F08D0020054346EAE0762C433743DA
:108DA0000A986305E40AA0EB08000022FD0A44EAE1
:108DB00047540A3002D500200146E9E701051019A1
:108DC0006941DDE9084500196941BDE8F04DA2E7B8
:108DD00070B521F0004303430CD0C1F30A550024C1
:108DE000D5EB040564EB0403D617AD1AB34102DBDF
:108DF0000020014670BD201841EB025170BDC1F347
:108E00000A52C1F3130140F2FF3341F480119A4238
:108E100002DA00200146704740F233439A42A2F240
:108E2000334202DC5242FFF754BFFFF743BF00005A
:108E3000064C074D06E0E06840F0010394E80700A7
:108E400098471034AC42F6D3FFF7DEFA5C240200F8
:108E50007C2402002DE9F04D00231A461B1A8A419A
:108E600003DB00200146BDE8F08DC1F30A52C1F3D7
:108E7000130141F480154FF0000BD10702D1001807
:108E80006D41521E0027044640F2FF11384601EBA7
:108E9000620A3E468046024600204FF48011FFF7EA
:108EA00018FFC2197141BB1846EB0100B4EB030C6B
:108EB00075EB000C04D3E41A65EB000517460E466B
:108EC000241908F101006D4180463428E3DDF919C9
:108ED00046EB0600091BA84103D24FF0FF321346B0
:108EE00001E0002213461BEB070046EB0A51BDE8E8
:108EF000F04DFFF710BF70B58C1810F8015B15F03E
:108F0000070301D110F8013B2A1106D110F8012BFB
:108F100003E010F8016B01F8016B5B1EF9D12B0720
:108F200005D40023521E0DD401F8013BFAE710F8D6
:108F3000013BCB1A921C03E013F8015B01F8015BC3
:108F4000521EF9D5A142D8D3002070BD10B500BF84
:108F50000A48806E00F08050B0F1805F0DD1084863
:108F600002680021054800F00FF84FF080500349D7
:108F7000886600BF01200349087010BD00000A4048
:108F8000F8010020F40100202DE9F04107460E46CB
:108F9000144604B105E040F2291214A11DA008F006
:108FA00011FC0C2E00D205E04FF495720FA11DA00C
:108FB00008F008FC07F1200050F8265005F00040AA
:108FC00010B90020BDE8F081C5F30B102060C5F397
:108FD00001402071C5F381406071C5F38360A060DA
:108FE000C5F3807020730120ECE700002E2E5C6436
:108FF0006576696365735C4C504335343630385C54
:10900000647269766572735C66736C5F6164632E0B
:1090100063000000696E666F20213D204E554C4C68
:10902000000000006368616E6E656C203C20414466
:10903000435F4441545F434F554E540010B50420E4
:1090400003F010FC0B4800F073F90B4803F01EFC12
:10905000094800F06BFD084800F0B6FD0022012130
:10906000202000F043FD054800F062F90248044961
:10907000086010BD00111000006CDC02001410002C
:109080003C00002070B50C4803F00CFD202000F0DF
:1090900065FA05462B4605224FF4E131074801F0F9
:1090A00077F8044604B904E04A2205A107A008F0B5
:1090B00089FB204670BD00001200010000800940BD
:1090C0002E2E2F626F6172642E6300006B537461E9
:1090D0007475735F53756363657373203D3D2072D0
:1090E0006573756C740000002DE9F04F9DB040F27F
:1090F000013423460A2201218C4803F066F94FF41B
:1091000048752B4603220121884803F05EF9264664
:1091100023460E220121854803F057F927462346AE
:109120000C220121814803F050F9A04623460D226C
:1091300001217E4803F049F940F20739A31D0F22AF
:1091400000217A4803F041F940F2073AA31D0722B3
:109150000021764803F039F9A34623461022012165
:10916000724803F032F9E01C1C90034617220121DB
:109170006E4803F02AF920461B900346092201217C
:109180006A4803F022F920461A900346182201216A
:10919000664803F01AF92046199003461922012166
:1091A000624803F012F9201D189003461522012190
:1091B0005E4803F00AF9204617900346102200216A
:1091C0005A4803F002F9A01D16900346142200210C
:1091D000564803F0FAF8A01D15900346132200210B
:1091E000524803F0F2F8681C14900346052201214E
:1091F0004E4803F0EAF8681C139003461E22002133
:109200004A4803F0E2F8681C129003460D22002140
:10921000464803F0DAF8284611900346112200214F
:10922000424803F0D2F82846109003460A22002153
:109230003E4803F0CAF828460F9003460022012159
:109240003A4803F0C2F828460E900346082200214F
:10925000364803F0BAF828460D900346092200214B
:10926000324803F0B2F828460C900346022200214F
:109270002E4803F0AAF828460B900346032200214B
:109280002A4803F0A2F828460A9003461522002136
:10929000264803F09AF82846099003461622002132
:1092A000224803F092F8284608900346182200212D
:1092B0001E4803F08AF82846079003461922002129
:1092C0001A4803F082F82846069003461C22002123
:1092D000164803F07AF82846059003461D2200211F
:1092E000124803F072F82846049003461622012122
:1092F0000E4803F06AF82846039003461D22012118
:109300000A4803F062F82846029003461E22012113
:10931000064803F05AF82846019003460E22002121
:10932000024803F052F81DB0BDE8F08F0010004075
:10933000F0B500240F4D002316E003EB4306B60002
:10934000F040C1B270B1C0F30326761EF2B21F29FD
:1093500005D10126B707FE64074E326203E045F8E7
:10936000212000E001245B1C022B01D8002CE4D05A
:10937000F0BD0000800200400000044000B511482C
:10938000006810B900F05CFA00BD0E4800680128C2
:1093900002D100F0BDFAF7E70A480068022802D1BE
:1093A00000F07EFBF0E707480068032802D100F0D8
:1093B00023F8E9E703480068072801D10020E3E724
:1093C0000020E1E7A402004010B500BF0849096A87
:1093D00001F003010C4614B1012C05D102E000F0AC
:1093E0004DF803E0034801E0002000BF00BF10BDBE
:1093F00000000440001BB7000148006870470000EF
:109400005400002000B51C48006810B900F036F880
:1094100000BD19480068012802D100F06DF8F7E797
:1094200015480068022802D100F040FBF0E712481E
:109430000068032802D100F003FAE9E70E4800684B
:10944000042802D100F064FAE2E70B48006805281E
:1094500002D100F025FBDBE707480068062802D1AF
:10946000FFF7CAFFD4E704480068072802D100F0DC
:109470004BFACDE70020CBE78802004000B51D483D
:10948000006830B91B48001F006810B900F0CAF925
:1094900000BD1848006838B91648001F0068012848
:1094A00002D100F029F8F3E71248006838B91148F2
:1094B000001F0068022802D100F0F8FAE8E70D4822
:1094C000006838B90B48001F0068032802D100F07B
:1094D000B7F9DDE707480068022802D100F018FA62
:1094E000D6E704480068032802D100F00DFACFE760
:1094F0000020CDE78402004000487047001BB70001
:1095000010B50446144850F8240010B900F08AF948
:1095100010BD114850F82400012802D100F090F944
:10952000F6E70D4850F82400022802D100F0F0F9C7
:10953000EEE7094850F82400032802D100F0A0F912
:10954000E6E7054850F82400042803D1152000F070
:1095500005F8DDE70020DBE7B002004070B5054606
:10956000232D70D2DFE805F012161F5B29333D472B
:109570006F51CFD9F2F0EFEE5F63676F6B7092CBF4
:10958000EDECEBEAE9E8E7E6E5E4E300FFF776FF78
:10959000044642E1FFF772FFA1490968C9B2491CBC
:1095A000B0FBF1F439E1FFF72DFF9D49091D096872
:1095B000C9B2491CB0FBF1F42FE100F003FA98495D
:1095C00010310968C9B2491CB0FBF1F425E1FFF77D
:1095D000D5FE934914310968C9B2491CB0FBF1F4B6
:1095E0001BE100F01DFA8E4918310968C9B2491C07
:1095F000B0FBF1F411E100F033FA89491C3109683C
:10960000C9B2491CB0FBF1F407E100F05DF98449EF
:109610002C310968C9B2491CB0FBF1F4FDE000F03F
:109620000FF90446F9E000F0FDF80446F5E0FFF715
:1096300063FF0446F1E000F06BF90446EDE000F052
:1096400035FA0446E9E0E6E075489838006810B954
:10965000FFF714FF18E0724898380068012802D11B
:1096600000F056F910E06E4898380068022802D1E0
:1096700000F0D8F808E06A4898380068032802D15A
:1096800000F0DEF800E000200446C6E064489438AC
:10969000006810B900F0C6F828E061489438006806
:1096A000012802D100F0CCF820E05D489438006831
:1096B000022802D100F02CF918E0594894380068CB
:1096C000032802D100F0DCF810E055489438006817
:1096D000042802D1FFF7D2FE08E051489438006810
:1096E000052802D100F0E2F900E0002004464C48D1
:1096F00028300068C0B2401CB4FBF0F48DE0FFF7E6
:1097000063FE044689E000F009F9454934310968EF
:10971000C9B2491CB0FBF1F47FE000F025F94049E3
:109720003C310968C9B2491CB0FBF1F475E06DE049
:1097300067E061E05BE055E04FE049E043E03DE099
:1097400037E032E027E01CE011E0FFE7FFF796FE8C
:1097500033490968C9B2491CB0FBF1F14FF08040B0
:10976000D0F8B803C0B2401CB1FBF0F455E000F0F3
:1097700089F82B4930310968C9B2491CB0FBF1F4B2
:109780004BE0FFF77BFE264978390968C9B2491CCE
:10979000B0FBF1F441E0FFF771FE2149743909682B
:1097A000C9B2491CB0FBF1F437E000F069F8044697
:1097B00033E00020FFF7A4FE04462EE00120FFF76F
:1097C0009FFE044629E00220FFF79AFE044624E0AB
:1097D0000320FFF795FE04461FE00420FFF790FEEC
:1097E00004461AE00520FFF78BFE044615E006202C
:1097F000FFF786FE044610E00720FFF781FE0446CF
:109800000BE00820FFF77CFE044606E00920FFF786
:1098100077FE044601E0002400BF00BF204670BD73
:10982000800300400448006800F0100008B10020E8
:1098300070470248FCE7000010060040001BB7001C
:109840000B48006800F0100008B10020704709487C
:10985000006800F0804008B90020F7E7054800687C
:1098600000F4804008B10448F0E70448EEE7000047
:10987000100600400005004000D8B805006CDC026E
:109880000020704700B50E48006810B9FFF7F6FDDC
:1098900000BD0B480068012802D100F013F8F7E77B
:1098A00007480068022802D1FFF7CAFFF0E7044822
:1098B0000068032801D10020EAE70020E8E7000063
:1098C000F40200400020704700B50E48006848B917
:1098D000FFF7B6FF0B49A8310968C9B2491CB0FBB4
:1098E000F1F000BD07480068012802D1FFF784FDB0
:1098F000F7E704480068072801D10020F1E70020BD
:10990000EFE70000E00200404FF400407047000025
:1099100001480068704700004C00002000B5114865
:10992000006810B9FFF7AAFD00BD0E4800680128C5
:1099300002D1FFF7EDFFF7E70A480068022802D1DD
:10994000FFF77EFFF0E707480068032802D1FFF722
:1099500053FDE9E703480068072801D10020E3E749
:109960000020E1E7F002004000B51548006810B99A
:10997000FFF784FD00BD12480068012802D1FFF7FF
:10998000C7FFF7E70E480068022802D100F088F808
:10999000F0E70B480068032802D1FFF751FFE9E721
:1099A00007480068042802D1FFF726FDE2E70448D3
:1099B0000068072801D10020DCE70020DAE700007A
:1099C000F802004000B51548006810B9FFF756FDD1
:1099D00000BD12480068012802D1FFF799FFF7E7A0
:1099E0000E480068022802D100F05AF8F0E70B4850
:1099F0000068032802D1FFF723FFE9E70748006862
:109A0000042802D1FFF7F8FCE2E7044800680728C1
:109A100001D10020DCE70020DAE70000A0020040CE
:109A200000B50E48006810B9FFF70AFF00BD0B48EB
:109A30000068012802D1FFF76BFFF7E707480068CD
:109A4000022802D100F02CF8F0E70448006807284B
:109A500001D10020EAE70020E8E70000A80200406A
:109A600000B50E48006810B9FFF708FD00BD0B48AF
:109A70000068012802D1FFF74BFFF7E707480068AD
:109A8000022802D100F00CF8F0E70448006807282B
:109A900001D10020EAE70020E8E70000AC02004026
:109AA0000148006870470000500000200C48006822
:109AB00000F4801008B1002070470A48006800F0E8
:109AC0001F00401C410007480068C0F34410064BCB
:109AD0001A5C4CF250305043B0FBF1F0ECE7000060
:109AE00010060040080500405819020010B5134642
:109AF000074A1BB14FF0005442F8204021B94FF003
:109B0000804442F8204002E04C1E42F8204010BD44
:109B100000030040044A126822F4704141EA003216
:109B2000014B1A60704700000004004010B5044665
:109B30001D48844203D80020FFF7ECFF33E01B48A8
:109B4000844203D80120FFF7E5FF2CE01848844247
:109B500003D80220FFF7DEFF25E01648844203D831
:109B60000320FFF7D7FF1EE01348844203D80420E8
:109B7000FFF7D0FF17E01148844203D80520FFF714
:109B8000C9FF10E00E48844203D80620FFF7C2FF49
:109B900009E00C48844203D80720FFF7BBFF02E02E
:109BA0000820FFF7B7FF10BD001BB70000366E019D
:109BB000005125020087930300D8B805000E27073F
:109BC00000449508007A030A70B50446214884428F
:109BD00007D08000844204D04000844201D001209C
:109BE00070BD042002F048FE1B480068C0F3006509
:109BF0001848844225D9C000844211D11748006812
:109C00001749084040F4804040F000404FF0807118
:109C100001EA0561084340F080400F49086016E002
:109C20000E48001F00680E49084040F000404FF009
:109C3000807101EA0561084340F0804006490860F0
:109C400005E00548006820F08040034908600020D6
:109C5000C6E70000001BB700000500404C040001EF
:109C6000FF3FFF0010B500230A221946034802F007
:109C7000A7FB012002490860002010BD00C0084079
:109C8000C000002010B501230A220021034802F081
:109C900097FB01200249086010BD000000C0084089
:109CA000C000002010B5384800784F2802D10120AC
:109CB00036490870344800784B2802D101203449D5
:109CC000087031480078432802D1012031490870DA
:109CD0002D4800784E2802D101202F4908702A48CB
:109CE0000078452802D101202C49087026480078C8
:109CF000542802D101202A490870244800780128FC
:109D000019D123480078012815D12649087026A0CA
:109D100007F01CFD00201E4908701C490870012036
:109D20002749087000201B4908701B4908701B490F
:109D300008701B49087017480078012823D1134880
:109D4000007801281FD11448007801281BD113483E
:109D50000078012817D112480078012813D118483B
:109D6000007801280FD11749087017A007F0EEFC02
:109D7000002006490870074908700749087007491C
:109D800008700749087010BDF6000020E8000020A8
:109D9000E9000020EA000020EB000020EC00002099
:109DA000ED000020F500002076616C6964206F6B87
:109DB000207375636365737366756C6C210A0D009F
:109DC000F1000020A300002076616C696420636FBD
:109DD0006E6E656374207375636365737366756C0B
:109DE0006C210A0D000000002DE9FF4F2DED108BB6
:109DF00087B0824616469B464FF000085546002025
:109E000005F8010B189890ED000BB0EE40AAF0EEAB
:109E100060AA9FED840B53EC102B51EC1A0BFEF74C
:109E200003FF0AD13020287008F10108404607B02E
:109E3000BDEC108B04B0BDE8F08F02A8B0EE4A0A6A
:109E4000F0EE6A0A07F008FDB0EE409AF0EE609A74
:109E50004FF000090CE03046FEF770FE41EC1D0BA0
:109E600053EC192BFEF789FD41EC190B09F101099F
:109E7000D945F0D39FED6B0B53EC102B51EC1A0B23
:109E8000FEF7EAFE2ED89FED690B53EC102B51EC38
:109E9000190BFEF7CBFC41EC180B5846FEF75FFEA2
:109EA00041EC1E0BB0EE4E1AF0EE6E1A9FED610BF8
:109EB00007F03AFDB0EE40DAF0EE60DA53EC182B22
:109EC00051EC1D0BFEF7B0FE3ED89FED5C0B53EC42
:109ED000102B9DED020B51EC100BFEF7A7FCCDE90A
:109EE000020131E09FED510B53EC102B51EC190B9B
:109EF000FEF73DFD41EC180B5846FEF730FE41ECF5
:109F00001F0BB0EE4F1AF0EE6F1A9FED4A0B07F0E1
:109F10000BFDB0EE40EAF0EE60EA51EC1E0B81F072
:109F2000004141EC1D0B53EC182BFEF795FE0BD8AE
:109F30009FED420B53EC102B9DED020B51EC100BDF
:109F4000FEF715FDCDE902014FF000093BE0304678
:109F5000FEF7F4FD41EC1D0B53EC1D2B51EC180BDF
:109F6000FEF77DFD41EC1B0B51EC1B0BFEF737FEA2
:109F7000F317A0FB062C01FB06C100FB0310CDE983
:109F8000002010460199FEF7F7FD53EC182BFEF761
:109F9000F1FC41EC1C0B51EC1C0BFEF701FE0446DE
:109FA000002C05DA0494049CE04300F1310400E045
:109FB0003034B0EE4B8AF0EE6B8A05F8014B08F1B5
:109FC000010809F10109D945C1D32E2005F8010B7B
:109FD00008F101089DED020B51EC100BFEF7E0FDBE
:109FE00007462FB9302005F8010B08F1010816E0EB
:109FF00013E097FBF6F00590059800FB1674002C13
:10A0000005DA0494049CE04300F1310400E03034AC
:10A01000059F05F8014B08F10108002FE9D14046E2
:10A0200005E7000000000000000000000000000044
:10A030000000E03F0000000000002440000000009D
:10A040000000F03F2DE9FF4F89B01E46002001902F
:10A05000DDF824B00BF8010B0B9800284DD00A98BE
:10A06000D0E90078002187EA010088EA010108436D
:10A0700009D130208BF800000198401C0190019814
:10A080000DB0BDE8F08F2FE03246F3173846414659
:10A09000FEF745FBCDE90601F317DDE90601A0FB5C
:10A0A000062C01FB06C103FB0013B91A68EB030081
:10A0B000CDE904100023DDE90410C91A984107DA3C
:10A0C000049CE143491C4FF030000818049002E062
:10A0D000049830300490DDE9067804980BF8010B01
:10A0E000019800F1010001904FF0000187EA0100A2
:10A0F00088EA01010843C7D148E00A98D0E9009AEC
:10A10000002189EA01008AEA0101084307D13020D1
:10A110008BF800000198401C01900198B0E72DE0F9
:10A120003246F31748465146FEF7C8FACDE9020118
:10A13000F317DDE90201A0FB062C01FB06C100FBC1
:10A140000310B9EB02046AEB00050A21611A75F1EC
:10A15000000001D2303409E00A21601A65F10001E3
:10A16000169909B1412100E061214418DDE9029A04
:10A170000BF8014B019800F1010001904FF0000134
:10A1800089EA01008AEA01010843C9D1019877E709
:10A19000FEB505460E4614461F461048007808B125
:10A1A0000120FEBD0D480470052C11D145606846A4
:10A1B00002F066FD009609493A464868694602F091
:10A1C00097FD07480549886006490448C16001E0D9
:10A1D0000420E6E700BF0020E3E70000A4280020F9
:10A1E00041D0000039CE00000FB438B509480078DE
:10A1F00020B94FF0FF3038BC5DF814FB05A8009083
:10A200000548009A049900F009F8044600200090DF
:10A210002046F0E7A428002079A800002DE9F74F98
:10A220009CB006460020119080460F900B900021B4
:10A23000069107911D9FFFE2252C05D02046B047CF
:10A240000F98401C0F90F6E201200C900025002092
:10A25000109023E0781C074600782B280DD004DCF2
:10A2600020280DD0232814D110E02D2802D030282A
:10A270000FD108E045F001050FE045F002050CE0C4
:10A2800045F0040509E045F0080506E045F0100535
:10A2900003E07F1E0120109000BF00BF109800282F
:10A2A000D8D04FF0000B0020109017E0781C074624
:10A2B0000478302C08DB392C06DCA4F130000BEBE1
:10A2C0008B0100EB410B09E02A2C04D11E9850F8B9
:10A2D00004BB1E9002E07F1E012010901098002801
:10A2E000E4D006200E9000200590781C07460078E8
:10A2F0002E2827D100200E9010901FE0781C0746D2
:10A300000478302C0CDB392C0ADCA4F130000E99D7
:10A3100001EB810100EB41000E90012005900DE062
:10A320002A2C08D11E9800680E901E98001D1E90C1
:10A330000120059002E07F1E012010901098002857
:10A34000DCD000E07F1E781C07460078682802D029
:10A350006C2818D10BE0781C07460078682803D0D9
:10A3600045F040057F1E01E045F020050DE0781C1A
:10A37000074600786C2803D045F080057F1E01E079
:10A3800045F4807501E07F1E00BF00BF781C0746C2
:10A390000478642C11D0692C0FD0662C0DD0462C7B
:10A3A0000BD0782C09D0582C07D06F2C05D0622CFC
:10A3B00003D0702C01D0752C7ED1642C01D0692C77
:10A3C00077D105F4807060B11E98C01D20F00700A1
:10A3D0001E90D0E900201E990831CDE908201E9179
:10A3E00007E01E9800681E99091D1E91C117CDE94E
:10A3F00008010C980A23012208A9009012A8FFF76F
:10A4000021FE804612A84044119000221146DDE949
:10A4100008309A1A884104DA4FF02D0A08F1010831
:10A4200011E005F0020020B14FF02B0A08F10108FD
:10A4300009E005F0040020B14FF0200A08F10108FE
:10A4400001E04FF0000A00200A9005F0080090B1EA
:10A45000BAF1000F04D05046B0470F98401C0F903F
:10A4600001200A900FAB5A4641463020009600F07A
:10A47000EFF9D84613E005F0010080B90FAB5A465A
:10A4800041462020009600F0E3F9BAF1000F04D015
:10A490005046B0470F98401C0F9001200A900A9830
:10A4A00038B9BAF1000F04D05046B0470F98401C9D
:10A4B0000F90662C03D000E061E1462C6BD11E9812
:10A4C000C01D20F007001E90B0EC020B1E908DED19
:10A4D000020B0A2202A912A80E9BFFF785FC8046F8
:10A4E00012A8404411909FEDD80B53EC102B9DED1A
:10A4F000020B51EC100BFEF797FB04D24FF02D0A24
:10A5000008F1010811E005F0020020B14FF02B0A1C
:10A5100008F1010809E005F0040020B14FF0200A1D
:10A5200008F1010801E04FF0000A00200A9005F050
:10A53000080090B1BAF1000F04D05046B0470F9810
:10A54000401C0F9001200A900FAB5A464146302024
:10A55000009600F07DF9D84613E005F0010080B9BF
:10A560000FAB5A4641462020009600F071F9BAF12F
:10A57000000F04D05046B0470F98401C0F900120A8
:10A580000A900A9838B9BAF1000F04D05046B04783
:10A590000F98401C0F90582C01D0782C7BD1782C30
:10A5A00001D100200C9005F4807068B11E98C01D88
:10A5B00020F0070001461E90006849681E9A083284
:10A5C0001E92CDE9060107E01E9800681E99091D3C
:10A5D0001E910021CDE906010C981023002206A946
:10A5E000009012A8FFF72EFD804612A8404411905B
:10A5F00000200A9005F00800C8B105F0100068B10D
:10A600003020B0470C9909B1582100E07821084664
:10A61000B0470F98801C0F9001200A900FAB5A464C
:10A6200041463020009600F013F9D8461FE005F0AF
:10A630000100E0B905F0100008B108F102080FAB05
:10A640005A4641462020009600F002F905F010001D
:10A6500068B13020B0470C9909B1582100E0782149
:10A660000846B0470F98801C0F9001200A9005F013
:10A67000100038B10A9828B93020B0470C9911B1B0
:10A68000582101E007E078210846B0470F98801C68
:10A690000F9008F102086F2C05D0622C03D0702CAB
:10A6A00001D0752C51D105F4807068B11E98C01D81
:10A6B00020F0070001461E90006849681E9A083283
:10A6C0001E92CDE9060107E01E9800681E99091D3B
:10A6D0001E910021CDE90601622C09D06F2C04D017
:10A6E000702C08D0752C0CD108E008200B9009E0E4
:10A6F00002200B9006E010200B9003E00A200B9044
:10A7000000E000BF00BF0C980090002206A912A82C
:10A710000B9BFFF797FC804612A84044119005F070
:10A72000080040B10FAB5A4641463020009600F079
:10A730008FF8D84609E005F0010030B90FAB5A4652
:10A7400041462020009600F083F8119860B107E0A0
:10A75000119911F801091191B0470F98401C0F9001
:10A76000119800780028F3D105F00100A0B30FABD9
:10A770005A4641462020009600F06AF85AE0632CC1
:10A780000BD11E9810F8041B1E90C8B20D900D98A6
:10A79000B0470F98401C0F904CE0732C45D11E9889
:10A7A00050F8049B1E90B9F1000F43D0059810B1EA
:10A7B000DDF8388003E04846FEF70CF8804605F0E7
:10A7C000010030B90FAB5A4641462020009600F0F8
:10A7D0003FF8059898B108E02CE019F8010BB04754
:10A7E0000F98401C0F90A8F1010899F8000010B1D3
:10A7F000B8F1000FF1DC0E98A0EB08080AE005E0C4
:10A8000019F8010BB0470F98401C0F9099F8000001
:10A810000028F5D105F0010060B10FAB5A46414662
:10A820002020009600F014F804E02046B0470F986E
:10A83000401C0F9000BF7F1C3878041E7FF4FCACD6
:10A840000F981FB0BDE8F08F00000000000000006E
:10A850002DE9F04780460D4616461C46DDF820904F
:10A860002F4605E04046C8472068401C20607F1CFA
:10A87000B742F7DBBDE8F08701B50748007810B9AB
:10A880004FF0FF3008BD0449486801228B686946D3
:10A8900098470120F6E70000A4280020012101705C
:10A8A0000521C17009210171032141710F214170FE
:10A8B00008218170002181717047000070B5054644
:10A8C000002406E0094850F82400A84200D102E024
:10A8D000641C002CF6D000BF04B904E04D2204A192
:10A8E0000EA006F06FFF204670BD0000B4190200F4
:10A8F0002E2E5C646576696365735C4C5043353419
:10A900003630385C647269766572735C66736C5F4E
:10A91000656570726F6D2E6300000000696E737460
:10A92000616E6365203C2041525241595F53495A40
:10A930004528735F656570726F6D42617365732939
:10A94000000000002DE9F04105460C46174604B111
:10A9500004E05F222FA13AA006F034FF4FF0000878
:10A960002846FFF7ABFF384931F81060300A03285A
:10A9700005D20121B140354A42F8201005E00121FD
:10A980008A07D164B140324A516100BF3148B7FBF8
:10A99000F0F8B7FBF0F100FB11702F49884201D9A4
:10A9A00008F10108A8F1010068612178284600F04B
:10A9B00055F86078401E4FF47F4101EA0020A178ED
:10A9C000491EC9B20843A860E078401E4FF47F01D9
:10A9D00001EA00402179491E4FF47F4202EA012139
:10A9E00008436179491EC9B2084328612869A179E1
:10A9F000D20502EAC171084328610620286000BF21
:10AA000000BFD5F8E00F00F004000028F8D0BDE842
:10AA1000F08100002E2E5C646576696365735C4C82
:10AA2000504335343630385C647269766572735CD5
:10AA300066736C5F656570726F6D2E630000000059
:10AA4000636F6E6669670000B8190200200200405B
:10AA50000000044060E31600B0710B00C160704755
:10AA60002DE9FC5F80460C4617469946DDF830B06C
:10AA700007B105E040F22E4255A15FA006F0A2FE0C
:10AA8000B9F1000F00D005E040F22F4250A15CA0C8
:10AA900006F098FEBBF1000F00D005E04FF486628F
:10AAA0004BA15BA006F08EFE0120019000254FF027
:10AAB000000A4E46786818B10220019001202070EB
:10AAC0003C212046FDF77BFE387800F0010008B1FC
:10AAD00001206070786808B101202070002555E0E1
:10AAE00005EB4502201DF16840F82210002105EB1E
:10AAF000450200EB82008180317805EB4502201D84
:10AB000000EB8200C18005EB4502201D00EB8200B6
:10AB1000B169816005EB450204F11C00716840F8E1
:10AB20002210717805EB450200EB82004181002183
:10AB300005EB450204F11C0000EB8200818005EB6F
:10AB4000450204F11C0000EB8200C18005EB4502C8
:10AB500004F11C0000EB8200018108F5885000EB35
:10AB6000C510406B48F20101084308F5885101EB1C
:10AB7000C511486308F5885000EBC510406B00F024
:10AB8000400040EA0A0A1C36681CC5B2019885429A
:10AB9000A6DBBAF1000F01D0012000E00020A07078
:10ABA000404600F001F91D4941F82040C4F834B096
:10ABB0000D98A0631A481B490860404600F0F4F85D
:10ABC00019490856009000F0C3FFBDE8FC9F000043
:10ABD0002E2E5C646576696365735C4C5043353436
:10ABE0003630385C647269766572735C66736C5F6C
:10ABF000656E65742E630000636F6E6669670000A2
:10AC0000627566666572436F6E6669670000000074
:10AC100063616C6C6261636B00000000580000208F
:10AC20002BAF00005C000020B01902002DE9F84FA6
:10AC300007460E46154606B105E040F2973222A1BE
:10AC40002BA006F0BFFD05B105E04FF466721EA112
:10AC500029A006F0B7FD307800F0010A706808B945
:10AC6000012000E002208346002428E007F58850F8
:10AC700000EBC410406BC0F38019234642462946BE
:10AC8000384600F0D4FE10B10120BDE8F88F07F57A
:10AC9000885000EBC410406B00F0010823464A4680
:10ACA00029463846CDF800A000F008FB08B1012085
:10ACB000EBE71C350DB90420E7E7601CC4B25C4526
:10ACC000D4DB0020E1E700002E2E5C64657669632A
:10ACD00065735C4C504335343630385C6472697649
:10ACE0006572735C66736C5F656E65742E630000DD
:10ACF000636F6E6669670000627566666572436FB2
:10AD00006E6669670000000010B502460B4698B2F7
:10AD1000B0B1002112E041F2827404400CB140F461
:10AD2000804040F6450404400CB140F4004002F578
:10AD3000885404EBC11460634C1CE1B20229EAD3CD
:10AD4000000C20B1D2F8B4400443C2F8B44010BDA6
:10AD500010B5044604B105E040F25B3206A110A034
:10AD600006F030FD012020726072A0720020208069
:10AD70006060A08110BD00002E2E5C646576696362
:10AD800065735C4C504335343630385C6472697698
:10AD90006572735C66736C5F656E65742E6300002C
:10ADA000636F6E666967000070B50546002406E0B3
:10ADB000094850F82400A84200D102E0641C002C8D
:10ADC000F6D000BF04B905E040F2533203A10DA054
:10ADD00006F0F8FC204670BDAC1902002E2E5C6413
:10ADE0006576696365735C4C504335343630385C46
:10ADF000647269766572735C66736C5F656E6574A8
:10AE00002E630000696E7374616E6365203C20469A
:10AE1000534C5F464541545552455F534F435F4C39
:10AE200050435F454E45545F434F554E540000001C
:10AE30002DE9F04782460F461646994607B105E0D0
:10AE400040F2DA421FA129A006F0BCFC06B105E0E1
:10AE500040F2DB421BA127A006F0B4FC09EB49013C
:10AE6000381D00EB8104A188206800EB011500204B
:10AE70003060E86800F0004018B140F6A270BDE80C
:10AE8000F08700BFE86800F0805060B1E86800F427
:10AE9000004010B14FF47A60F1E7E868C0F30E00AB
:10AEA00030600020EBE7E188404600F094F81FFA9C
:10AEB00080F8206800EB0815A0884045E2D14FF4E7
:10AEC0007A60DCE72E2E5C646576696365735C4CA2
:10AED000504335343630385C647269766572735C21
:10AEE00066736C5F656E65742E63000068616E64E6
:10AEF0006C6500006C656E677468000070B5044690
:10AF00000D460026287870B14FF40140FDF7DEFAB7
:10AF1000A189884207D142F2F020FDF7D7FA218AB1
:10AF2000884200D10126304670BDF8B504460D4672
:10AF300041F20800005900F0010010B34FF48B50AB
:10AF4000065906F0400070B148F240014FF48B50B2
:10AF50000151686B38B1A86B009000231A4629464E
:10AF600020466F6BB84706F0010048B148F2010176
:10AF70004FF48B50015100222946204600F06CF915
:10AF800000BF41F20800005900F0020010B34FF476
:10AF90008F50065906F0400070B148F240014FF45E
:10AFA0008F500151686B38B1A86B009001230022CB
:10AFB000294620466F6BB84706F0010048B148F2B9
:10AFC00001014FF48F50015101222946204600F023
:10AFD00043F900BFF8BD401C884200D300207047F1
:10AFE0002DE9F04106460C461746984604B105E0A7
:10AFF00040F26E3216A120A006F0E4FB3046FFF7C7
:10B00000D3FE05461E4931F81500010A032905D271
:10B01000012282401B4B43F8212005E001229307C7
:10B02000DA648240184B5A6100BF207A00F022FC9B
:10B030002146304600F068FA2146304600F0D0FA4A
:10B040003A462146304600F041FBBDE8F081000061
:10B050002E2E5C646576696365735C4C50433534B1
:10B060003630385C647269766572735C66736C5FE7
:10B07000656E65742E630000636F6E66696700001D
:10B08000A819020020020040000004402DE9FF4FF3
:10B0900087B081460E469046DDF850A006B105E027
:10B0A00040F2015260A16AA006F08CFB4FF0000B49
:10B0B0000027002005900AEB4A01301D00EB8104B7
:10B0C00001200490A08803900020029009F5885088
:10B0D00000EBCA10006E00F0800008B10120029061
:10B0E000B8F1000F20D100BFA188206800EB011546
:10B0F000E188A088FFF76FFFA080E868069070786D
:10B100000090B37800221146284600F0D3FC069840
:10B1100000F0805000B103E0A18803988142E3D1A0
:10B1200000BF002004906EE069E0A188206800EB79
:10B130000115E188A088FFF74EFFA080E86800F0C5
:10B14000805088B301200590E868C0F30E010A988A
:10B15000814220D1E868C0F30E00A0EB070BA06885
:10B16000584510D2A268296808EB0700FDF70EFBCE
:10B17000A0680744A368ABEB0302A96808EB0700CB
:10B18000FDF704FB05E0296808EB07005A46FDF7C8
:10B19000FDFA0020049070780090B37800221146E8
:10B1A000284600F087FC2AE0FFE7002005900A9877
:10B1B000874208D370780090B37800221146284661
:10B1C00000F078FC1EE0A268296808EB0700FDF794
:10B1D000DDFAA0680744A86848B1707838B1A26861
:10B1E000A96808EB0700FDF7D1FAA068074470785A
:10B1F0000090B37800221146284600F05BFC0598C9
:10B20000002892D000BF029848B109F5885000EBA1
:10B21000CA10816A09F5885000EBCA10816204984F
:10B220000BB0BDE8F08F00002E2E5C64657669637C
:10B2300065735C4C504335343630385C64726976E3
:10B240006572735C66736C5F656E65742E63000077
:10B2500068616E646C6500002DE9F84307460D4691
:10B26000164606EB460105F11C0000EB8104E1885F
:10B27000206800EB011816E0686B40B1A86B0090E5
:10B280003346012229463846D5F834C0E0472089A4
:10B29000401E20816189E088FFF79DFEE080E18803
:10B2A000206800EB01182089002805DDD8F80C0083
:10B2B00000F000400028DFD0BDE8F8832DE9F04F12
:10B2C00004460F469046099E39464FF0014C11B98D
:10B2D0000420BDE8F08FB8F1000F01D04CF0804C95
:10B2E0000EB14CF0007C0878042801D20420F0E76D
:10B2F000C86820F0030B04F5885000EBC310C0F8B9
:10B300001CB0086920F0030B04F5885000EBC31053
:10B31000C0F828B00878401EC0F3090B04F5885027
:10B3200000EBC310C0F830B004F5885000EBC31038
:10B33000806847F6F87B20EA0B09886980080BEAE9
:10B34000C00040EA090904F5885000EBC310C0F8BA
:10B350000890CA68002517E01EB168044FEA104A39
:10B3600000E0AA46486950F82A0010602EB14869EA
:10B3700000EB8A004068906001E000209060C2F815
:10B380000CC01032681C85B20878A842E4DC0020AA
:10B390009FE700002DE9FF4F87B0884617461D46FE
:10B3A000B8F1000F00D005E040F22A6246A150A09B
:10B3B00006F008FA07B105E040F22B6242A14EA068
:10B3C00006F000FA4FF0000AD34647F6FE708542B9
:10B3D00004D940F6A5700BB0BDE8F08F4146384661
:10B3E000FFF78CFD82460AEB4A0108F11C0000EBD6
:10B3F0008104A188206800EB0119608921898842B5
:10B4000002D140F6A370E6E7B5F5804F0FD20020D9
:10B4100003210122CDE904100346CDE9022BCDE939
:10B4200000052A463946484600F038FA13E0002065
:10B4300003210122CDE9022BCDE90410A5F57C50B2
:10B44000FF38CDE9000543F6FF703B180246394648
:10B45000484600F023FA6189A088FFF7BCFDA08070
:10B460000798FFF7A1FC26490E5616F1800F00D170
:10B470000AE000BF06F01F0101208840214972093F
:10B4800041F8220000BF00BF2089401C208107989E
:10B49000FFF78AFC1A490E56304600F059FBA18886
:10B4A000206800EB0119A08818B96189206800EBB9
:10B4B000011929F00301079800F5885000EBCA1024
:10B4C0000162002087E700002E2E5C6465766963C8
:10B4D00065735C4C504335343630385C6472697641
:10B4E0006572735C66736C5F656E65742E630000D5
:10B4F00068616E646C650000646174610000000046
:10B50000B019020080E100E02DE9F04104460E464A
:10B5100006B105E04FF49D7225A12FA006F052F967
:10B520004FF48050005940F001014FF48050015118
:10B5300000BF4FF48050005900F001000028F8D1FE
:10B54000002531E00127706808B17068476807F48A
:10B55000803104F5885000EBC510016004F5885077
:10B5600000EBC510406820F47C184FF47C1000EA12
:10B57000074040EA080004F5885101EBC511486016
:10B5800004F5885000EBC510806820F47C184FF457
:10B590007C1000EA074040EA080004F5885101EBFE
:10B5A000C5118860681CC5B2022DCBD3BDE8F081FF
:10B5B0002E2E5C646576696365735C4C504335344C
:10B5C0003630385C647269766572735C66736C5F82
:10B5D000656E65742E630000636F6E6669670000B8
:10B5E0002DE9F04704460F4607B105E040F25B1233
:10B5F00028A132A006F0E6F84FF00008C1467D68A9
:10B60000387800F0020018B14FF002084FF020091E
:10B610002C4848EA000848F00800C4F8000DC4F8B7
:10B62000408D294849EA0009C4F8309D85B3A87ABD
:10B63000602101EA4010E97A042202EA810108430C
:10B64000C4F8000CA88BC4F8300C4FF454600059B7
:10B6500040F008014FF454600151C4F8709D002679
:10B6600014E005F1100050F8261004F5506000EBCE
:10B670008610816105F10C00805D00F0070104F582
:10B68000506000EB8610C163701CC6B2022EE8D376
:10B69000BDE8F0872E2E5C646576696365735C4C4B
:10B6A000504335343630385C647269766572735C49
:10B6B00066736C5F656E65742E630000636F6E6603
:10B6C0006967000001000700080070002DE9F041E3
:10B6D00005460C46904604B105E040F2871239A1B8
:10B6E00042A006F06FF80027B8F1000F1CD04646C4
:10B6F00006B105E040F29F223EA148A006F062F8A4
:10B70000F0780006B17840EA0140717840EA012003
:10B7100031780843C5F804033079717940EA012093
:10B72000C5F8000300BF00BF2078C0F38000217877
:10B73000C1F30011202202EA411108432178C1F32C
:10B740004011102202EA011140EA0107AF6020789F
:10B7500000F0080058B10320C5F89000A0893149D5
:10B7600001EA00402867A08901EA004169670020DA
:10B77000FDF7F4FE2C49B0FBF1F0471EC7F30B00B8
:10B78000C5F8DC00A07A4FF4005101EA403040F4E3
:10B790000840617A4FF4804202EA813108432178FF
:10B7A000C1F38011120202EA815140EA0107A07A36
:10B7B00008B947F080672F600520C5F8A000BDE8F4
:10B7C000F08100002E2E5C646576696365735C4CC5
:10B7D000504335343630385C647269766572735C18
:10B7E00066736C5F656E65742E630000636F6E66D2
:10B7F000696700002E2E5C646576696365735C4C36
:10B80000504335343630385C647269766572735CE7
:10B8100066736C5F656E65742E6800006D616341D0
:10B82000646472000000FFFF40420F0070B50646DE
:10B830000020FDF793FE0E49B0FBF1F4142C03D366
:10B84000232C01D202250CE0232C03D33C2C01D263
:10B85000032506E0642C03D3962C01D2012500E0D9
:10B8600000254FF4706000EA0520C6F8000270BDA4
:10B8700040420F004FF4807206490A60096821F4C3
:10B88000807204490A600449096860F38201024A2F
:10B890001160704708010040500400402DE9F04F4E
:10B8A000044609AD95E8E010DDE90D89C2F30D0A03
:10B8B000C5F30D0B4AEA0B40BCF1000F02D040F07B
:10B8C000804001E020F0804017B140F0004001E0EE
:10B8D00020F0004021606360A060C6F30E0A08F00B
:10B8E000030B4AEA0B7A4AF00040E060BDE8F08FB3
:10B8F0002DE9F04104460E46174606B105E040F238
:10B90000BA3220A129A005F05DFF07B105E040F2A1
:10B91000BB321CA128A005F055FF022E00D902263B
:10B92000022F00D9022700250DE004F5885000EB16
:10B93000C510806840F0010104F5885000EBC51087
:10B940008160681CC5B2BD42EFDB00250DE004F547
:10B95000885000EBC510406840F0010104F58850A4
:10B9600000EBC5104160681CC5B2B542EFDB206832
:10B9700040F001002060206840F002002060BDE837
:10B98000F08100002E2E5C646576696365735C4C03
:10B99000504335343630385C647269766572735C56
:10B9A00066736C5F656E65742E630000747852690F
:10B9B0006E674E756D000000727852696E674E7545
:10B9C0006D00000030B5D0F8004204F4706343F01D
:10B9D0000C044FF0787505EA41552C434FF4F815E7
:10B9E00005EA02452C43C0F80042D0F8004244F07A
:10B9F0000104C0F8004230BD70B500F50070056864
:10BA000005F4706444F004054FF0787606EA415678
:10BA100035434FF4F81606EA0246354305604360A5
:10BA2000056845F001050560A0F5007070BD2DE9C1
:10BA3000F04104460D46174617B14FF0004000E0B4
:10BA400000208446294611B90420BDE8F0814878D9
:10BA5000042801D20420F8E7486820F0030804F520
:10BA6000885000EBC310C0F81480886820F00308E9
:10BA700004F5885000EBC310C0F820804878401EC1
:10BA8000C0F3090804F5885000EBC310C0F82C80FF
:10BA90004A68002608E0002010605060C2F808C024
:10BAA000D0601032701C86B24878B042F3DC0020BF
:10BAB000CBE700002DE9F04704460E4617469846AE
:10BAC000DDF8209004B105E04FF4B6620DA117A097
:10BAD00005F078FE4FF00145B8F1000F01D045F0B8
:10BAE0008045B9F1000F01D045F0007506B1266020
:10BAF0000FB1A76001E00020A06000206060E56059
:10BB0000BDE8F0872E2E5C646576696365735C4CD6
:10BB1000504335343630385C647269766572735CD4
:10BB200066736C5F656E65742E63000072784465A1
:10BB30007363000010B5034801680348034A1268A4
:10BB4000904710BD58000020002009405C000020F4
:10BB500010F1800F00D1704700BF00F01F020121DB
:10BB600091404209920002F1E022C2F8001100BFA8
:10BB700000BFF0E730B589B004460D46352004908B
:10BB800005940695694604A80AF084FA009814F012
:10BB90002FF809B030BD70B58AB004460D46164680
:10BBA0003820059006940795089601A905A80AF083
:10BBB00071FA019814F01CF80AB070BDF0B589B0A4
:10BBC00004460D4616461F463320049005940695FC
:10BBD00007964FF47A70B7FBF0F00890694604A816
:10BBE0000AF058FA009814F003F809B0F0BD70B5E7
:10BBF0008AB004460D4616463B20059006940795EC
:10BC00004FF47A70B6FBF0F0089001A905A80AF08D
:10BC100041FA019813F0ECFF0AB070BD70B58AB01C
:10BC200004460D46164634200590069407954FF4B9
:10BC30007A70B6FBF0F0089001A905A80AF02AFA7C
:10BC4000019813F0D5FF0AB070BD30B589B0044635
:10BC50000D463220049005940695694604A80AF022
:10BC600019FA009813F0C4FF09B030BD10B50848A8
:10BC7000006800B104E0A42206A111A005F0A2FD15
:10BC8000154B1968154B1868014B1A68904710BD81
:10BC9000340400202E2E5C646576696365735C4C09
:10BCA000504335343630385C647269766572735C43
:10BCB00066736C5F666C6578636F6D6D2E630000F4
:10BCC000735F666C6578636F6D6D49727148616E04
:10BCD000646C65725B305D005C040020101902002A
:10BCE00010B50848406800B104E0AC2206A111A0DC
:10BCF00005F068FD154B5968154B5868014B5A689B
:10BD0000904710BD340400202E2E5C646576696374
:10BD100065735C4C504335343630385C64726976F8
:10BD20006572735C66736C5F666C6578636F6D6D6E
:10BD30002E630000735F666C6578636F6D6D49728A
:10BD40007148616E646C65725B315D005C0400205B
:10BD50001019020010B50848806800B104E0B42250
:10BD600006A111A005F02EFD154B9968154B98689A
:10BD7000014B9A68904710BD340400202E2E5C645D
:10BD80006576696365735C4C504335343630385C96
:10BD9000647269766572735C66736C5F666C6578F5
:10BDA000636F6D6D2E630000735F666C6578636F03
:10BDB0006D6D49727148616E646C65725B325D00D5
:10BDC0005C0400201019020000B587B033480078E9
:10BDD00001280ED101223249324801F02DF801220A
:10BDE0002F49314801F02CF9FDF75CFF0BF0EEFA1A
:10BDF00051E001222A492B4801F01EF80BF0E6FA27
:10BE000007F0CCF929480078012844D1244801786A
:10BE10002748284A1268815426480068401C254952
:10BE2000086008460068D62835D10020204981F8EE
:10BE3000D600084690F8C60091F8C5101C4A92F842
:10BE4000C4201B4B93F8C330CDE90232CDE9041076
:10BE5000174890F8C200164991F8C110CDE90010BA
:10BE6000134890F8C03090F8BF2090F8BE101248E8
:10BE700005F06CFC0E4803F01FFC00200D49086023
:10BE80004FF480510A48FCF79AFC01200B490870D6
:10BE90000BA005F05BFC07B000BD0000A400002073
:10BEA000F60000200080084000800940C500002006
:10BEB00070180020F8000020001E0200A2000020E0
:10BEC0005265636569766542696E436F756E74216C
:10BED0000A0D000010B50848C06800B104E0BC229B
:10BEE00006A111A005F06EFC154BD968154BD8685A
:10BEF000014BDA68904710BD340400202E2E5C649C
:10BF00006576696365735C4C504335343630385C14
:10BF1000647269766572735C66736C5F666C657873
:10BF2000636F6D6D2E630000735F666C6578636F81
:10BF30006D6D49727148616E646C65725B335D0052
:10BF40005C0400201019020010B50848006900B117
:10BF500004E0C42206A111A005F034FC154B1969B8
:10BF6000154B1869014B1A69904710BD3404002025
:10BF70002E2E5C646576696365735C4C5043353482
:10BF80003630385C647269766572735C66736C5FB8
:10BF9000666C6578636F6D6D2E630000735F666C11
:10BFA0006578636F6D6D49727148616E646C65721E
:10BFB0005B345D005C0400201019020010B50248DB
:10BFC00014F04EF910BD000000A0084010B508485C
:10BFD000406900B104E0CD2206A111A005F0F2FBFA
:10BFE000154B5969154B5869014B5A69904710BD5B
:10BFF000340400202E2E5C646576696365735C4CA6
:10C00000504335343630385C647269766572735CDF
:10C0100066736C5F666C6578636F6D6D2E63000090
:10C02000735F666C6578636F6D6D49727148616EA0
:10C03000646C65725B355D005C04002010190200C1
:10C0400010B5024814F00CF910BD00000060094062
:10C0500010B50848806900B104E0D52206A111A0FE
:10C0600005F0B0FB154B9969154B9869014B9A691E
:10C07000904710BD340400202E2E5C646576696301
:10C0800065735C4C504335343630385C6472697685
:10C090006572735C66736C5F666C6578636F6D6DFB
:10C0A0002E630000735F666C6578636F6D6D497217
:10C0B0007148616E646C65725B365D005C040020E3
:10C0C0001019020010B50848C06900B104E0DD2273
:10C0D00006A111A005F076FB154BD969154BD8695F
:10C0E000014BDA69904710BD340400202E2E5C64A9
:10C0F0006576696365735C4C504335343630385C23
:10C10000647269766572735C66736C5F666C657881
:10C11000636F6D6D2E630000735F666C6578636F8F
:10C120006D6D49727148616E646C65725B375D005C
:10C130005C0400201019020010B5024814F090F8B9
:10C1400010BD00000080094010B50848006A00B129
:10C1500004E0E52206A111A005F034FB154B196A95
:10C16000154B186A014B1A6A904710BD3404002021
:10C170002E2E5C646576696365735C4C5043353480
:10C180003630385C647269766572735C66736C5FB6
:10C19000666C6578636F6D6D2E630000735F666C0F
:10C1A0006578636F6D6D49727148616E646C65721C
:10C1B0005B385D005C0400201019020010B50848CF
:10C1C000406A00B104E0ED2206A111A005F0FAFAE0
:10C1D000154B596A154B586A014B5A6A904710BD66
:10C1E000340400202E2E5C646576696365735C4CB4
:10C1F000504335343630385C647269766572735CEE
:10C2000066736C5F666C6578636F6D6D2E6300009E
:10C21000735F666C6578636F6D6D49727148616EAE
:10C22000646C65725B395D005C04002010190200CB
:10C2300070B50546002407E0074850F82400A842DE
:10C2400001D1204670BD641C0A2CF5DB612203A1DC
:10C250000DA005F0B7FA0000101902002E2E5C6444
:10C260006576696365735C4C504335343630385CB1
:10C27000647269766572735C66736C5F666C657810
:10C28000636F6D6D2E63000066616C736500000066
:10C2900070B505460E462846FFF7CAFF0446002C37
:10C2A00001DA042070BD0C4931F81400010A032999
:10C2B00005D201228240094B43F8212005E00122EA
:10C2C0009307DA648240064B5A6100BF0022314670
:10C2D000284600F024F8E5E7381902002002004063
:10C2E0000000044010B5024609B9012010BD012923
:10C2F0000CDB04290ADCD2F8F80FCB1C01249C408B
:10C30000204008B10120F1E70020EFE7052904D122
:10C31000D2F8F80FC0F3C010E8E70020E6E770B5E8
:10C3200004460D46164629462046FFF7DBFF08B9AE
:10C33000032070BDD4F8F80F00F0080038B1D4F82D
:10C34000F80F00F00700A84201D00120F1E726B164
:10C3500045F00800C4F8F80F01E0C4F8F85F0020C9
:10C36000E7E730B51C785CB900F5005454F821407B
:10C3700001259540AC4300F5005545F8214019E0F2
:10C380005C7834B90124944000F50A5545F8214001
:10C3900005E00124944000F5085545F8214000F5DA
:10C3A000005454F82150012494402C4300F50055CA
:10C3B00045F8214030BD00F50C5343F8212070476B
:10C3C00010B500EB4114A35410BD10B500EBC1141F
:10C3D00044F8223010BD000010B500231D2219467C
:10C3E0000348FFF7EDFF012002490860002010BD5F
:10C3F00000C00840C000002010B501231D2200210C
:10C400000348FFF7DDFF01200249086010BD00006E
:10C4100000C00840C000002010B500231D220121EB
:10C420000348FFF7CDFF012002490860002010BD3E
:10C4300000C00840C000002010B501231D2219468D
:10C440000348FFF7BDFF01200249086010BD00004E
:10C4500000C00840C000002010B500230222194689
:10C460000348FFF7ADFF012002490860002010BD1E
:10C4700000C00840C000002010B5012302220021A6
:10C480000348FFF79DFF01200249086010BD00002E
:10C4900000C00840C000002010B500231622194635
:10C4A0000348FFF78DFF012002490860002010BDFE
:10C4B00000C00840C000002010B501231622002152
:10C4C0000348FFF77DFF01200249086010BD00000E
:10C4D00000C00840C00000202DE9F8430746884608
:10C4E00014461D4605B104E0EA2214A117A005F088
:10C4F00069F904B104E0EB2210A116A005F062F97D
:10C5000000266B461F224146384600F0B9F8064621
:10C510008EB9009800F0100010B10120287001E0E1
:10C5200000202870009800F0080010B10120207051
:10C5300001E0002020703046BDE8F8832E2E2F66E3
:10C54000736C5F7068792E63000000006475706C16
:10C55000657800007370656564000000F8B50646F4
:10C560000F46144600256B4601223946304600F03E
:10C5700087F8054645B9009800F0040010B1012085
:10C58000207001E0002020702846F8BD2DE9FC4114
:10C5900005460E469046002000904FF6FF74284650
:10C5A000FEF702FC0746334931F81700010A032958
:10C5B00005D201228240304B43F8212005E00122C0
:10C5C0009307DA6482402D4B5A6100BF2846FFF77B
:10C5D0002DF906E06B4602223146284600F050F85D
:10C5E000641E0098072801D0002CF3D114B9012053
:10C5F000BDE8FC814FF6FF744FF400430022314642
:10C60000284600F058F800BF01AB0022314628460A
:10C6100000F036F8201EA4F1010404D0019800F4C3
:10C6200000400028F0D10CB90120E1E740F2E1130D
:10C6300004223146284600F03EF84FF49053002281
:10C640003146284600F037F84FF6FF7400BF01ABC3
:10C650001F223146284600F013F8641E24B10198C9
:10C6600000F480500028F2D00CB90120C0E700206F
:10C67000BEE70000A81902002002004000000440AC
:10C680002DE9F04104460E4617461D463A4631460E
:10C690002046FFF797F900BF00BFD4F8000200F072
:10C6A00001000028F8D100BFD4F8040280B228604D
:10C6B0000020BDE8F0812DE9F04104460D46164604
:10C6C0001F463B46324629462046FFF795F900BFF4
:10C6D00000BFD4F8000200F001000028F8D1BDE846
:10C6E000F081000010B50023152219460348FFF71A
:10C6F00067FE012002490860002010BD00C008400C
:10C70000C000002010B50123152200210348FFF7C7
:10C7100057FE01200249086010BD000000C008401B
:10C72000C000002010B50023192219460348FFF766
:10C7300047FE012002490860002010BD00C00840EB
:10C74000C000002010B50123192200210348FFF783
:10C7500037FE01200249086010BD000000C00840FB
:10C76000C000002010B500231C2219460348FFF723
:10C7700027FE012002490860002010BD00C00840CB
:10C78000C000002010B501231C2200210348FFF740
:10C7900017FE01200249086010BD000000C00840DB
:10C7A000C000002010B500231A4601210348FFF7FE
:10C7B00007FE012002490860002010BD00C00840AB
:10C7C000C000002010B50123002219460348FFF7DE
:10C7D000F7FD01200249086010BD000000C00840BC
:10C7E000C000002010B50023162201210348FFF7E6
:10C7F000E7FD012002490860002010BD00C008408C
:10C80000C000002010B50123162219460348FFF787
:10C81000D7FD01200249086010BD000000C008409B
:10C82000C000002010B500231E2201210348FFF79D
:10C83000C7FD012002490860002010BD00C008406B
:10C84000C000002010B501231E2219460348FFF73F
:10C85000B7FD01200249086010BD000000C008407B
:10C86000C000002001218140024A030A42F823103F
:10C87000704700003006004001218140024A030A4F
:10C8800042F82310704700003006004010B50446FF
:10C890001A48844218D20B21002000F031F80C21F4
:10C8A000012000F02DF80B21022000F029F80B21C7
:10C8B000032000F025F80B21042000F021F80B21C3
:10C8C000052000F01DF817E00D21002000F018F8F9
:10C8D0000C21012000F014F80B21022000F010F8C8
:10C8E0000D21032000F00CF80B21042000F008F8C3
:10C8F0000B21052000F004F810BD000000E1F50553
:10C9000010B501F00F02024C44F8202010BD0000C9
:10C910000000024010B50023112219460348FFF71A
:10C920004FFD012002490860002010BD00C00840F2
:10C93000C000002010B50123112200210348FFF799
:10C940003FFD01200249086010BD000000C0084002
:10C95000C000002010B54FF4804200210B48FFF7C3
:10C960002AFD01200A49087000BF0A480068032810
:10C97000FBD1002006490870064908604FF4804248
:10C9800000210248FFF717FD10BD000000C008405D
:10C99000A10000209800002010B54FF48042002133
:10C9A0000948FFF708FD00BF084800680328FBD1CD
:10C9B000002007490870054908604FF480420021B3
:10C9C0000148FFF7F8FC10BD00C0084098000020A7
:10C9D000A000002010B50023182219460348FFF7D5
:10C9E000EFFC012002490860002010BD00C0084093
:10C9F000C000002010B50123182200210348FFF7D2
:10CA0000DFFC01200249086010BD000000C00840A2
:10CA1000C00000202DE9F04105462E0CAFB20120E8
:10CA200000FA07F4202F00D204E05D220DA117A028
:10CA300004F0C8FE032E08D31848846000BF1748CE
:10CA400000682040A042FAD00AE0154840F826408D
:10CA500000BF1348403850F826002040A042F8D0CC
:10CA6000BDE8F0812E2E5C646576696365735C4C6D
:10CA7000504335343630385C647269766572735C65
:10CA800066736C5F72657365742E630062697450BF
:10CA90006F73203C2033327500000000000004401A
:10CAA0004001004010B50446204600F005F820463D
:10CAB000FFF7B0FF10BD00002DE9F04105462E0C38
:10CAC000AFB2012000FA07F4202F00D204E03C228C
:10CAD0000DA117A004F076FE032E08D31848446079
:10CAE00000BF1748006820400028FAD00AE0154827
:10CAF00040F8264000BF1348203850F82600204058
:10CB00000028F8D0BDE8F0812E2E5C64657669635C
:10CB100065735C4C504335343630385C64726976EA
:10CB20006572735C66736C5F72657365742E630007
:10CB3000626974506F73203C20333275000000002E
:10CB4000000004402001004010B5002308221946CF
:10CB50000348FFF735FC012002490860002010BDA2
:10CB600000C00840C000002010B5012308220021A9
:10CB70000348FFF725FC01200249086010BD0000B2
:10CB800000C00840C000002010B50023092219464B
:10CB90000348FFF715FC012002490860002010BD82
:10CBA00000C00840C000002010B501230922002168
:10CBB0000348FFF705FC01200249086010BD000092
:10CBC00000C00840C000002010B5024802490968B2
:10CBD000884710BD005008406C00002010B50023AD
:10CBE000032219460348FFF7EBFB012002490860C6
:10CBF000002010BD00C00840C000002010B5012377
:10CC0000032200210348FFF7DBFB012002490860F3
:10CC100010BD000000C00840C000002010B500BFDB
:10CC2000402080F31188BFF34F8FBFF36F8F00BF99
:10CC300014F0BAFB18B14FF080500449086000BFEF
:10CC4000002080F3118800BF10BD000004ED00E05B
:10CC50000848006840F47000064908600648054925
:10CC60008039086000200549086038200907C1F8AC
:10CC70002002704788ED00E00080000004030040BF
:10CC800010B5044604B104E0D32209A112A004F0B7
:10CC900099FD4FF4E1302060002020716071012087
:10CCA000A0710020E07120726072A072E07210BD6D
:10CCB0002E2E5C646576696365735C4C5043353435
:10CCC0003630385C647269766572735C66736C5F6B
:10CCD00075736172742E63004E554C4C20213D20BB
:10CCE000636F6E66696700000146D1F8040E7047F5
:10CCF0002DE9F04104460D46174614B10DB107B1B8
:10CD000004E0932233A13DA004F05CFD0CB105B119
:10CD100017B90420BDE8F08101212046FFF7B8FAD9
:10CD200006460EB13046F5E73A462046296800F03F
:10CD300007F906460EB13046ECE7687AB8B104F55B
:10CD40006064206840F001102060A06820F47060EA
:10CD5000A060A068A97A4FF4706202EA012108433A
:10CD6000A060A06840F00100A060A4F56064287A8B
:10CD7000B8B104F56064206840F002102060A0683B
:10CD800020F47020A060A068E97A4FF4702202EAD3
:10CD900001410843A060A06840F00200A060A4F533
:10CDA00060642879302101EA00106979402202EAA2
:10CDB00081110843A9790C2202EA81010843E9792B
:10CDC0004FF4004202EAC1310843401C20600020B9
:10CDD000A0E700002E2E5C646576696365735C4C89
:10CDE000504335343630385C647269766572735CF2
:10CDF00066736C5F75736172742E63002128284E10
:10CE0000554C4C203D3D206261736529207C7C207F
:10CE1000284E554C4C203D3D20636F6E6669672956
:10CE2000207C7C202830203D3D20737263436C6F52
:10CE3000636B5F487A2929002DE9F04104460D46CD
:10CE400017460CB105B105E04FF4977229A133A044
:10CE500004F0B8FC04B115B90420BDE8F081D4F8A1
:10CE6000000E00F0020008B90120F6E73EE000BF26
:10CE7000D4F8040E00F040000028F9D0A66806F4AB
:10CE8000005030B1A06840F40050A06041F24F6003
:10CE9000E3E706F4804030B1A06840F48040A06031
:10CEA00041F25060D9E706F4004030B1A06840F488
:10CEB0000040A06041F24E60CFE7D4F8040E00F0CD
:10CEC000020070B1D4F8000E40F40030C4F8000E37
:10CED000D4F8040E40F00200C4F8040E41F24D6094
:10CEE000BBE7D4F8300E28706D1C7F1E002FBED11A
:10CEF0000020B2E72E2E5C646576696365735C4C36
:10CF0000504335343630385C647269766572735CD0
:10CF100066736C5F75736172742E63002128284EEE
:10CF2000554C4C203D3D206261736529207C7C205E
:10CF3000284E554C4C203D3D2064617461292900E8
:10CF40002DE9FC5F06460C4617464FF0FF30019076
:10CF50004FF00F0A834616B10CB107B104E0E72287
:10CF60001DA127A004F02EFC0EB104B117B90420B6
:10CF7000BDE8FC9F554621E0681C6043B7FBF0F01C
:10CF8000A0F10108B8F5803F00D316E0681C08F155
:10CF900001014843B7FBF0F94C4502D2A9EB04006C
:10CFA00001E0A4EB09000090DDE90001884203D212
:10CFB00000980190AA46C34600BF6D1E082DDBD223
:10CFC000BBF5803F02D341F25160D1E7C6F828A0FB
:10CFD000C6F820B00020CBE72E2E5C64657669632E
:10CFE00065735C4C504335343630385C6472697616
:10CFF0006572735C66736C5F75736172742E630027
:10D000002128284E554C4C203D3D206261736529F6
:10D01000207C7C202830203D3D2062617564726157
:10D0200074655F42707329207C7C202830203D3D50
:10D0300020737263436C6F636B5F487A2929000029
:10D0400070B504460D4616460CB105B105E04FF427
:10D05000887212A11BA004F0B5FB04B105B970BD24
:10D06000D4F8000E00F0010000B9F8E70BE000BFB3
:10D07000D4F8040E00F020000028F9D02878C4F875
:10D08000200E6D1C761E002EF1D100BFA06800F0AE
:10D0900008000028FAD000BFE1E700002E2E5C64F3
:10D0A0006576696365735C4C504335343630385C63
:10D0B000647269766572735C66736C5F75736172B6
:10D0C000742E63002128284E554C4C203D3D206293
:10D0D00061736529207C7C20284E554C4C203D3DB9
:10D0E000206461746129290010B521480068012875
:10D0F0003CD100201E4908601E48D0F88000172847
:10D100001AD004DC152807D016282DD10CE01828D9
:10D110001AD0332828D11FE0062002F055F900204C
:10D120001449C1F8800020E0072002F04DF90020EA
:10D130001049C1F8800018E0082002F045F90020ED
:10D140000C49C1F8800010E00A2002F03DF90020EF
:10D150000849C1F8800008E0092002F035F90020F4
:10D160000449C1F8800000E000BF00BF10BD00000E
:10D17000C0000020840501207CB54FF4FC2400266B
:10D180000621204601F034FD0546E079A17940EA08
:10D190000126B54213D112A0FDF726F8E078A17858
:10D1A000CDE900106378227810A11348FDF71CF830
:10D1B0006079217940EA01201049086009E01048AF
:10D1C00010A102680C4804F0D1FA4AF699500B49B4
:10D1D00008600A48084902680BA0FDF705F87CBD05
:10D1E000206D61746368204F4B210A0025642E2551
:10D1F000642E25642E25640028180020B800002025
:10D20000B400002025730000696E6974536572765E
:10D2100065723A2025733A25640D0A000146002202
:10D220000878302806DB0878392803DC087830389D
:10D23000024415E00878412806DB0878462803DC1C
:10D240000878373802440BE00878612806DB087854
:10D25000662803DC08785738024401E00020704754
:10D260001201491C0878302806DB0878392803DCCD
:10D2700008783038024415E00878412806DB087841
:10D28000462803DC0878373802440BE00878612828
:10D2900006DB0878662803DC08785738024401E08A
:10D2A0000020DCE71201491C0878302806DB0878EA
:10D2B000392803DC08783038024415E00878412822
:10D2C00006DB0878462803DC0878373802440BE090
:10D2D0000878612806DB0878662803DC0878573868
:10D2E000024401E00020BAE71201491C0878302806
:10D2F00006DB0878392803DC08783038024415E06A
:10D300000878412806DB0878462803DC0878373897
:10D3100002440BE00878612806DB0878662803DC05
:10D3200008785738024401E0002098E7104696E755
:10D330000AA004F00BFAFFF70DFB00BFBFF34F8FFD
:10D340001348006800F4E06012490843001D1049CA
:10D350000860BFF34F8F00BF00BFFEE775706461C8
:10D3600074652C2073797374656D2077696C6C20FB
:10D370006265207265736574206E6F772C20706C07
:10D380006561736520776169742E2E2E0D0A000089
:10D390000CED00E00000FA0507E004F0EBF802F005
:10D3A00043FE4FF47A7013F025F9F6E72DE9F047C4
:10D3B00005460C46174620785B2803D03C600020C9
:10D3C000BDE8F0872020E860601C03F034FF0446CD
:10D3D00020785D2801D1601CF2E701F0EBF80646E9
:10D3E000A860A86808B90020EAE7204603F023FFF8
:10D3F00081463A464946304600F030F8804603F010
:10D400001AFF04460CB90020DAE71BE001F0D2F85D
:10D41000B0F1000800D1D3E7C6F80080C8F8046076
:10D420004646601C03F007FF82463A4651463046A6
:10D4300000F014F8814603F0FEFE04460CB900200B
:10D44000BEE700BF20782C28E0D020785D2801D1ED
:10D45000601CB5E73C600020B2E7000070B50546EF
:10D460000C4616460CB9002070BD042225A12046AA
:10D47000FBF7CDF918B90420E860201DF4E7052278
:10D4800022A12046FBF7C3F918B90120E860601D0E
:10D49000EAE704221FA12046FBF7B9F928B90220C8
:10D4A000E86001206861201DDEE72078222805D190
:10D4B00032462146284600F09FFDD5E720782D28EA
:10D4C00005D02078302807DB2078392804DC214675
:10D4D000284600F021FCC7E720785B2805D13246BA
:10D4E00021462846FFF762FFBEE720787B2805D15A
:10D4F00032462146284600F0F3FCB5E734600020B0
:10D50000B2E700006E756C6C0000000066616C7321
:10D5100065000000747275650000000070B596B07B
:10D5200004460D461646684603F0DCFF2A462146AF
:10D53000684604F0C5F83146684603F0E5FF16B0CA
:10D5400070BD00002DE9F043C0B080468946D8F890
:10D550000040D8F80450D8F80860D8F80C70402281
:10D560004946684604F074F805EA060027EA050112
:10D57000084300990844FE4908440444E00140EA95
:10D5800054642C4404EA050026EA04010843019986
:10D590000844F84908440744380340EA1757274429
:10D5A00007EA040025EA0701084302990844F24902
:10D5B00008440644700440EAD6363E4406EA0700B2
:10D5C00024EA0601084303990844EC490844054449
:10D5D000A80540EA9525354405EA060027EA050135
:10D5E000084304990844E64908440444E00140EA39
:10D5F00054642C4404EA050026EA04010843059912
:10D600000844E04908440744380340EA17572744D0
:10D6100007EA040025EA0701084306990844DA49A5
:10D6200008440644700440EAD6363E4406EA070041
:10D6300024EA0601084307990844D44908440544EC
:10D64000A80540EA9525354405EA060027EA0501C4
:10D65000084308990844CE4908440444E00140EADC
:10D6600054642C4404EA050026EA0401084309999D
:10D670000844C84908440744380340EA1757274478
:10D6800007EA040025EA070108430A990844A0F5BF
:10D6900024404F380644700440EAD6363E4406EA39
:10D6A000070024EA060108430B990844BA490844D4
:10D6B0000544A80540EA9525354405EA060027EA11
:10D6C000050108430C990844B44908440444E001A6
:10D6D00040EA54642C4404EA050026EA04010843A5
:10D6E0000D990844AE4908440744380340EA1757E7
:10D6F000274407EA040025EA070108430E99084475
:10D70000A84908440644700440EAD6363E4406EA76
:10D71000070024EA060108430F990844A249084477
:10D720000544A80540EA9525354405EA070026EAA0
:10D7300007010843019908449C49084404446001D6
:10D7400040EAD4642C4404EA060025EA06010843B2
:10D7500006990844964908440744780240EAD75796
:10D76000274407EA050024EA050108430B99084409
:10D77000904908440644B00340EA96463E4406EA0F
:10D78000040027EA04010843009908448A49084430
:10D790000544280540EA1535354405EA070026EA20
:10D7A000070108430599084484490844044460017A
:10D7B00040EAD4642C4404EA060025EA0601084342
:10D7C0000A9908447E4908440744780240EAD7573A
:10D7D000274407EA050024EA050108430F99084495
:10D7E000784908440644B00340EA96463E4406EAB7
:10D7F000040027EA040108430499084472490844D4
:10D800000544280540EA1535354405EA070026EAAF
:10D8100007010843099908446C490844044460011D
:10D8200040EAD4642C4404EA060025EA06010843D1
:10D830000E990844664908440744780240EAD757DD
:10D84000274407EA050024EA050108430399084430
:10D85000604908440644B00340EA96463E4406EA5E
:10D86000040027EA04010843089908445A49084477
:10D870000544280540EA1535354405EA070026EA3F
:10D88000070108430D9908445449084404446001C1
:10D8900040EAD4642C4404EA060025EA0601084361
:10D8A000029908444E4908440744780240EAD75791
:10D8B000274407EA050024EA0501084307990844BC
:10D8C000484908440644B00340EA96463E4406EA06
:10D8D000040027EA040108430C990844424908441B
:10D8E0000544280540EA1535354485EA06007840A8
:10D8F000059908443D4908440444200140EA147451
:10D900002C4484EA050070400899084438490844CA
:10D910000744F80240EA5757274487EA0400684062
:10D920000B990844334908440644300440EA16463B
:10D930003E4486EA070060400E9908442E49084498
:10D940000544E80540EA5525354485EA0600784057
:10D9500001990844294908440444200140EA147408
:10D960002C4484EA0500704004990844244949E0A5
:10D9700078A46AD756B7C7E8DB702024EECEBDC1C5
:10D98000AF0F7CF52AC68747134630A8019546FDA0
:10D99000D8988069AFF7448BBED75C892211906B11
:10D9A000937198FD8E4379A62108B44962251EF62D
:10D9B00040B340C0515A5E26AAC7B6E95D102FD6C3
:10D9C0005314440281E6A1D8C8FBD3E7E6CDE12198
:10D9D000D60737C3870DD5F4ED145A4505E9E3A9F9
:10D9E000F8A3EFFCD9026F678A4C2A8D4239FAFFFF
:10D9F00081F6718722619D6D0C38E5FD44EABEA475
:10DA0000A9CFDE4B08440744F80240EA57572744A1
:10DA100087EA0400684007990844A5490844064479
:10DA2000300440EA16463E4486EA070060400A9900
:10DA30000844A04908440544E80540EA5525354412
:10DA400085EA060078400D9908449B49084404443F
:10DA5000200140EA14742C4484EA050070400099C7
:10DA60000844964908440744F80240EA57572744B7
:10DA700087EA040068400399084491490844064431
:10DA8000300440EA16463E4486EA070060400699A4
:10DA900008448C4908440544E80540EA55253544C6
:10DAA00085EA0600784009990844874908440444F7
:10DAB000200140EA14742C4484EA050070400C995B
:10DAC0000844824908440744F80240EA575727446B
:10DAD00087EA040068400F9908447D4908440644D9
:10DAE000300440EA16463E4486EA07006040029948
:10DAF0000844784908440544E80540EA552535447A
:10DB000065EA0700704000990844734908440444DA
:10DB1000A00140EA94642C4464EA06006840079936
:10DB200008446E4908440744B80240EA975727441E
:10DB300067EA050060400E990844694908440644B4
:10DB4000F00340EA56463E4466EA040078400599F0
:10DB50000844644908440544680540EAD52535442D
:10DB600065EA070070400C9908445F490844044482
:10DB7000A00140EA94642C4464EA060068400399DA
:10DB800008445A4908440744B80240EA97572744D2
:10DB900067EA050060400A9908445549084406446C
:10DBA000F00340EA56463E4466EA04007840019994
:10DBB0000844504908440544680540EAD5253544E1
:10DBC00065EA07007040089908444B49084404443A
:10DBD000A00140EA94642C4464EA060068400F996E
:10DBE0000844464908440744B80240EA9757274486
:10DBF00067EA050060400699084441490844064424
:10DC0000F00340EA56463E4466EA040078400D9927
:10DC100008443C4908440544680540EAD525354494
:10DC200065EA0700704004990844374908440444F1
:10DC3000A00140EA94642C4464EA060068400B9911
:10DC40000844324908440744B80240EA9757274439
:10DC500067EA05006040029908442D4908440644DB
:10DC6000F00340EA56463E4466EA040078400999CB
:10DC70000844284908440544680540EAD525354448
:10DC8000D8F800002044C8F80000D8F80400284460
:10DC9000C8F80400D8F808003044C8F80800D8F8DC
:10DCA0000C003844C8F80C0040B0BDE8F083000018
:10DCB000604BBBF670BCBFBEC67E9B28FA27A1EAAC
:10DCC0008530EFD4051D880439D0D4D9E599DBE639
:10DCD000F87CA21F6556ACC4442229F497FF2A435E
:10DCE000A72394AB39A093FCC3595B6592CC0C8FEE
:10DCF0007DF4EFFFD15D84854F7EA86FE0E62CFEBA
:10DD0000144301A3A111084E827E53F735F23ABDA8
:10DD1000BBD2D72A91D386EB2DE9F0412DED0E8BA6
:10DD200005460C469FED660BB0EE408AF0EE608A29
:10DD30009FED650BB0EE40AAF0EE60AA9FED600B80
:10DD4000B0EE409AF0EE609A0026012720782D2848
:10DD500006D19FED5F0BB0EE40AAF0EE60AA641C06
:10DD60002078302800D1641C2078312821DB2078ED
