:020000040000FA
:1080000000800220D1840000D9840000DB840000BD
:10801000DD840000DF840000E18400000000000037
:10802000FFFFFFFF000000000000000015840000BB
:10803000E5840000000000006984000071CE0000AB
:10804000EB840000EF840000F3840000F78400005C
:10805000FB840000FF84000003850000078500000A
:108060000B8500000F8500001385000017850000B8
:10807000E1C700001F850000238500002785000060
:108080002B8500002F850000ADBF00003785000064
:108090003B8500003F8500007D8F00004785000084
:1080A0004B8500004F850000538500005785000078
:1080B0005B8500005F850000638500006785000028
:1080C0006B8500006F8500007385000077850000D8
:1080D0007B8500007F850000838500008785000088
:1080E0008B85000001C20000938500009785000089
:1080F0009B8500009F850000A3850000A7850000E8
:10810000AB850000AF850000B3850000B785000097
:10811000BB850000BF850000C3850000C785000047
:10812000CB850000000000000000000000000000FF
:10813000000000000000000000000000000000003F
:10814000000000000000000000000000000000002F
:10815000000000000000000000000000000000001F
:10816000000000000000000000000000000000000F
:10840000DFF80CD000F02CFD0048004701520100BD
:10841000008002202A4B19680868B0E8F04F80F30A
:108420000988BFF36F8F4FF0000080F31188704709
:108430000000000006480068006880F3088862B603
:1084400061B6BFF34F8FBFF36F8F00DF00BF00BF78
:1084500008ED00E0DFF80C00016841F470010160F4
:10846000704700BF88ED00E0EFF30980BFF36F8F26
:10847000134B1A681EF0100F08BF20ED108A20E978
:10848000F04F106008B44FF0400080F31188BFF344
:108490004F8FBFF36F8F15F075F94FF0000080F329
:1084A000118808BC19680868B0E8F04F1EF0100F7A
:1084B00008BFB0EC108A80F30988BFF36F8F704754
:1084C00000000020EFF305807047000040BA7047BD
:1084D0003F4880473F480047FEE7FEE7FEE7FEE7EC
:1084E000FEE7FEE7FEE7FEE7FEE73B4800473B48C6
:1084F00000473B4800473B4800473B4800473B4854
:1085000000473B4800473B4800473B4800473B4843
:1085100000473B4800473B4800473B4800473B4833
:1085200000473B4800473B4800473B4800473B4823
:1085300000473B4800473B4800473B4800473B4813
:1085400000473B4800473B4800473B4800473B4803
:1085500000473B4800473B4800473B4800473B48F3
:1085600000473B4800473B4800473B4800473B48E3
:1085700000473B4800473B4800473B4800473B48D3
:1085800000473B4800473B4800473B4800473B48C3
:1085900000473B4800473B4800473B4800473B48B3
:1085A00000473B4800473B4800473B4800473B48A3
:1085B00000473B4800473B4800473B4800473B4893
:1085C00000473B4800473B4800473B480047FEE721
:1085D000A5CE000001840000CF850000CF850000FB
:1085E000CF850000CF850000CF850000CF8500003B
:1085F000CF850000CF850000CF850000CF8500002B
:10860000CF850000CF850000CF850000CF8500001A
:1086100069BD0000DDBD000051BE0000C5BE000008
:1086200039BF0000BDBF000031C00000A5C0000080
:10863000CF850000CF850000CF850000CF850000EA
:10864000CF850000CF850000CF850000CF850000DA
:10865000CF850000CF850000CF850000CF850000CA
:10866000CF850000CF850000CF850000CF850000BA
:10867000CF850000CF85000019C100008DC100002A
:10868000CF850000CF850000CF850000CF8500009A
:10869000CF850000CF850000CF8500005DBC0000C5
:1086A000CF850000CF850000CF850000CF8500007A
:1086B000CF850000CF850000CF8500002DE9F05F59
:1086C0000546002092469B46884606468146402441
:1086D0001BE0284641464746224600F012FB53461F
:1086E0005A46C01A914110D311461846224600F04E
:1086F000F9FA2D1A67EB01084F46224601200021A6
:1087000000F0F0FA17EB00094E41201EA4F101041D
:10871000DFDC484631462A464346BDE8F09F2DE956
:10872000F0410024061B254671F1000605DA0124FC
:108730000027D0EB070067EB0101161E73F100065E
:1087400005DA0027D2EB0702012567EB0303FFF7E9
:10875000B5FF86460E4617469C46AC4204D000251F
:10876000D0EB050E65EB010624B10020D2EB00072B
:1087700060EB030C704631463A466346BDE8F08133
:10878000A0F14101192900D82030704740EA0103C7
:108790009B0703D009E008C9121F08C0042AFAD2B7
:1087A00003E011F8013B00F8013B521EF9D270477B
:1087B000D2B201E000F8012B491EFBD27047002223
:1087C000F6E710B513460A4604461946FFF7F0FFD0
:1087D000204610BD421C10F8011B0029FBD1801A55
:1087E000704710B5002200E0521C835C8C5CA342F1
:1087F00001D1002BF8D1D8B2E1B2401A10BD30B58A
:1088000004460020034600E05B1C934203D2E05C78
:10881000CD5C401BF8D030BD30B505460020034686
:1088200000E05B1C934205D2EC5CC85C201A01D1CD
:10883000002CF6D130BD2DE9FE4F804681EA0300C1
:10884000C00F0C46009021F0004123F00045B8EB2A
:108850000200A94105D24046214690461C460B46DF
:10886000024623F00040104347D0270DC7F30A000B
:10887000C3F30A510290401A019040286BDAC3F307
:10888000130040F4801B0098924620B10023D2EBE5
:10889000030A63EB0B0B01985946C0F140025046A6
:1088A00000F020FA06460D4650465946019A00F05F
:1088B00038FA10EB08006141002487EA115284EA7B
:1088C000E7731A4340D0009A62B3019A012A4FEA33
:1088D000075215DC001B61EB02014FF0004202EA77
:1088E0000752CDE90042001C41F5801132462B466B
:1088F00000F038FA03B0BDE8F08F40462146F9E7B2
:10890000001B61EB0201001C41F5801300185B4164
:108910002018A2F5001747EB030140EAD570B619FD
:108920006D4111E06D084FEA360645EAC0754FEA21
:108930000752001B61EB0201001C41F58011490840
:108940004FEA30000019514132462B4603B0BDE8D2
:10895000F04F00F0F8B90098012240000023D0EB5E
:10896000020263EBE073009821464FEAE074B8EB33
:10897000000061EB0401E9E783F000435BE781F06D
:10898000004158E72DE9FE4F81EA030404F000445A
:1089900021F0004100944FF0000B23F0004350EA17
:1089A00001045ED052EA03045BD0C3F30A54C1F35E
:1089B0000A552C44A4F2F3340194A0FB0254C1F3F1
:1089C000130141F48011C3F3130343F4801301FB3B
:1089D000024400FB034E840A970A44EA815447EAA2
:1089E0008357A4FB076802958D0A05FB07854FEAAC
:1089F000932C04FB0C542705029D4FEA065847EAC6
:108A00001637B5EB08056EEB070C870E920E47EA9A
:108A1000811742EA8312A7FB0201B6EB0B0164EB5C
:108A200000042B0D43EA0C335E1844EB1C50DA466D
:108A30005146E7FB0201C5F313044FEA0B3343EA47
:108A400014534FEA0432019C43EA0603A4F10C04D8
:108A50000294009CCDE900B400F084F903B0BDE8B5
:108A6000F08F00200146F9E72DE9F04D81EA03047B
:108A700004F0004B21F0004514464FF0000A23F0AB
:108A8000004150EA050220D054EA01021DD0C5F38E
:108A90000A570246C5F31303C1F31300C1F30A5684
:108AA00040F4801543F48013A7EB0608101BD6464C
:108AB00008F2FD3873EB050002D308F1010801E06C
:108AC00092185B41B8F1000F03DA00200146BDE8BF
:108AD000F08D00204FF48011064684460EE0171BEF
:108AE00073EB050705D3121B63EB050306434CEA42
:108AF000010C49084FEA300092185B4150EA010727
:108B0000EDD152EA030012D082EA040083EA0501A3
:108B1000084305D0101BAB4106D20122002306E01A
:108B200000224FF0004302E06FF0010253101AEBF5
:108B300006004CEB085110EB0A0041EB0B01BDE8BD
:108B4000F04D00F000B90EB5C10F80EAE0700844A6
:108B5000CA07002140F233438DE80E000A460B4657
:108B600000F000F903B000BD0EB540F233410291B0
:108B70000021CDE900110A460B4600F0F3F803B0DE
:108B800000BD3EB5CA17CB0F002450405140C0185D
:108B90006141DA0740F233430094CDE901232246D4
:108BA000234600F0DFF803B030BD70B5C1F30A52C0
:108BB00001F000450024C1F3130140F2FF3341F4FA
:108BC00080119A4201DA002070BD40F233439A428C
:108BD000A2F2334203DC524200F093F800E09040EE
:108BE0002C43F1D0404270BD70B5C1F30A5201F080
:108BF00000450024C1F3130140F2FF3341F480111A
:108C00009A4202DA0020014670BD40F233439A4294
:108C1000A2F2334203DC524200F073F801E000F0AC
:108C200061F82C43F0D00023D0EB030063EB01018B
:108C300070BD00F0004230F000400AD0C10D01F5D7
:108C40006071C0F3160042EA0151C20840071143A7
:108C5000704700200146704730B5041E71F10004D2
:108C600004DB4FF00044404264EB0101141E73F139
:108C7000000405DB1C464FF00043524263EB040343
:108C80008B4208BF824230BD30B5041E71F1000432
:108C900004DB4FF00044404264EB0101141E73F109
:108CA000000405DB1C464FF00043524263EB040313
:108CB000994208BF904230BD30B50B4601460020B6
:108CC0002022012409E021FA02F59D4205D303FA8E
:108CD00002F5491B04FA02F52844151EA2F101020F
:108CE000F1DC30BD202A04DB203A00FA02F100203A
:108CF00070479140C2F1200320FA03F319439040DA
:108D00007047202A04DB203A21FA02F00021704744
:108D100021FA02F3D040C2F12002914008431946E3
:108D20007047202A06DBCB17203A41FA02F043EACB
:108D3000E07306E041FA02F3D040C2F12002914014
:108D400008431946704710B5141E73F1000408DA81
:108D5000401C41F1000192185B411A4301D120F0FF
:108D6000010010BD2DE9F04D92469B4611B1B1FABC
:108D700081F202E0B0FA80F220329046FFF7B2FFB3
:108D800004460F4640EA0A0041EA0B0153465A46A0
:108D9000084313D0114653EA010019D0C8F140022C
:108DA0005046FFF7AEFF05460E465046594642462E
:108DB000FFF798FF084305D0012004E0204639461C
:108DC000BDE8F08D0020054346EAE0762C433743AA
:108DD0000A986305E40AA0EB08000022FD0A44EAB1
:108DE00047540A3002D500200146E9E70105101971
:108DF0006941DDE9084500196941BDE8F04DA2E788
:108E000070B521F0004303430CD0C1F30A55002490
:108E1000D5EB040564EB0403D617AD1AB34102DBAE
:108E20000020014670BD201841EB025170BDC1F316
:108E30000A52C1F3130140F2FF3341F480119A4208
:108E400002DA00200146704740F233439A42A2F210
:108E5000334202DC5242FFF754BFFFF743BF00002A
:108E6000064C074D06E0E06840F0010394E8070077
:108E700098471034AC42F6D3FFF7C6FA3CF0010035
:108E80005CF001002DE9F04D00231A461B1A8A41BF
:108E900003DB00200146BDE8F08DC1F30A52C1F3A7
:108EA000130141F480154FF0000BD10702D10018D7
:108EB0006D41521E0027044640F2FF11384601EB77
:108EC000620A3E468046024600204FF48011FFF7BA
:108ED00018FFC2197141BB1846EB0100B4EB030C3B
:108EE00075EB000C04D3E41A65EB000517460E463B
:108EF000241908F101006D4180463428E3DDF91999
:108F000046EB0600091BA84103D24FF0FF3213467F
:108F100001E0002213461BEB070046EB0A51BDE8B7
:108F2000F04DFFF710BF70B58C1810F8015B15F00D
:108F3000070301D110F8013B2A1106D110F8012BCB
:108F400003E010F8016B01F8016B5B1EF9D12B07F0
:108F500005D40023521E0DD401F8013BFAE710F8A6
:108F6000013BCB1A921C03E013F8015B01F8015B93
:108F7000521EF9D5A142D8D3002070BD10B500BF54
:108F80000A48806E00F08050B0F1805F0DD1084833
:108F900002680421054800F0A5F84FF0805003490D
:108FA000886600BF01200349087010BD00000A4018
:108FB000D0010020CC01002010B5132003F028FBC5
:108FC0000A2003F025FB092003F022FB172003F001
:108FD0001FFB062003F01CFB10BD000000B587B08E
:108FE00000208DF80C000120049003208DF814005F
:108FF00000208DF81500069003A91B4800F00CF91D
:10900000012038B11849496821F00301C91C164AEA
:10901000516005E01449496821F00301124A51608A
:1090200000BF10200090002001908DF808008DF8FE
:109030000A008DF8090001208DF80B0069460A48E6
:1090400000F04CF9012030B10749896841F0004136
:10905000054A916005E00449896821F00041024A0F
:10906000916000BF07B000BD00000A40014601202A
:10907000C866002201E000BF521C102AFBD3C86E54
:1090800000F0010008B900207047086F00F00200EE
:10909000022812D1086800F4006070B90120086746
:1090A0004FF4702200BF086F00F0010010B1501E95
:1090B000021EF8D10AB90020E6E7C86E40F00200AF
:1090C000C866074A00BFC86E00F00200022802D13D
:1090D000501E021EF7D10AB90020D5E70120D3E7C0
:1090E000FFFF07002DE9F04107460E46144604B184
:1090F00005E040F2291214A11DA006F03BF80C2E49
:1091000000D205E04FF495720FA11DA006F032F8D1
:1091100007F1200050F8265005F0004010B900205B
:10912000BDE8F081C5F30B102060C5F3014020714C
:10913000C5F381406071C5F38360A060C5F38070A2
:1091400020730120ECE700002E2E5C6465766963D5
:1091500065735C4C504335343630385C64726976E4
:109160006572735C66736C5F6164632E63000000FC
:10917000696E666F20213D204E554C4C000000006A
:109180006368616E6E656C203C204144435F4441DE
:10919000545F434F554E540070B50546002406E019
:1091A000094850F82400A84200D102E0641C002CB9
:1091B000F6D000BF04B904E0342204A10DA005F0EC
:1091C000D9FF204670BD000074E801002E2E5C64BB
:1091D0006576696365735C4C504335343630385C72
:1091E000647269766572735C66736C5F6164632E2A
:1091F00063000000696E7374616E6365203C2041FA
:10920000525241595F53495A4528735F6164634222
:1092100061736573290000002DE9F04107460C4693
:1092200004B104E03B221CA125A005F0A3FF00250A
:109230003846FFF7B1FF264931F81060300A03289D
:1092400005D20121B140234A42F8201005E0012156
:109250008A07D164B140204A516100BF002078667E
:1092600025792078012802D145F4807500E000BFFF
:1092700000BF207A4FF4C06101EA40200543607AC4
:1092800008B145F400654FF4E041E06801EA0030C0
:1092900005433D60BDE8F0812E2E5C646576696310
:1092A00065735C4C504335343630385C6472697693
:1092B0006572735C66736C5F6164632E63000000AB
:1092C000636F6E66696720213D204E554C4C00004F
:1092D00078E80100200200400000044070B5064616
:1092E0000C4604B104E0A52213A11DA005F042FF25
:1092F0002088C0F30B004FF47C32616802EA013130
:1093000040EA0105207A012802D145F4802500E0D9
:1093100000BF00BF607A08B145F40025E07A01285B
:1093200002D145F0804500E000BF00BFA07A08B13F
:1093300045F08055B56070BD2E2E5C64657669631E
:1093400065735C4C504335343630385C64726976F2
:109350006572735C66736C5F6164632E630000000A
:10936000636F6E66696720213D204E554C4C0000AE
:1093700010B5042003F038F90B4800F02FF90B4822
:1093800003F050F9094800F027FD084800F072FD8D
:1093900000220121202000F0FFFC054800F01EF90A
:1093A00002480449086010BD00111000006CDC0286
:1093B000001410003C00002070B50C4803F0BEF90A
:1093C000192000F021FA05462B4605224FF4E13121
:1093D000074800F071FF044604B904E04A2205A1E1
:1093E00007A005F0C7FE204670BD00000B0001007D
:1093F000006008402E2E2F626F6172642E630000A1
:109400006B5374617475735F537563636573732015
:109410003D3D20726573756C740000002DE9F04FBE
:1094200093B040F2063423460A2200216A4802F033
:10943000B7FF651C631C11220021674802F0B0FFD2
:10944000661F631F1D220021634802F0A9FF671FEA
:10945000631F1E220021604802F0A2FF4FF44878EB
:1094600043461A2202215C4802F09AFF40F2013979
:10947000631F0A220421584802F092FF40F2013A89
:10948000631F0B220421544802F08AFF40F2013B83
:10949000631F0C220421504802F082FF601F1290CB
:1094A00003460D2204214C4802F07AFF601F119000
:1094B00003460E220421484802F072FF601F1090FC
:1094C00003460F220421444802F06AFF601F0F90F8
:1094D000034610220421404802F062FF601F0E90F4
:1094E0000346082204213C4802F05AFF40460D90F2
:1094F00003461A220021384802F052FF40460C90E1
:10950000034619220021344802F04AFF40460B90DE
:10951000034618220021304802F042FF40460A90DC
:109520000346172200212C4802F03AFF40460990DA
:1095300003461C220021284802F032FF40460890D2
:1095400003461B220021244802F02AFF40460790D0
:1095500003461D220321204802F022FF4FF4007031
:1095600006900346102200211B4802F019FF4FF419
:109570000070059003461F220021174802F010FFDB
:10958000E01E049003461A220321134802F008FF4C
:10959000E01E039003461B2203210F4802F000FF48
:1095A000601F029003460E2203210B4802F0F8FED2
:1095B000601F0190034615220321074802F0F0FEC8
:1095C000601F0090034616220321034802F0E8FEC4
:1095D00013B0BDE8F08F000000100040F0B500248B
:1095E0000F4D002316E003EB4306B600F040C1B276
:1095F00070B1C0F30326761EF2B21F2905D10126F1
:10960000B707FE64074E326203E045F8212000E010
:1096100001245B1C022B01D8002CE4D0F0BD00001B
:10962000800200400000044000B51148006810B9F5
:1096300000F05CFA00BD0E480068012802D100F07D
:10964000BDFAF7E70A480068022802D100F07EFB65
:10965000F0E707480068032802D100F023F8E9E7A3
:1096600003480068072801D10020E3E70020E1E774
:10967000A402004010B500BF0849096A01F00301C7
:109680000C4614B1012C05D102E000F04DF803E0C6
:10969000034801E0002000BF00BF10BD00000440EF
:1096A000001BB7000148006870470000540000200C
:1096B00000B51C48006810B900F036F800BD194824
:1096C0000068012802D100F06DF8F7E7154800683E
:1096D000022802D100F040FBF0E71248006803289E
:1096E00002D100F003FAE9E70E480068042802D12D
:1096F00000F064FAE2E70B480068052802D100F0A8
:1097000025FBDBE707480068062802D1FFF7CAFF00
:10971000D4E704480068072802D100F04BFACDE7EF
:109720000020CBE78802004000B51D48006830B932
:109730001B48001F006810B900F0CAF900BD1848A6
:10974000006838B91648001F0068012802D100F0EF
:1097500029F8F3E71248006838B91148001F00687B
:10976000022802D100F0F8FAE8E70D48006838B99D
:109770000B48001F0068032802D100F0B7F9DDE7AD
:1097800007480068022802D100F018FAD6E704481A
:109790000068032802D100F00DFACFE70020CDE7E2
:1097A0008402004000487047001BB70010B5044613
:1097B000144850F8240010B900F08AF910BD11487F
:1097C00050F82400012802D100F090F9F6E70D4886
:1097D00050F82400022802D100F0F0F9EEE7094821
:1097E00050F82400032802D100F0A0F9E6E705486C
:1097F00050F82400042803D1152000F005F8DDE717
:109800000020DBE7B002004070B50546232D70D282
:10981000DFE805F012161F5B29333D476F51CFD9A2
:10982000F2F0EFEE5F63676F6B7092CBEDECEBEAFB
:10983000E9E8E7E6E5E4E300FFF776FF044642E106
:10984000FFF772FFA1490968C9B2491CB0FBF1F4E6
:1098500039E1FFF72DFF9D49091D0968C9B2491C6F
:10986000B0FBF1F42FE100F003FA984910310968D8
:10987000C9B2491CB0FBF1F425E1FFF7D5FE9349CD
:1098800014310968C9B2491CB0FBF1F41BE100F0C6
:109890001DFA8E4918310968C9B2491CB0FBF1F4B0
:1098A00011E100F033FA89491C310968C9B2491C39
:1098B000B0FBF1F407E100F05DF984492C3109684F
:1098C000C9B2491CB0FBF1F4FDE000F00FF9044609
:1098D000F9E000F0FDF80446F5E0FFF763FF044609
:1098E000F1E000F06BF90446EDE000F035FA0446D3
:1098F000E9E0E6E075489838006810B9FFF714FF12
:1099000018E0724898380068012802D100F056F932
:1099100010E06E4898380068022802D100F0D8F8AC
:1099200008E06A4898380068032802D100F0DEF8A1
:1099300000E000200446C6E064489438006810B98E
:1099400000F0C6F828E0614894380068012802D188
:1099500000F0CCF820E05D4894380068022802D17D
:1099600000F02CF918E0594894380068032802D117
:1099700000F0DCF810E0554894380068042802D163
:10998000FFF7D2FE08E0514894380068052802D15C
:1099900000F0E2F900E0002004464C48283000685E
:1099A000C0B2401CB4FBF0F48DE0FFF763FE044648
:1099B00089E000F009F9454934310968C9B2491C08
:1099C000B0FBF1F47FE000F025F940493C31096833
:1099D000C9B2491CB0FBF1F475E06DE067E061E0ED
:1099E0005BE055E04FE049E043E03DE037E032E046
:1099F00027E01CE011E0FFE7FFF796FE3349096816
:109A0000C9B2491CB0FBF1F14FF08040D0F8B80367
:109A1000C0B2401CB1FBF0F455E000F089F82B49CE
:109A200030310968C9B2491CB0FBF1F44BE0FFF7D3
:109A30007BFE264978390968C9B2491CB0FBF1F4AC
:109A400041E0FFF771FE214974390968C9B2491C28
:109A5000B0FBF1F437E000F069F8044633E0002091
:109A6000FFF7A4FE04462EE00120FFF79FFE044608
:109A700029E00220FFF79AFE044624E00320FFF7C6
:109A800095FE04461FE00420FFF790FE04461AE00E
:109A90000520FFF78BFE044615E00620FFF786FE43
:109AA000044610E00720FFF781FE04460BE0082083
:109AB000FFF77CFE044606E00920FFF777FE044628
:109AC00001E0002400BF00BF204670BD80030040BD
:109AD0000448006800F0100008B1002070470248F8
:109AE000FCE7000010060040001BB7000B480068B0
:109AF00000F0100008B1002070470948006800F02D
:109B0000804008B90020F7E70548006800F480406D
:109B100008B10448F0E70448EEE7000010060040F2
:109B20000005004000D8B805006CDC02002070473A
:109B300000B50E48006810B9FFF7F6FD00BD0B48F0
:109B40000068012802D100F013F8F7E70748006821
:109B5000022802D1FFF7CAFFF0E704480068032893
:109B600001D10020EAE70020E8E70000F40200400D
:109B70000020704700B50E48006848B9FFF7B6FFEF
:109B80000B49A8310968C9B2491CB0FBF1F000BD0E
:109B900007480068012802D1FFF784FDF7E7044871
:109BA0000068072801D10020F1E70020EFE700005E
:109BB000E00200404FF40040704700000148006898
:109BC000704700004C00002000B51148006810B933
:109BD000FFF7AAFD00BD0E480068012802D1FFF77B
:109BE000EDFFF7E70A480068022802D1FFF77EFF81
:109BF000F0E707480068032802D1FFF753FDE9E7C3
:109C000003480068072801D10020E3E70020E1E7CE
:109C1000F002004000B51548006810B9FFF784FD58
:109C200000BD12480068012802D1FFF7C7FFF7E71F
:109C30000E480068022802D100F088F8F0E70B48CF
:109C40000068032802D1FFF751FFE9E707480068E1
:109C5000042802D1FFF726FDE2E704480068072840
:109C600001D10020DCE70020DAE70000F802004024
:109C700000B51548006810B9FFF756FD00BD124841
:109C80000068012802D1FFF799FFF7E70E48006846
:109C9000022802D100F05AF8F0E70B4800680328C8
:109CA00002D1FFF723FFE9E707480068042802D143
:109CB000FFF7F8FCE2E704480068072801D100201C
:109CC000DCE70020DAE70000A002004000B50E4803
:109CD000006810B9FFF70AFF00BD0B4800680128B3
:109CE00002D1FFF76BFFF7E707480068022802D1AF
:109CF00000F02CF8F0E704480068072801D10020A4
:109D0000EAE70020E8E70000A802004000B50E489E
:109D1000006810B9FFF708FD00BD0B480068012876
:109D200002D1FFF74BFFF7E707480068022802D18E
:109D300000F00CF8F0E704480068072801D1002083
:109D4000EAE70020E8E70000AC02004001480068B4
:109D500070470000500000200C48006800F480109C
:109D600008B1002070470A48006800F01F00401C3E
:109D7000410007480068C0F34410064B1A5C4CF2DF
:109D800050305043B0FBF1F0ECE70000100600400B
:109D90000805004018E8010010B51346074A1BB13A
:109DA0004FF0005442F8204021B94FF0804442F86F
:109DB000204002E04C1E42F8204010BD000300404D
:109DC000044A126822F4704141EA0032014B1A60E1
:109DD000704700000004004010B504461D4884424E
:109DE00003D80020FFF7ECFF33E01B48844203D880
:109DF0000120FFF7E5FF2CE01848844203D8022039
:109E0000FFF7DEFF25E01648844203D80320FFF762
:109E1000D7FF1EE01348844203D80420FFF7D0FF89
:109E200017E01148844203D80520FFF7C9FF10E06E
:109E30000E48844203D80620FFF7C2FF09E00C4811
:109E4000844203D80720FFF7BBFF02E00820FFF79A
:109E5000B7FF10BD001BB70000366E010051250290
:109E60000087930300D8B805000E27070044950823
:109E7000007A030A70B504462148844207D0800066
:109E8000844204D04000844201D0012070BD0420EF
:109E900002F0B4FB1B480068C0F300651848844218
:109EA00025D9C000844211D11748006817490840DD
:109EB00040F4804040F000404FF0807101EA0561BD
:109EC000084340F080400F49086016E00E48001F2C
:109ED00000680E49084040F000404FF0807101EAF0
:109EE0000561084340F080400649086005E00548E8
:109EF000006820F08040034908600020C6E70000A9
:109F0000001BB700000500404C040001FF3FFF00AC
:109F10002DE9FF4F2DED108B87B0824616469B46EC
:109F20004FF000085546002005F8010B189890EDF9
:109F3000000BB0EE40AAF0EE60AA9FED840B53EC4C
:109F4000102B51EC1A0BFEF787FE0AD13020287037
:109F500008F10108404607B0BDEC108B04B0BDE825
:109F6000F08F02A8B0EE4A0AF0EE6A0A05F056F940
:109F7000B0EE409AF0EE609A4FF000090CE03046E7
:109F8000FEF7E1FD41EC1D0B53EC192BFEF7FAFC3B
:109F900041EC190B09F10109D945F0D39FED6B0B89
:109FA00053EC102B51EC1A0BFEF76EFE2ED89FEDE2
:109FB000690B53EC102B51EC190BFEF73CFC41ECF8
:109FC000180B5846FEF7D0FD41EC1E0BB0EE4E1AB2
:109FD000F0EE6E1A9FED610B05F08AF9B0EE40DAF3
:109FE000F0EE60DA53EC182B51EC1D0BFEF734FE4B
:109FF0003ED89FED5C0B53EC102B9DED020B51EC0A
:10A00000100BFEF718FCCDE9020131E09FED510B7A
:10A0100053EC102B51EC190BFEF7AEFC41EC180B76
:10A020005846FEF7A1FD41EC1F0BB0EE4F1AF0EEC3
:10A030006F1A9FED4A0B05F05BF9B0EE40EAF0EEC7
:10A0400060EA51EC1E0B81F0004141EC1D0B53EC1A
:10A05000182BFEF719FE0BD89FED420B53EC102B7B
:10A060009DED020B51EC100BFEF786FCCDE90201D1
:10A070004FF000093BE03046FEF765FD41EC1D0B5B
:10A0800053EC1D2B51EC180BFEF7EEFC41EC1B0BB7
:10A0900051EC1B0BFEF7A8FDF317A0FB062C01FBF0
:10A0A00006C100FB0310CDE9002010460199FEF720
:10A0B00068FD53EC182BFEF762FC41EC1C0B51ECD5
:10A0C0001C0BFEF772FD0446002C05DA0494049C78
:10A0D000E04300F1310400E03034B0EE4B8AF0EEA2
:10A0E0006B8A05F8014B08F1010809F10109D9450E
:10A0F000C1D32E2005F8010B08F101089DED020BDC
:10A1000051EC100BFEF751FD07462FB9302005F832
:10A11000010B08F1010816E013E097FBF6F005903B
:10A12000059800FB1674002C05DA0494049CE043A7
:10A1300000F1310400E03034059F05F8014B08F1CF
:10A140000108002FE9D1404605E7000000000000AB
:10A1500000000000000000000000E03F00000000E0
:10A1600000002440000000000000F03F2DE9FF4FF8
:10A1700089B01E4600200190DDF824B00BF8010BD9
:10A180000B9800284DD00A98D0E90078002187EA82
:10A19000010088EA0101084309D130208BF8000052
:10A1A0000198401C019001980DB0BDE8F08F2FE0A0
:10A1B0003246F31738464146FEF7B1FACDE90601BB
:10A1C000F317DDE90601A0FB062C01FB06C103FB2A
:10A1D0000013B91A68EB0300CDE904100023DDE990
:10A1E0000410C91A984107DA049CE143491C4FF056
:10A1F00030000818049002E0049830300490DDE943
:10A20000067804980BF8010B019800F10100019009
:10A210004FF0000187EA010088EA01010843C7D135
:10A2200048E00A98D0E9009A002189EA01008AEA08
:10A230000101084307D130208BF800000198401C31
:10A2400001900198B0E72DE03246F3174846514699
:10A25000FEF734FACDE90201F317DDE90201A0FBB4
:10A26000062C01FB06C100FB0310B9EB02046AEBEC
:10A2700000050A21611A75F1000001D2303409E0AD
:10A280000A21601A65F10001169909B1412100E027
:10A2900061214418DDE9029A0BF8014B019800F1A5
:10A2A000010001904FF0000189EA01008AEA0101F2
:10A2B0000843C9D1019877E7FEB505460E46144616
:10A2C0001F461048007808B10120FEBD0D480470FB
:10A2D000052C11D14560684602F0FCFD0096094945
:10A2E0003A464868694602F029FE074805498860F1
:10A2F00006490448C16001E00420E6E700BF0020F1
:10A30000E3E700008C1800208DD2000085D000000B
:10A310000FB438B50948007820B94FF0FF3038BC89
:10A320005DF814FB05A800900548009A049900F018
:10A3300009F80446002000902046F0E78C18002021
:10A34000A1A900002DE9F74F9CB00646002011900E
:10A3500080460F900B900021069107911D9FFFE210
:10A36000252C05D02046B0470F98401C0F90F6E2F0
:10A3700001200C9000250020109023E0781C074657
:10A3800000782B280DD004DC20280DD0232814D1F0
:10A3900010E02D2802D030280FD108E045F001054B
:10A3A0000FE045F002050CE045F0040509E045F03A
:10A3B000080506E045F0100503E07F1E012010901F
:10A3C00000BF00BF10980028D8D04FF0000B00202D
:10A3D000109017E0781C07460478302C08DB392CE5
:10A3E00006DCA4F130000BEB8B0100EB410B09E024
:10A3F0002A2C04D11E9850F804BB1E9002E07F1E48
:10A400000120109010980028E4D006200E90002023
:10A410000590781C074600782E2827D100200E9042
:10A4200010901FE0781C07460478302C0CDB392C88
:10A430000ADCA4F130000E9901EB810100EB410030
:10A440000E90012005900DE02A2C08D11E9800687E
:10A450000E901E98001D1E900120059002E07F1EA8
:10A460000120109010980028DCD000E07F1E781C9E
:10A4700007460078682802D06C2818D10BE0781CB9
:10A4800007460078682803D045F040057F1E01E0AC
:10A4900045F020050DE0781C074600786C2803D0B5
:10A4A00045F080057F1E01E045F4807501E07F1EC8
:10A4B00000BF00BF781C07460478642C11D0692CBB
:10A4C0000FD0662C0DD0462C0BD0782C09D0582CF0
:10A4D00007D06F2C05D0622C03D0702C01D0752CC6
:10A4E0007ED1642C01D0692C77D105F4807060B1E5
:10A4F0001E98C01D20F007001E90D0E900201E9974
:10A500000831CDE908201E9107E01E9800681E99C9
:10A51000091D1E91C117CDE908010C980A230122DB
:10A5200008A9009012A8FFF721FE804612A8404417
:10A53000119000221146DDE908309A1A884104DAA8
:10A540004FF02D0A08F1010811E005F0020020B1DA
:10A550004FF02B0A08F1010809E005F0040020B1D2
:10A560004FF0200A08F1010801E04FF0000A002036
:10A570000A9005F0080090B1BAF1000F04D05046DF
:10A58000B0470F98401C0F9001200A900FAB5A461D
:10A5900041463020009600F0EFF9D84613E005F070
:10A5A000010080B90FAB5A4641462020009600F0CA
:10A5B000E3F9BAF1000F04D05046B0470F98401CA1
:10A5C0000F9001200A900A9838B9BAF1000F04D010
:10A5D0005046B0470F98401C0F90662C03D000E007
:10A5E00061E1462C6BD11E98C01D20F007001E9023
:10A5F000B0EC020B1E908DED020B0A2202A912A8EC
:10A600000E9BFFF785FC804612A8404411909FEDF9
:10A61000D80B53EC102B9DED020B51EC100BFEF7F9
:10A620001BFB04D24FF02D0A08F1010811E005F0E0
:10A63000020020B14FF02B0A08F1010809E005F0F3
:10A64000040020B14FF0200A08F1010801E04FF0AA
:10A65000000A00200A9005F0080090B1BAF1000F3E
:10A6600004D05046B0470F98401C0F9001200A902C
:10A670000FAB5A4641463020009600F07DF9D8468F
:10A6800013E005F0010080B90FAB5A464146202087
:10A69000009600F071F9BAF1000F04D05046B047AF
:10A6A0000F98401C0F9001200A900A9838B9BAF10F
:10A6B000000F04D05046B0470F98401C0F90582C04
:10A6C00001D0782C7BD1782C01D100200C9005F49E
:10A6D000807068B11E98C01D20F0070001461E90D2
:10A6E000006849681E9A08321E92CDE9060107E00B
:10A6F0001E9800681E99091D1E910021CDE90601D2
:10A700000C981023002206A9009012A8FFF72EFD36
:10A71000804612A84044119000200A9005F00800DD
:10A72000C8B105F0100068B13020B0470C9909B1EC
:10A73000582100E078210846B0470F98801C0F9000
:10A7400001200A900FAB5A4641463020009600F097
:10A7500013F9D8461FE005F00100E0B905F010003C
:10A7600008B108F102080FAB5A4641462020009676
:10A7700000F002F905F0100068B13020B0470C99E4
:10A7800009B1582100E078210846B0470F98801C95
:10A790000F9001200A9005F0100038B10A9828B9EE
:10A7A0003020B0470C9911B1582101E007E0782121
:10A7B0000846B0470F98801C0F9008F102086F2CD4
:10A7C00005D0622C03D0702C01D0752C51D105F42A
:10A7D000807068B11E98C01D20F0070001461E90D1
:10A7E000006849681E9A08321E92CDE9060107E00A
:10A7F0001E9800681E99091D1E910021CDE90601D1
:10A80000622C09D06F2C04D0702C08D0752C0CD180
:10A8100008E008200B9009E002200B9006E01020D1
:10A820000B9003E00A200B9000E000BF00BF0C98E3
:10A830000090002206A912A80B9BFFF797FC804608
:10A8400012A84044119005F0080040B10FAB5A46E1
:10A8500041463020009600F08FF8D84609E005F018
:10A86000010030B90FAB5A4641462020009600F057
:10A8700083F8119860B107E0119911F8010911915D
:10A88000B0470F98401C0F90119800780028F3D122
:10A8900005F00100A0B30FAB5A46414620200096B8
:10A8A00000F06AF85AE0632C0BD11E9810F8041BD4
:10A8B0001E90C8B20D900D98B0470F98401C0F9095
:10A8C0004CE0732C45D11E9850F8049B1E90B9F1B2
:10A8D000000F43D0059810B1DDF8388003E04846FA
:10A8E000FDF778FF804605F0010030B90FAB5A46FE
:10A8F00041462020009600F03FF8059898B108E006
:10A900002CE019F8010BB0470F98401C0F90A8F1EC
:10A91000010899F8000010B1B8F1000FF1DC0E98B1
:10A92000A0EB08080AE005E019F8010BB0470F9802
:10A93000401C0F9099F800000028F5D105F00100A7
:10A9400060B10FAB5A4641462020009600F014F843
:10A9500004E02046B0470F98401C0F9000BF7F1CBA
:10A960003878041E7FF4FCAC0F981FB0BDE8F08F60
:10A9700000000000000000002DE9F04780460D4671
:10A9800016461C46DDF820902F4605E04046C84795
:10A990002068401C20607F1CB742F7DBBDE8F087D1
:10A9A00001B50748007810B94FF0FF3008BD0449E1
:10A9B000486801228B68694698470120F6E7000045
:10A9C0008C180020012101700521C170092101713D
:10A9D000032141710F214170082181700021817193
:10A9E0007047000070B50546002406E0094850F89D
:10A9F0002400A84200D102E0641C002CF6D000BF65
:10AA000004B904E04D2204A10EA004F0B3FB2046DB
:10AA100070BD00007CE801002E2E5C6465766963E1
:10AA200065735C4C504335343630385C64726976FB
:10AA30006572735C66736C5F656570726F6D2E63B3
:10AA400000000000696E7374616E6365203C2041F4
:10AA5000525241595F53495A4528735F6565707278
:10AA60006F6D426173657329000000002DE9F041AC
:10AA700005460C46174604B104E05F222FA13AA018
:10AA800004F078FB4FF000082846FFF7ABFF384989
:10AA900031F81060300A032805D20121B140354A4F
:10AAA00042F8201005E001218A07D164B140324A02
:10AAB000516100BF3148B7FBF0F8B7FBF0F100FB84
:10AAC00011702F49884201D908F10108A8F101004D
:10AAD00068612178284600F055F86078401E4FF4F0
:10AAE0007F4101EA0020A178491EC9B20843A8604D
:10AAF000E078401E4FF47F0101EA00402179491EB1
:10AB00004FF47F4202EA012108436179491EC9B22C
:10AB1000084328612869A179D20502EAC171084376
:10AB200028610620286000BF00BFD5F8E00F00F0C4
:10AB300004000028F8D0BDE8F08100002E2E5C64EF
:10AB40006576696365735C4C504335343630385CE8
:10AB5000647269766572735C66736C5F656570724A
:10AB60006F6D2E6300000000636F6E666967000002
:10AB700080E80100200200400000044060E316006D
:10AB8000B0710B00C16070472DE9FC5F80460C4638
:10AB900017469946DDF830B007B105E040F22E4285
:10ABA00055A15FA004F0E6FAB9F1000F00D005E06E
:10ABB00040F22F4250A15CA004F0DCFABBF1000F80
:10ABC00000D005E04FF486624BA15BA004F0D2FAFE
:10ABD0000120019000254FF0000A4E46786818B118
:10ABE00002200190012020703C212046FDF7E7FD66
:10ABF000387800F0010008B101206070786808B171
:10AC000001202070002555E005EB4502201DF1686C
:10AC100040F82210002105EB450200EB8200818004
:10AC2000317805EB4502201D00EB8200C18005EB69
:10AC30004502201D00EB8200B169816005EB4502F1
:10AC400004F11C00716840F82210717805EB450290
:10AC500000EB82004181002105EB450204F11C005C
:10AC600000EB8200818005EB450204F11C0000EB43
:10AC70008200C18005EB450204F11C0000EB82005C
:10AC8000018108F5885000EBC510406B48F20101C6
:10AC9000084308F5885101EBC511486308F5885051
:10ACA00000EBC510406B00F0400040EA0A0A1C3679
:10ACB000681CC5B201988542A6DBBAF1000F01D02D
:10ACC000012000E00020A070404600F001F91D497D
:10ACD00041F82040C4F834B00D98A0631A481B49CD
:10ACE0000860404600F0F4F819490856009000F05A
:10ACF000C3FFBDE8FC9F00002E2E5C64657669638F
:10AD000065735C4C504335343630385C6472697618
:10AD10006572735C66736C5F656E65742E630000AC
:10AD2000636F6E6669670000627566666572436F81
:10AD30006E6669670000000063616C6C6261636B42
:10AD4000000000005800002053B000005C0000200C
:10AD500070E801002DE9F84F07460E46154606B18A
:10AD600005E040F2973222A12BA004F003FA05B1CE
:10AD700005E04FF466721EA129A004F0FBF93078BB
:10AD800000F0010A706808B9012000E00220834643
:10AD9000002428E007F5885000EBC410406BC0F396
:10ADA0008019234642462946384600F0D4FE10B1A9
:10ADB0000120BDE8F88F07F5885000EBC410406B08
:10ADC00000F0010823464A4629463846CDF800A03F
:10ADD00000F008FB08B10120EBE71C350DB9042099
:10ADE000E7E7601CC4B25C45D4DB0020E1E700006B
:10ADF0002E2E5C646576696365735C4C5043353414
:10AE00003630385C647269766572735C66736C5F49
:10AE1000656E65742E630000636F6E66696700007F
:10AE2000627566666572436F6E6669670000000052
:10AE300010B502460B4698B2B0B1002112E041F2C3
:10AE4000827404400CB140F4804040F64504044054
:10AE50000CB140F4004002F5885404EBC114606367
:10AE60004C1CE1B20229EAD3000C20B1D2F8B44064
:10AE70000443C2F8B44010BD10B5044604B105E067
:10AE800040F25B3206A110A004F074F90120207298
:10AE90006072A072002020806060A08110BD000060
:10AEA0002E2E5C646576696365735C4C5043353463
:10AEB0003630385C647269766572735C66736C5F99
:10AEC000656E65742E630000636F6E6669670000CF
:10AED00070B50546002406E0094850F82400A84251
:10AEE00000D102E0641C002CF6D000BF04B905E0DC
:10AEF00040F2533203A10DA004F03CF9204670BD8E
:10AF00006CE801002E2E5C646576696365735C4CA9
:10AF1000504335343630385C647269766572735CE0
:10AF200066736C5F656E65742E630000696E737482
:10AF3000616E6365203C2046534C5F464541545545
:10AF400052455F534F435F4C50435F454E45545FFE
:10AF5000434F554E540000002DE9F04782460F46FE
:10AF60001646994607B105E040F2DA421FA129A032
:10AF700004F000F906B105E040F2DB421BA127A076
:10AF800004F0F8F809EB4901381D00EB8104A188B1
:10AF9000206800EB011500203060E86800F00040F8
:10AFA00018B140F6A270BDE8F08700BFE86800F075
:10AFB000805060B1E86800F4004010B14FF47A604E
:10AFC000F1E7E868C0F30E0030600020EBE7E188AD
:10AFD000404600F094F81FFA80F8206800EB08154E
:10AFE000A0884045E2D14FF47A60DCE72E2E5C6405
:10AFF0006576696365735C4C504335343630385C34
:10B00000647269766572735C66736C5F656E657495
:10B010002E63000068616E646C6500006C656E678D
:10B020007468000070B504460D460026287870B19B
:10B030004FF40140FDF74AFAA189884207D142F254
:10B04000F020FDF743FA218A884200D101263046DC
:10B0500070BDF8B504460D4641F20800005900F0F5
:10B06000010010B34FF48B50065906F0400070B148
:10B0700048F240014FF48B500151686B38B1A86B16
:10B08000009000231A46294620466F6BB84706F009
:10B09000010048B148F201014FF48B5001510022E8
:10B0A0002946204600F06CF900BF41F20800005923
:10B0B00000F0020010B34FF48F50065906F0400024
:10B0C00070B148F240014FF48F500151686B38B1B4
:10B0D000A86B009001230022294620466F6BB847D9
:10B0E00006F0010048B148F201014FF48F500151C0
:10B0F00001222946204600F043F900BFF8BD401C5C
:10B10000884200D3002070472DE9F04106460C46E6
:10B110001746984604B105E040F26E3216A120A011
:10B1200004F028F83046FFF7D3FE05461E4931F8F3
:10B130001500010A032905D2012282401B4B43F866
:10B14000212005E001229307DA648240184B5A61FE
:10B1500000BF207A00F022FC2146304600F068FA59
:10B160002146304600F0D0FA3A462146304600F0FB
:10B1700041FBBDE8F08100002E2E5C6465766963BA
:10B1800065735C4C504335343630385C6472697694
:10B190006572735C66736C5F656E65742E63000028
:10B1A000636F6E666967000068E801002002004076
:10B1B000000004402DE9FF4F87B081460E469046BF
:10B1C000DDF850A006B105E040F2015260A16AA08E
:10B1D00003F0D0FF4FF0000B0027002005900AEB92
:10B1E0004A01301D00EB810401200490A0880390E7
:10B1F0000020029009F5885000EBCA10006E00F0A4
:10B20000800008B101200290B8F1000F20D100BFEA
:10B21000A188206800EB0115E188A088FFF76FFF87
:10B22000A080E868069070780090B37800221146FC
:10B23000284600F0D3FC069800F0805000B103E0EF
:10B24000A18803988142E3D100BF002004906EE002
:10B2500069E0A188206800EB0115E188A088FFF76C
:10B260004EFFA080E86800F0805088B30120059070
:10B27000E868C0F30E010A98814220D1E868C0F363
:10B280000E00A0EB070BA068584510D2A2682968F1
:10B2900008EB0700FDF77AFAA0680744A368ABEB58
:10B2A0000302A96808EB0700FDF770FA05E02968BA
:10B2B00008EB07005A46FDF769FA00200490707801
:10B2C0000090B37800221146284600F087FC2AE05F
:10B2D000FFE7002005900A98874208D37078009015
:10B2E000B37800221146284600F078FC1EE0A268E0
:10B2F000296808EB0700FDF749FAA0680744A86829
:10B3000048B1707838B1A268A96808EB0700FDF76A
:10B310003DFAA068074470780090B3780022114687
:10B32000284600F05BFC0598002892D000BF0298E8
:10B3300048B109F5885000EBCA10816A09F58850B8
:10B3400000EBCA10816204980BB0BDE8F08F0000DA
:10B350002E2E5C646576696365735C4C50433534AE
:10B360003630385C647269766572735C66736C5FE4
:10B37000656E65742E63000068616E646C65000024
:10B380002DE9F84307460D46164606EB460105F142
:10B390001C0000EB8104E188206800EB011816E036
:10B3A000686B40B1A86B00903346012229463846AD
:10B3B000D5F834C0E0472089401E20816189E088AB
:10B3C000FFF79DFEE080E188206800EB01182089EE
:10B3D000002805DDD8F80C0000F000400028DFD080
:10B3E000BDE8F8832DE9F04F04460F469046099ECC
:10B3F00039464FF0014C11B90420BDE8F08FB8F187
:10B40000000F01D04CF0804C0EB14CF0007C08785D
:10B41000042801D20420F0E7C86820F0030B04F5EB
:10B42000885000EBC310C0F81CB0086920F0030B73
:10B4300004F5885000EBC310C0F828B00878401E0F
:10B44000C0F3090B04F5885000EBC310C0F830B00E
:10B4500004F5885000EBC310806847F6F87B20EABB
:10B460000B09886980080BEAC00040EA090904F565
:10B47000885000EBC310C0F80890CA68002517E098
:10B480001EB168044FEA104A00E0AA46486950F825
:10B490002A0010602EB1486900EB8A004068906075
:10B4A00001E000209060C2F80CC01032681C85B228
:10B4B0000878A842E4DC00209FE700002DE9FF4F58
:10B4C00087B0884617461D46B8F1000F00D005E04A
:10B4D00040F22A6246A150A003F04CFE07B105E0FD
:10B4E00040F22B6242A14EA003F044FE4FF0000A4E
:10B4F000D34647F6FE70854204D940F6A5700BB0DE
:10B50000BDE8F08F41463846FFF78CFD82460AEBD6
:10B510004A0108F11C0000EB8104A188206800EBBF
:10B52000011960892189884202D140F6A370E6E7BB
:10B53000B5F5804F0FD2002003210122CDE9041080
:10B540000346CDE9022BCDE900052A463946484697
:10B5500000F038FA13E0002003210122CDE9022B8C
:10B56000CDE90410A5F57C50FF38CDE9000543F680
:10B57000FF703B1802463946484600F023FA6189BD
:10B58000A088FFF7BCFDA0800798FFF7A1FC264923
:10B590000E5616F1800F00D10AE000BF06F01F0121
:10B5A000012088402149720941F8220000BF00BFF4
:10B5B0002089401C20810798FFF78AFC1A490E5603
:10B5C000304600F059FBA188206800EB0119A088E3
:10B5D00018B96189206800EB011929F00301079867
:10B5E00000F5885000EBCA100162002087E70000D8
:10B5F0002E2E5C646576696365735C4C504335340C
:10B600003630385C647269766572735C66736C5F41
:10B61000656E65742E63000068616E646C65000081
:10B62000646174610000000070E8010080E100E0E6
:10B630002DE9F04104460E4606B105E04FF49D7237
:10B6400025A12FA003F096FD4FF48050005940F043
:10B6500001014FF48050015100BF4FF48050005958
:10B6600000F001000028F8D1002531E001277068C2
:10B6700008B17068476807F4803104F5885000EB22
:10B68000C510016004F5885000EBC510406820F437
:10B690007C184FF47C1000EA074040EA080004F5EB
:10B6A000885101EBC511486004F5885000EBC510C6
:10B6B000806820F47C184FF47C1000EA074040EAD0
:10B6C000080004F5885101EBC5118860681CC5B2FB
:10B6D000022DCBD3BDE8F0812E2E5C6465766963C4
:10B6E00065735C4C504335343630385C647269762F
:10B6F0006572735C66736C5F656E65742E630000C3
:10B70000636F6E66696700002DE9F04704460F46D7
:10B7100007B105E040F25B1228A132A003F02AFD38
:10B720004FF00008C1467D68387800F0020018B17B
:10B730004FF002084FF020092C4848EA000848F072
:10B740000800C4F8000DC4F8408D294849EA0009F2
:10B75000C4F8309D85B3A87A602101EA4010E97AE7
:10B76000042202EA81010843C4F8000CA88BC4F843
:10B77000300C4FF45460005940F008014FF454600D
:10B780000151C4F8709D002614E005F1100050F836
:10B79000261004F5506000EB8610816105F10C0065
:10B7A000805D00F0070104F5506000EB8610C16376
:10B7B000701CC6B2022EE8D3BDE8F0872E2E5C6462
:10B7C0006576696365735C4C504335343630385C5C
:10B7D000647269766572735C66736C5F656E6574BE
:10B7E0002E630000636F6E6669670000010007004A
:10B7F000080070002DE9F04105460C46904604B162
:10B8000005E040F2871239A142A003F0B3FC002703
:10B81000B8F1000F1CD0464606B105E040F29F2269
:10B820003EA148A003F0A6FCF0780006B17840EAFB
:10B830000140717840EA012031780843C5F80403DB
:10B840003079717940EA0120C5F8000300BF00BFDC
:10B850002078C0F380002178C1F30011202202EA91
:10B86000411108432178C1F34011102202EA01116D
:10B8700040EA0107AF60207800F0080058B10320CB
:10B88000C5F89000A089314901EA00402867A089E5
:10B8900001EA004169670020FDF7B6FF2C49B0FBC3
:10B8A000F1F0471EC7F30B00C5F8DC00A07A4FF497
:10B8B000005101EA403040F40840617A4FF4804280
:10B8C00002EA813108432178C1F38011120202EAB1
:10B8D000815140EA0107A07A08B947F080672F60DC
:10B8E0000520C5F8A000BDE8F08100002E2E5C64A4
:10B8F0006576696365735C4C504335343630385C2B
:10B90000647269766572735C66736C5F656E65748C
:10B910002E630000636F6E66696700002E2E5C6404
:10B920006576696365735C4C504335343630385CFA
:10B93000647269766572735C66736C5F656E65745C
:10B940002E6800006D616341646472000000FFFFB7
:10B9500040420F0070B506460020FDF755FF0E4926
:10B96000B0FBF1F4142C03D3232C01D202250CE0FC
:10B97000232C03D33C2C01D2032506E0642C03D3F3
:10B98000962C01D2012500E000254FF4706000EAFA
:10B990000520C6F8000270BD40420F004FF48072CF
:10B9A00006490A60096821F4807204490A60044962
:10B9B000096860F38201024A116070470801004083
:10B9C000500400402DE9F04F044609AD95E8E01021
:10B9D000DDE90D89C2F30D0AC5F30D0B4AEA0B40F0
:10B9E000BCF1000F02D040F0804001E020F0804028
:10B9F00017B140F0004001E020F00040216063609A
:10BA0000A060C6F30E0A08F0030B4AEA0B7A4AF06C
:10BA10000040E060BDE8F08F2DE9F04104460E469D
:10BA2000174606B105E040F2BA3220A129A003F082
:10BA3000A1FB07B105E040F2BB321CA128A003F036
:10BA400099FB022E00D90226022F00D902270025D9
:10BA50000DE004F5885000EBC510806840F001014E
:10BA600004F5885000EBC5108160681CC5B2BD426A
:10BA7000EFDB00250DE004F5885000EBC5104068B1
:10BA800040F0010104F5885000EBC5104160681CCE
:10BA9000C5B2B542EFDB206840F0010020602068AD
:10BAA00040F002002060BDE8F08100002E2E5C64B2
:10BAB0006576696365735C4C504335343630385C69
:10BAC000647269766572735C66736C5F656E6574CB
:10BAD0002E630000747852696E674E756D00000029
:10BAE000727852696E674E756D00000030B5D0F8FF
:10BAF000004204F4706343F00C044FF0787505EADB
:10BB000041552C434FF4F81505EA02452C43C0F883
:10BB10000042D0F8004244F00104C0F8004230BDB9
:10BB200070B500F50070056805F4706444F0040514
:10BB30004FF0787606EA415635434FF4F81606EA98
:10BB40000246354305604360056845F00105056020
:10BB5000A0F5007070BD2DE9F04104460D46174672
:10BB600017B14FF0004000E000208446294611B98B
:10BB70000420BDE8F0814878042801D20420F8E7C9
:10BB8000486820F0030804F5885000EBC310C0F8A3
:10BB90001480886820F0030804F5885000EBC31077
:10BBA000C0F820804878401EC0F3090804F588508A
:10BBB00000EBC310C0F82C804A68002608E0002083
:10BBC00010605060C2F808C0D0601032701C86B29D
:10BBD0004878B042F3DC0020CBE700002DE9F047C5
:10BBE00004460E4617469846DDF8209004B105E05D
:10BBF0004FF4B6620DA117A003F0BCFA4FF0014557
:10BC0000B8F1000F01D045F08045B9F1000F01D027
:10BC100045F0007506B126600FB1A76001E0002075
:10BC2000A06000206060E560BDE8F0872E2E5C64B7
:10BC30006576696365735C4C504335343630385CE7
:10BC4000647269766572735C66736C5F656E657449
:10BC50002E630000727844657363000010B50348DA
:10BC600001680348034A1268904710BD580000203D
:10BC7000002009405C00002010F1800F00D17047C7
:10BC800000BF00F01F02012191404209920002F121
:10BC9000E022C2F8001100BF00BFF0E730B589B064
:10BCA00004460D463520049005940695694604A87F
:10BCB00007F05CF9009810F01DFF09B030BD70B5B9
:10BCC0008AB004460D46164638200590069407951E
:10BCD000089601A905A807F049F9019810F00AFF94
:10BCE0000AB070BDF0B589B004460D4616461F4631
:10BCF000332004900594069507964FF47A70B7FBAD
:10BD0000F0F00890694604A807F030F9009810F0A8
:10BD1000F1FE09B0F0BD70B58AB004460D46164676
:10BD200034200590069407954FF47A70B6FBF0F036
:10BD3000089001A905A807F019F9019810F0DAFE9A
:10BD40000AB070BD30B589B004460D46322004906B
:10BD500005940695694604A807F008F9009810F0C4
:10BD6000C9FE09B030BD000010B50848006800B138
:10BD700004E0A42206A111A003F0FCF9154B1968F8
:10BD8000154B1868014B1A68904710BDE803002056
:10BD90002E2E5C646576696365735C4C5043353464
:10BDA0003630385C647269766572735C66736C5F9A
:10BDB000666C6578636F6D6D2E630000735F666CF3
:10BDC0006578636F6D6D49727148616E646C657200
:10BDD0005B305D0010040020D0E7010010B508487A
:10BDE000406800B104E0AC2206A111A003F0C2F942
:10BDF000154B5968154B5868014B5A68904710BD50
:10BE0000E80300202E2E5C646576696365735C4CE4
:10BE1000504335343630385C647269766572735CD1
:10BE200066736C5F666C6578636F6D6D2E63000082
:10BE3000735F666C6578636F6D6D49727148616E92
:10BE4000646C65725B315D0010040020D0E7010076
:10BE500010B50848806800B104E0B42206A111A022
:10BE600003F088F9154B9968154B9868014B9A684F
:10BE7000904710BDE80300202E2E5C646576696350
:10BE800065735C4C504335343630385C6472697687
:10BE90006572735C66736C5F666C6578636F6D6DFD
:10BEA0002E630000735F666C6578636F6D6D497219
:10BEB0007148616E646C65725B325D001004002035
:10BEC000D0E7010010B50848C06800B104E0BC220A
:10BED00006A111A003F04EF9154BD968154BD8688F
:10BEE000014BDA68904710BDE80300202E2E5C64F9
:10BEF0006576696365735C4C504335343630385C25
:10BF0000647269766572735C66736C5F666C657883
:10BF1000636F6D6D2E630000735F666C6578636F91
:10BF20006D6D49727148616E646C65725B335D0062
:10BF300010040020D0E7010010B50848006900B1E6
:10BF400004E0C42206A111A003F014F9154B1969ED
:10BF5000154B1869014B1A69904710BDE803002082
:10BF60002E2E5C646576696365735C4C5043353492
:10BF70003630385C647269766572735C66736C5FC8
:10BF8000666C6578636F6D6D2E630000735F666C21
:10BF90006578636F6D6D49727148616E646C65722E
:10BFA0005B345D0010040020D0E7010010B50248AA
:10BFB00011F0C6F810BD000000A0084010B50848F8
:10BFC000406900B104E0CD2206A111A003F0D2F82F
:10BFD000154B5969154B5869014B5A69904710BD6B
:10BFE000E80300202E2E5C646576696365735C4C03
:10BFF000504335343630385C647269766572735CF0
:10C0000066736C5F666C6578636F6D6D2E630000A0
:10C01000735F666C6578636F6D6D49727148616EB0
:10C02000646C65725B355D0010040020D0E7010090
:10C0300010B50848806900B104E0D52206A111A01E
:10C0400003F098F8154B9969154B9869014B9A695B
:10C05000904710BDE80300202E2E5C64657669636E
:10C0600065735C4C504335343630385C64726976A5
:10C070006572735C66736C5F666C6578636F6D6D1B
:10C080002E630000735F666C6578636F6D6D497237
:10C090007148616E646C65725B365D00100400204F
:10C0A000D0E7010010B50848C06900B104E0DD2206
:10C0B00006A111A003F05EF8154BD969154BD8699C
:10C0C000014BDA69904710BDE80300202E2E5C6416
:10C0D0006576696365735C4C504335343630385C43
:10C0E000647269766572735C66736C5F666C6578A2
:10C0F000636F6D6D2E630000735F666C6578636FB0
:10C100006D6D49727148616E646C65725B375D007C
:10C1100010040020D0E7010010B50848006A00B103
:10C1200004E0E52206A111A003F024F8154B196ADA
:10C13000154B186A014B1A6A904710BDE80300209E
:10C140002E2E5C646576696365735C4C50433534B0
:10C150003630385C647269766572735C66736C5FE6
:10C16000666C6578636F6D6D2E630000735F666C3F
:10C170006578636F6D6D49727148616E646C65724C
:10C180005B385D0010040020D0E7010010B50848BE
:10C19000406A00B104E0ED2206A111A002F0EAFF1E
:10C1A000154B596A154B586A014B5A6A904710BD96
:10C1B000E80300202E2E5C646576696365735C4C31
:10C1C000504335343630385C647269766572735C1E
:10C1D00066736C5F666C6578636F6D6D2E630000CF
:10C1E000735F666C6578636F6D6D49727148616EDF
:10C1F000646C65725B395D0010040020D0E70100BB
:10C2000010B5024810F09CFF10BD000000A00940CE
:10C2100070B50546002407E0074850F82400A842FE
:10C2200001D1204670BD641C0A2CF5DB612203A1FC
:10C230000DA002F09FFF0000D0E701002E2E5C64ED
:10C240006576696365735C4C504335343630385CD1
:10C25000647269766572735C66736C5F666C657830
:10C26000636F6D6D2E63000066616C736500000086
:10C2700070B505460E462846FFF7CAFF0446002C57
:10C2800001DA042070BD0C4931F81400010A0329B9
:10C2900005D201228240094B43F8212005E001220A
:10C2A0009307DA648240064B5A6100BF0022314690
:10C2B000284600F024F8E5E7F8E7010020020040F6
:10C2C0000000044010B5024609B9012010BD012943
:10C2D0000CDB04290ADCD2F8F80FCB1C01249C40AB
:10C2E000204008B10120F1E70020EFE7052904D143
:10C2F000D2F8F80FC0F3C010E8E70020E6E770B509
:10C3000004460D46164629462046FFF7DBFF08B9CE
:10C31000032070BDD4F8F80F00F0080038B1D4F84D
:10C32000F80F00F00700A84201D00120F1E726B184
:10C3300045F00800C4F8F80F01E0C4F8F85F0020E9
:10C34000E7E730B51C785CB900F5005454F821409B
:10C3500001259540AC4300F5005545F8214019E012
:10C360005C7834B90124944000F50A5545F8214021
:10C3700005E00124944000F5085545F8214000F5FA
:10C38000005454F82150012494402C4300F50055EA
:10C3900045F8214030BD10B500EB4114A35410BD49
:10C3A00010B500EBC11444F8223010BD10B50023C5
:10C3B000182219460248FFF7EEFF002010BD0000CA
:10C3C00000C0084010B50123182200210248FFF7E1
:10C3D000E2FF012010BD000000C008402DE9F84335
:10C3E0000746884614461D4605B104E0EA2214A11A
:10C3F00017A002F0BFFE04B104E0EB2210A116A0CA
:10C4000002F0B8FE00266B461F224146384600F077
:10C41000B9F806468EB9009800F0100010B101205E
:10C42000287001E000202870009800F0080010B18A
:10C430000120207001E0002020703046BDE8F88324
:10C440002E2E2F66736C5F7068792E6300000000DB
:10C450006475706C65780000737065656400000039
:10C46000F8B506460F46144600256B4601223946AC
:10C47000304600F087F8054645B9009800F0040002
:10C4800010B10120207001E0002020702846F8BD86
:10C490002DE9FC4105460E469046002000904FF6DF
:10C4A000FF742846FEF714FD0746334931F817009C
:10C4B000010A032905D201228240304B43F8212092
:10C4C00005E001229307DA6482402D4B5A6100BFD8
:10C4D0002846FFF73FFA06E06B460222314628461F
:10C4E00000F050F8641E0098072801D0002CF3D10A
:10C4F00014B90120BDE8FC814FF6FF744FF40043EE
:10C5000000223146284600F058F800BF01AB002257
:10C510003146284600F036F8201EA4F1010404D06C
:10C52000019800F400400028F0D10CB90120E1E7A7
:10C5300040F2E11304223146284600F03EF84FF461
:10C54000905300223146284600F037F84FF6FF742A
:10C5500000BF01AB1F223146284600F013F8641ECD
:10C5600024B1019800F480500028F2D00CB90120C9
:10C57000C0E70020BEE7000068E80100200200409C
:10C58000000004402DE9F04104460E4617461D46C2
:10C590003A4631462046FFF7A9FA00BF00BFD4F85B
:10C5A000000200F001000028F8D100BFD4F8040216
:10C5B00080B228600020BDE8F0812DE9F0410446FA
:10C5C0000D4616461F463B46324629462046FFF793
:10C5D000A7FA00BF00BFD4F8000200F00100002855
:10C5E000F8D1BDE8F081000001218140024A030A30
:10C5F00042F82310704700003006004001218140BE
:10C60000024A030A42F82310704700003006004037
:10C6100001218140024A030A42F8231070470000BA
:10C620003006004010B504461A48844218D20B2147
:10C63000002000F031F80C21012000F02DF80B2132
:10C64000022000F029F80B21032000F025F80B212F
:10C65000042000F021F80B21052000F01DF817E060
:10C660000D21002000F018F80C21012000F014F832
:10C670000B21022000F010F80D21032000F00CF82F
:10C680000B21042000F008F80B21052000F004F82D
:10C6900010BD000000E1F50510B501F00F02024CDD
:10C6A00044F8202010BD0000000002402DE9F041B8
:10C6B00005462E0CAFB2012000FA07F4202F00D25D
:10C6C00004E05D220DA117A002F054FD032E08D353
:10C6D0001848846000BF174800682040A042FAD084
:10C6E0000AE0154840F8264000BF1348403850F88B
:10C6F00026002040A042F8D0BDE8F0812E2E5C64D8
:10C700006576696365735C4C504335343630385C0C
:10C71000647269766572735C66736C5F726573656B
:10C72000742E6300626974506F73203C203332753D
:10C7300000000000000004404001004010B5044625
:10C74000204600F005F82046FFF7B0FF10BD0000BE
:10C750002DE9F04105462E0CAFB2012000FA07F496
:10C76000202F00D204E03C220DA117A002F002FD10
:10C77000032E08D31848446000BF174800682040C3
:10C780000028FAD00AE0154840F8264000BF1348B8
:10C79000203850F8260020400028F8D0BDE8F0816D
:10C7A0002E2E5C646576696365735C4C504335344A
:10C7B0003630385C647269766572735C66736C5F80
:10C7C00072657365742E6300626974506F73203CE8
:10C7D00020333275000000000000044020010040BA
:10C7E00010B5024802490968884710BD005008404A
:10C7F0006C0000202DE9F04304460E46DDE9075C9D
:10C80000C6F3013731466D4800680A2802D301207B
:10C81000BDE8F083022F0FD14FF4707000EA83104F
:10C82000084304F54078DFF89491D9F8009008EBBC
:10C83000C908C8F80400A6E0012F4FD1604800687D
:10C840000A2801D30120E3E75D48007800F00F00DB
:10C850000143206800F0010000B9A5B91FFA82F871
:10C8600004F58070DFF85891D9F8009040F82980DD
:10C870001FFA82F804F50070DFF84491D9F80090AF
:10C8800040F8298019E0102000EA051001434D48C6
:10C8900000EA024804F58070DFF82491D9F800908E
:10C8A00040F82980474800EA024804F50070DFF8A4
:10C8B0001091D9F8009040F8298004F54070DFF815
:10C8C000FC80D8F8008000EBC80041603C4800685C
:10C8D000401CDFF8EC80C8F8000054E038480068DD
:10C8E0000A2801D3012093E73548007800F00F00B3
:10C8F0004FF4707808EA831840EA08000143206882
:10C9000000F0010000B9A5B91FFA82F804F58070A3
:10C91000DFF8AC90D9F8009040F829801FFA82F82F
:10C9200004F50070DFF89890D9F8009040F829805D
:10C9300019E0102000EA05100143224800EA0248ED
:10C9400004F58070DFF87890D9F8009040F82980DD
:10C950001C4800EA024804F50070DFF86490D9F83A
:10C96000009040F8298004F54070DFF85080D8F836
:10C97000008000EBC800416011480068401CDFF8EF
:10C980004080C8F80000104890F80080012000FAAC
:10C9900008F004F54078DFF82490D9F8009048F8C2
:10C9A000390006480068CCF8000004480068401CC4
:10C9B000DFF80880C8F80000002029E760000020A8
:10C9C000680000200000FFFF640000202DE9F04116
:10C9D0008046104806680F48F438D0F8F00000EAA6
:10C9E00006073546002400BF0CE005F0010038B111
:10C9F000094850F8240018B1074951F8240080472D
:10CA00006D08641C0A2C01DA002DEED10148076084
:10CA1000BDE8F081F45008403804002010B5044609
:10CA200004B104E0A22207A111A002F0A3FB01209F
:10CA3000207000206070A070E07020716071A071A3
:10CA4000E07110BD2E2E5C646576696365735C4C85
:10CA5000504335343630385C647269766572735C85
:10CA600066736C5F736374696D65722E630000009A
:10CA7000636F6E666967000070B505460126002485
:10CA800006E00A4850F82400A84200D102E0641CE5
:10CA9000B442F6D300BFB44200D204E0612204A144
:10CAA0000EA002F067FB204670BD000084E8010084
:10CAB0002E2E5C646576696365735C4C5043353437
:10CAC0003630385C647269766572735C66736C5F6D
:10CAD000736374696D65722E63000000696E737410
:10CAE000616E6365203C20736374417272617943A7
:10CAF0006F756E74000000002DE9F04105460C468C
:10CB000004B104E0682234A13EA002F033FB2846C1
:10CB1000FFF7B2FF3D4931F81070380A032805D2FB
:10CB20000121B9403A4A42F8201005E001218A0764
:10CB3000D164B940374A516100BF2846FFF79CFFD6
:10CB4000354951F820703846FFF7F8FDA078782174
:10CB500001EAC0006178062202EA41010843217817
:10CB600001F0010108432860E078102101EA00107B
:10CB700061794FF4FF5202EA4111084340F0080086
:10CB8000001D6860207870B920794FF4801101EAA7
:10CB90000050A179120402EA4151084340F44020B8
:10CBA000696808436860E079286500201B490860CF
:10CBB0001B4908601B490860002604E000201A4950
:10CBC00041F82600761C0A2EF8D318481849086048
:10CBD0000020BDE8F08100002E2E5C64657669635C
:10CBE00065735C4C504335343630385C647269761A
:10CBF0006572735C66736C5F736374696D65722EC6
:10CC000063000000636F6E666967000088E80100DA
:10CC100020020040000004408CE801006000002079
:10CC2000640000206800002038040020CDC9000006
:10CC30006C00002010B500F5A06303EBC1035B6836
:10CC400001249440234300F5A06404EBC104636015
:10CC500010BD10B500F5A06353F831400123934097
:10CC6000234300F5A06444F8313010BD2DE9F04FA6
:10CC700085B004460D4617469946DDF838B005B133
:10CC800004E0BD2264A16FA002F074FABBF1000FB2
:10CC900000D004E0BE2260A16DA002F06BFAB9F1F1
:10CCA000000F00D004E0BF225BA16CA002F062FA8A
:10CCB000002004906068C0F34710401CBBFBF0FAF2
:10CCC00069480068801C0A2803D9012005B0BDE826
:10CCD000F08FA87808B90120F8E7206840F001003B
:10CCE0002060012F03D1606840F01000606027B918
:10CCF000BAFBF9F0A0F1010803E04FEA4900BAFBE2
:10CD0000F0F8A87800FB08F06421B0FBF1F0049083
:10CD1000A878642802DB08F10200049003A800212F
:10CD20000B464246CDE900104FF480512046FFF7F4
:10CD300061FD02A800210B46CDE900104FF480519F
:10CD40002046049AFFF756FD00210398226802F05E
:10CD5000010202B931B9A268012383409BB21A4390
:10CD6000A26008E0A26801238340DFF800C10CEA5A
:10CD700003431A43A26000BF03990F9801606878CB
:10CD8000012823D1206D2A78012191408843206514
:10CD900057B929782046039AFFF75BFF2978204688
:10CDA000029AFFF747FF34E029782046029AFFF7FE
:10CDB00041FF666D2878410003208840864328782B
:10CDC0004100012088400643666522E0206D2A78F4
:10CDD000012191400843206557B929782046039ADC
:10CDE000FFF728FF29782046029AFFF732FF10E06C
:10CDF00029782046029AFFF72CFF666D28784100BB
:10CE0000032088408643287841000120884006435B
:10CE1000666500205AE700002E2E5C646576696323
:10CE200065735C4C504335343630385C64726976D7
:10CE30006572735C66736C5F736374696D65722E83
:10CE40006300000070776D506172616D73000000C7
:10CE5000737263436C6F636B5F487A0070776D46E3
:10CE60007265715F487A0000600000200000FFFFDB
:10CE700010B500BF402080F31188BFF34F8FBFF380
:10CE80006F8F00BF11F0F0F918B14FF080500449D6
:10CE9000086000BF002080F3118800BF10BD0000B3
:10CEA00004ED00E00848006840F47000064908609E
:10CEB0000648054980390860002005490860382087
:10CEC0000907C1F82002704788ED00E000800000EB
:10CED0000403004010B5044604B104E0D32209A1C4
:10CEE00012A002F047F94FF4E130206000202071D9
:10CEF00060710120A0710020E07120726072A07248
:10CF0000E07210BD2E2E5C646576696365735C4CBF
:10CF1000504335343630385C647269766572735CC0
:10CF200066736C5F75736172742E63004E554C4C62
:10CF300020213D20636F6E66696700002DE9F04196
:10CF400004460D46174614B10DB107B104E0932213
:10CF500033A13DA002F00EF90CB105B117B90420C0
:10CF6000BDE8F08101212046FFF782F906460EB1A7
:10CF70003046F5E73A462046296800F007F90646AC
:10CF80000EB13046ECE7687AB8B104F56064206809
:10CF900040F001102060A06820F47060A060A068DC
:10CFA000A97A4FF4706202EA01210843A060A068E8
:10CFB00040F00100A060A4F56064287AB8B104F5DF
:10CFC0006064206840F002102060A06820F47020A7
:10CFD000A060A068E97A4FF4702202EA0141084398
:10CFE000A060A06840F00200A060A4F56064287909
:10CFF000302101EA00106979402202EA81110843D8
:10D00000A9790C2202EA81010843E9794FF4004230
:10D0100002EAC1310843401C20600020A0E7000064
:10D020002E2E5C646576696365735C4C50433534C1
:10D030003630385C647269766572735C66736C5FF7
:10D0400075736172742E63002128284E554C4C2054
:10D050003D3D206261736529207C7C20284E554C23
:10D060004C203D3D20636F6E66696729207C7C20E3
:10D070002830203D3D20737263436C6F636B5F48C3
:10D080007A2929002DE9F04104460D4617460CB1D6
:10D0900005B105E04FF4977229A133A002F06AF8B8
:10D0A00004B115B90420BDE8F081D4F8000E00F0F9
:10D0B000020008B90120F6E73EE000BFD4F8040EF4
:10D0C00000F040000028F9D0A66806F4005030B106
:10D0D000A06840F40050A06041F24F60E3E706F41E
:10D0E000804030B1A06840F48040A06041F25060C0
:10D0F000D9E706F4004030B1A06840F40040A060D9
:10D1000041F24E60CFE7D4F8040E00F0020070B197
:10D11000D4F8000E40F40030C4F8000ED4F8040E29
:10D1200040F00200C4F8040E41F24D60BBE7D4F8B1
:10D13000300E28706D1C7F1E002FBED10020B2E77C
:10D140002E2E5C646576696365735C4C50433534A0
:10D150003630385C647269766572735C66736C5FD6
:10D1600075736172742E63002128284E554C4C2033
:10D170003D3D206261736529207C7C20284E554C02
:10D180004C203D3D20646174612929002DE9FC5F3C
:10D1900006460C4617464FF0FF3001904FF00F0A3D
:10D1A000834616B10CB107B104E0E7221DA127A008
:10D1B00001F0E0FF0EB104B117B90420BDE8FC9FF7
:10D1C000554621E0681C6043B7FBF0F0A0F1010870
:10D1D000B8F5803F00D316E0681C08F10101484310
:10D1E000B7FBF0F94C4502D2A9EB040001E0A4EB37
:10D1F00009000090DDE90001884203D20098019007
:10D20000AA46C34600BF6D1E082DDBD2BBF5803F8A
:10D2100002D341F25160D1E7C6F828A0C6F820B089
:10D220000020CBE72E2E5C646576696365735C4CE9
:10D23000504335343630385C647269766572735C9D
:10D2400066736C5F75736172742E63002128284EBB
:10D25000554C4C203D3D206261736529207C7C202B
:10D260002830203D3D2062617564726174655F42C3
:10D27000707329207C7C202830203D3D2073726310
:10D28000436C6F636B5F487A2929000070B50446D0
:10D290000D4616460CB105B105E04FF4887212A197
:10D2A0001BA001F067FF04B105B970BDD4F8000EF2
:10D2B00000F0010000B9F8E70BE000BFD4F8040E5D
:10D2C00000F020000028F9D02878C4F8200E6D1C4A
:10D2D000761E002EF1D100BFA06800F008000028E3
:10D2E000FAD000BFE1E700002E2E5C64657669632A
:10D2F00065735C4C504335343630385C6472697603
:10D300006572735C66736C5F75736172742E630013
:10D310002128284E554C4C203D3D206261736529E3
:10D32000207C7C20284E554C4C203D3D206461746F
:10D33000612929007CB54FF4FC24002606212046F3
:10D3400000F0B0FD0546E079A17940EA0126B5423A
:10D3500013D112A0FCF7DCFFE078A178CDE9001032
:10D360006378227810A11348FCF7D2FF6079217905
:10D3700040EA01201049086009E0104810A1026845
:10D380000C4801F0CBFE48F233200B4908600A48F4
:10D39000084902680BA0FCF7BBFF7CBD206D6174DF
:10D3A0006368204F4B210A0025642E25642E2564D6
:10D3B0002E2564000D180020B0000020AC000020D5
:10D3C00025730000696E69745365727665723A2040
:10D3D00025733A25640D0A0001460022087830289A
:10D3E00006DB0878392803DC08783038024415E079
:10D3F0000878412806DB0878462803DC08783738A7
:10D4000002440BE00878612806DB0878662803DC14
:10D4100008785738024401E0002070471201491C87
:10D420000878302806DB0878392803DC087830389B
:10D43000024415E00878412806DB0878462803DC1A
:10D440000878373802440BE00878612806DB087852
:10D45000662803DC08785738024401E00020DCE746
:10D460001201491C0878302806DB0878392803DCCB
:10D4700008783038024415E00878412806DB08783F
:10D48000462803DC0878373802440BE00878612826
:10D4900006DB0878662803DC08785738024401E088
:10D4A0000020BAE71201491C0878302806DB08780A
:10D4B000392803DC08783038024415E00878412820
:10D4C00006DB0878462803DC0878373802440BE08E
:10D4D0000878612806DB0878662803DC0878573866
:10D4E000024401E0002098E7104696E709A001F009
:10D4F00005FE00BFBFF34F8F1348006800F4E060E3
:10D5000012490843001D10490860BFF34F8F00BF48
:10D5100000BFFEE77570646174652C2073797374C5
:10D52000656D2077696C6C20626520726573657427
:10D53000206E6F772C20706C656173652077616950
:10D54000742E2E2E0D0A00000CED00E00000FA05EE
:10D550002DE9F04705460C46174620785B2803D096
:10D560003C600020BDE8F0872020E860601C01F0EE
:10D57000F7FB044620785D2801D1601CF2E700F03B
:10D5800081FC0646A860A86808B90020EAE72046A2
:10D5900001F0E6FB81463A464946304600F030F855
:10D5A000804601F0DDFB04460CB90020DAE71BE001
:10D5B00000F068FCB0F1000800D1D3E7C6F80080A5
:10D5C000C8F804604646601C01F0CAFB82463A4631
:10D5D0005146304600F014F8814601F0C1FB044684
:10D5E0000CB90020BEE700BF20782C28E0D02078BE
:10D5F0005D2801D1601CB5E73C600020B2E7000067
:10D6000070B505460C4616460CB9002070BD0422C4
:10D6100025A12046FBF700F918B90420E860201D79
:10D62000F4E7052222A12046FBF7F6F818B90120FD
:10D63000E860601DEAE704221FA12046FBF7ECF832
:10D6400028B90220E86001206861201DDEE720780B
:10D65000222805D132462146284600F0C3F9D5E7F5
:10D6600020782D2805D02078302807DB207839282D
:10D6700004DC2146284600F045F8C7E720785B28FF
:10D6800005D1324621462846FFF762FFBEE72078E3
:10D690007B2805D132462146284600F017F9B5E728
:10D6A00034600020B2E700006E756C6C0000000072
:10D6B00066616C736500000074727565000000009F
:10D6C00000200F4991F8281001F0700131B10C4988
:10D6D000098D01F4804109B1032006E00849896AF7
:10D6E000022901D1022000E001200549C96A01296F
:10D6F00003D00349C96A022901D140F004007047F0
:10D7000038F500202DE9F0412DED0E8B05460C4635
:10D710009FED660BB0EE408AF0EE608A9FED650BE0
:10D72000B0EE40AAF0EE60AA9FED600BB0EE409A1A
:10D73000F0EE609A0026012720782D2806D19FED73
:10D740005F0BB0EE40AAF0EE60AA641C207830288F
:10D7500000D1641C2078312821DB207839281EDC98
:10D7600000BF14F8011BA1F13000FBF7ECF941EC0C
:10D770001B0B9FED540B53EC102B51EC180BFBF7CC
:10D7800001F941EC1C0B53EC1B2BFBF754F841EC5B
:10D79000180B2078302802DB20783928E1DD20784A
:10D7A0002E282FD1607830282CDB6078392829DCAE
:10D7B000641C00BF14F8011BA1F13000FBF7C3F992
:10D7C00041EC1B0B9FED3F0B53EC102B51EC180B56
:10D7D000FBF7D8F841EC1C0B53EC1B2BFBF72BF899
:10D7E00041EC180B9FED330B53EC102B51EC190B44
:10D7F000FBF7C2F841EC190B2078302802DB2078C7
:10D800003928D7DD2078652802D02078452819D11D
:10D81000641C20782B2801D1641C05E020782D2879
:10D8200002D14FF0FF37641C06E014F8010B3038CA
:10D8300006EB860100EB41062078302802DB2078D9
:10D840003928F2DD06FB07F0FBF77DF941EC1E0BF2
:10D8500053EC192BFAF7EFFF41EC1D0BB0EE4D1A0C
:10D86000F0EE6D1A9FED170B01F042FDB0EE40BADD
:10D87000F0EE60BA53EC182B51EC1A0BFBF782F860
:10D8800041EC1C0B53EC1B2BFBF77CF841EC180B09
:10D8900085ED068B51EC180BFBF787F968610820C2
:10D8A000E8602046BDEC0E8BBDE8F0810000000072
:10D8B00000000000000000000000F03F0000000039
:10D8C0000000F0BF00000000000024402DE9F047F8
:10D8D00007460C46164620787B2803D0346000208B
:10D8E000BDE8F0874020F860601C01F039FA04467A
:10D8F00020787D2801D1601CF2E700F0C3FA0546CC
:10D90000B860B86808B90020EAE7204601F028FAB4
:10D91000814632464946284600F064F8804601F0C8
:10D920001FFA04460CB90020DAE7286928620020B3
:10D93000286120783A2802D034600020D0E7601CAB
:10D9400001F00EFA8146324649462846FFF758FE56
:10D95000804601F005FA04460CB90020C0E735E026
:10D9600000F090FAB0F1000800D1B9E7C5F80080E6
:10D97000C8F804504546601C01F0F2F98246324670
:10D980005146284600F02EF8814601F0E9F9044698
:10D990000CB90020A4E728692862002028612078BB
:10D9A0003A2802D0346000209AE7601C01F0D8F9D0
:10D9B0008246324651462846FFF722FE814601F054
:10D9C000CFF904460CB900208AE700BF20782C2844
:10D9D000C6D020787D2801D1601C81E7346000200A
:10D9E0007EE700002DE9F74F82B00F4691467D1C7F
:10D9F000A8464FF0000A3878222805D0C9F80070F0
:10DA0000002005B0BDE8F08F05E018F8011B5C2987
:10DA100001D108F1010898F80000222807D098F8F1
:10DA2000000020B10AF10100B0F1000AEDD10AF1C5
:10DA300001006D49096888478346BBF1000F01D199
:10DA40000020DEE70298C0F810B010210298C160F3
:10DA50007D1C5C46BDE028785C2804D015F8010BDD
:10DA600004F8010BB5E06D1C2878722818D006DC8C
:10DA7000622809D066280BD06E287DD10CE074286E
:10DA800012D07528F9D113E0082004F8010B9EE0AC
:10DA90000C2004F8010B9AE00A2004F8010B96E030
:10DAA0000D2004F8010B92E0092004F8010B8EE030
:10DAB000681CFFF791FC06462D1D454503D3C9F8A8
:10DAC000007000209DE7B6F55C4F02D3B6F5604FBD
:10DAD00000D31EB9C9F80070002092E7B6F5584F80
:10DAE0002BD3B6F55C4F28D2A81D404503D9C9F801
:10DAF0000070002085E768785C2802D1A878752836
:10DB000003D0C9F8007000207BE7E81CFFF764FC35
:10DB10000190AD1D0198B0F55C4F03D30198B0F5AD
:10DB2000604F03D3C9F8007000206AE7C6F309010B
:10DB3000019861F39F2000F580364FF0040A802E93
:10DB400002D24FF0010A0AE0B6F5006F02D24FF0A0
:10DB5000020A04E0B6F5803F01D24FF0030A5444B4
:10DB6000BAF1010F25D0BAF1020F19D0BAF1030FA3
:10DB70000DD0BAF1040F00E025E022D106F0BF007D
:10DB800040F08001601E04460170B60900BF06F037
:10DB9000BF0040F08001601E04460170B60900BF5E
:10DBA00006F0BF0040F08001601E04460170B60917
:10DBB00000BF0E4810F80A003043C1B2601E044690
:10DBC0000170544403E0287804F8010B00BF00BF43
:10DBD0006D1C4545FFF43FAF0020207028782228B7
:10DBE00000D16D1C28460CE7DC01002038EA01005A
:10DBF00010B58AB02E4C2F4809906FF07F400890E6
:10DC00002D4807902D482E490860002108460EF047
:10DC10002FFE2C482C49002207ABCDE900210290B1
:10DC200008AA09A9204608F039FB204608F0C8FBDD
:10DC3000204608F00BFC25A0FCF76AFB31A0FCF79E
:10DC400067FB34A0FCF764FB9DF8270000909DF86B
:10DC500026309DF825209DF824103BA0FCF758FBAA
:10DC60009DF8230000909DF822309DF821209DF81A
:10DC700020103EA0FCF74CFB9DF81F0000909DF883
:10DC80001E309DF81D209DF81C1041A0FCF740FBA4
:10DC900020A0FCF73DFB47A30FCBCDE90523CDE941
:10DCA00003010D2203A94748FAF770FD0AB010BD21
:10DCB000581800200A5688C80A5688FB704AAAC518
:10DCC000B400002099C90100112E01000D0A2A2A72
:10DCD0002A2A2A2A2A2A2A2A2A2A2A2A2A2A2A2AA4
:10DCE0002A2A2A2A2A2A2A2A2A2A2A2A2A2A2A2A94
:10DCF0002A2A2A2A2A2A2A2A2A2A2A2A2A2A0D0AC1
:10DD0000000000002050494E47206578616D706C1E
:10DD1000650D0A002A2A2A2A2A2A2A2A2A2A2A2A8F
:10DD20002A2A2A2A2A2A2A2A2A2A2A2A2A2A2A2A53
:10DD30002A2A2A2A2A2A2A2A2A2A2A2A2A2A2A2A43
:10DD40002A2A2A2A0D0A00002049507634204164EC
:10DD5000647265737320202020203A2025752E25BB
:10DD6000752E25752E25750D0A0000002049507668
